{
  "contractName": "TazoHelper",
  "abi": [
    {
      "constant": false,
      "inputs": [
        {
          "name": "_name",
          "type": "string"
        }
      ],
      "name": "createRandomTazo",
      "outputs": [],
      "payable": false,
      "stateMutability": "nonpayable",
      "type": "function"
    },
    {
      "constant": true,
      "inputs": [
        {
          "name": "",
          "type": "address"
        }
      ],
      "name": "ownerTazoCount",
      "outputs": [
        {
          "name": "",
          "type": "uint256"
        }
      ],
      "payable": false,
      "stateMutability": "view",
      "type": "function"
    },
    {
      "constant": true,
      "inputs": [
        {
          "name": "",
          "type": "uint256"
        }
      ],
      "name": "tazoToOwner",
      "outputs": [
        {
          "name": "",
          "type": "address"
        }
      ],
      "payable": false,
      "stateMutability": "view",
      "type": "function"
    },
    {
      "constant": true,
      "inputs": [
        {
          "name": "",
          "type": "uint256"
        }
      ],
      "name": "tazos",
      "outputs": [
        {
          "name": "name",
          "type": "string"
        },
        {
          "name": "dna",
          "type": "uint256"
        },
        {
          "name": "level",
          "type": "uint256"
        },
        {
          "name": "cooldown",
          "type": "uint256"
        },
        {
          "name": "winCount",
          "type": "uint256"
        }
      ],
      "payable": false,
      "stateMutability": "view",
      "type": "function"
    },
    {
      "constant": false,
      "inputs": [],
      "name": "renounceOwnership",
      "outputs": [],
      "payable": false,
      "stateMutability": "nonpayable",
      "type": "function"
    },
    {
      "constant": true,
      "inputs": [],
      "name": "owner",
      "outputs": [
        {
          "name": "",
          "type": "address"
        }
      ],
      "payable": false,
      "stateMutability": "view",
      "type": "function"
    },
    {
      "constant": true,
      "inputs": [],
      "name": "isOwner",
      "outputs": [
        {
          "name": "",
          "type": "bool"
        }
      ],
      "payable": false,
      "stateMutability": "view",
      "type": "function"
    },
    {
      "constant": false,
      "inputs": [
        {
          "name": "newOwner",
          "type": "address"
        }
      ],
      "name": "transferOwnership",
      "outputs": [],
      "payable": false,
      "stateMutability": "nonpayable",
      "type": "function"
    },
    {
      "anonymous": false,
      "inputs": [
        {
          "indexed": false,
          "name": "tazoId",
          "type": "uint256"
        },
        {
          "indexed": false,
          "name": "name",
          "type": "string"
        },
        {
          "indexed": false,
          "name": "dna",
          "type": "uint256"
        }
      ],
      "name": "NewTazo",
      "type": "event"
    },
    {
      "anonymous": false,
      "inputs": [
        {
          "indexed": true,
          "name": "previousOwner",
          "type": "address"
        },
        {
          "indexed": true,
          "name": "newOwner",
          "type": "address"
        }
      ],
      "name": "OwnershipTransferred",
      "type": "event"
    },
    {
      "constant": false,
      "inputs": [
        {
          "name": "_fee",
          "type": "uint256"
        }
      ],
      "name": "setLevelUpFee",
      "outputs": [],
      "payable": false,
      "stateMutability": "nonpayable",
      "type": "function"
    },
    {
      "constant": false,
      "inputs": [
        {
          "name": "_tazoId",
          "type": "uint256"
        }
      ],
      "name": "levelUp",
      "outputs": [],
      "payable": true,
      "stateMutability": "payable",
      "type": "function"
    },
    {
      "constant": false,
      "inputs": [
        {
          "name": "_tazoId",
          "type": "uint256"
        },
        {
          "name": "_newName",
          "type": "string"
        }
      ],
      "name": "changeName",
      "outputs": [],
      "payable": false,
      "stateMutability": "nonpayable",
      "type": "function"
    },
    {
      "constant": true,
      "inputs": [
        {
          "name": "_owner",
          "type": "address"
        }
      ],
      "name": "getTazosByOwner",
      "outputs": [
        {
          "name": "",
          "type": "uint256[]"
        }
      ],
      "payable": false,
      "stateMutability": "view",
      "type": "function"
    },
    {
      "constant": true,
      "inputs": [],
      "name": "getTazos",
      "outputs": [
        {
          "name": "",
          "type": "string"
        }
      ],
      "payable": false,
      "stateMutability": "view",
      "type": "function"
    }
  ],
  "bytecode": "0x60806040526010600155600154600a0a60025562015180600355655af3107a4000600755336000806101000a81548173ffffffffffffffffffffffffffffffffffffffff021916908373ffffffffffffffffffffffffffffffffffffffff1602179055506000809054906101000a900473ffffffffffffffffffffffffffffffffffffffff1673ffffffffffffffffffffffffffffffffffffffff16600073ffffffffffffffffffffffffffffffffffffffff167f8be0079c531659141344cd1fd0a4f28419497f9722a3daafe3b4186f6b6457e060405160405180910390a36116c0806100ee6000396000f3fe6080604052600436106100c25760003560e01c8063697c3e5f1161007f5780638f32d59b116100595780638f32d59b14610511578063c39cbef114610540578063ccf670f8146105d0578063f2fde38b1461060b576100c2565b8063697c3e5f146103d3578063715018a6146104a35780638da5cb5b146104ba576100c2565b80630ce90ec2146100c757806326ff8bcc146100f5578063278892d51461019b5780632cafebb714610263578063579f4425146102c85780635a800dbd14610358575b600080fd5b6100f3600480360360208110156100dd57600080fd5b810190808035906020019092919050505061065c565b005b34801561010157600080fd5b506101446004803603602081101561011857600080fd5b81019080803573ffffffffffffffffffffffffffffffffffffffff16906020019092919050505061078c565b6040518080602001828103825283818151815260200191508051906020019060200280838360005b8381101561018757808201518184015260208101905061016c565b505050509050019250505060405180910390f35b3480156101a757600080fd5b50610261600480360360208110156101be57600080fd5b81019080803590602001906401000000008111156101db57600080fd5b8201836020820111156101ed57600080fd5b8035906020019184600183028401116401000000008311171561020f57600080fd5b91908080601f016020809104026020016040519081016040528093929190818152602001838380828437600081840152601f19601f8201169050808301925050505050505091929192905050506108b9565b005b34801561026f57600080fd5b506102b26004803603602081101561028657600080fd5b81019080803573ffffffffffffffffffffffffffffffffffffffff16906020019092919050505061097c565b6040518082815260200191505060405180910390f35b3480156102d457600080fd5b506102dd610994565b6040518080602001828103825283818151815260200191508051906020019080838360005b8381101561031d578082015181840152602081019050610302565b50505050905090810190601f16801561034a5780820380516001836020036101000a031916815260200191505b509250505060405180910390f35b34801561036457600080fd5b506103916004803603602081101561037b57600080fd5b8101908080359060200190929190505050610a2a565b604051808273ffffffffffffffffffffffffffffffffffffffff1673ffffffffffffffffffffffffffffffffffffffff16815260200191505060405180910390f35b3480156103df57600080fd5b5061040c600480360360208110156103f657600080fd5b8101908080359060200190929190505050610a5d565b6040518080602001868152602001858152602001848152602001838152602001828103825287818151815260200191508051906020019080838360005b83811015610464578082015181840152602081019050610449565b50505050905090810190601f1680156104915780820380516001836020036101000a031916815260200191505b50965050505050505060405180910390f35b3480156104af57600080fd5b506104b8610b38565b005b3480156104c657600080fd5b506104cf610c71565b604051808273ffffffffffffffffffffffffffffffffffffffff1673ffffffffffffffffffffffffffffffffffffffff16815260200191505060405180910390f35b34801561051d57600080fd5b50610526610c9a565b604051808215151515815260200191505060405180910390f35b34801561054c57600080fd5b506105ce6004803603604081101561056357600080fd5b81019080803590602001909291908035906020019064010000000081111561058a57600080fd5b82018360208201111561059c57600080fd5b803590602001918460018302840111640100000000831117156105be57600080fd5b9091929391929390505050610cf1565b005b3480156105dc57600080fd5b50610609600480360360208110156105f357600080fd5b8101908080359060200190929190505050610ddd565b005b34801561061757600080fd5b5061065a6004803603602081101561062e57600080fd5b81019080803573ffffffffffffffffffffffffffffffffffffffff169060200190929190505050610e61565b005b600754341460075460405160200180806115e16029913960290182815260200191505060405160208183030381529060405290610734576040517f08c379a00000000000000000000000000000000000000000000000000000000081526004018080602001828103825283818151815260200191508051906020019080838360005b838110156106f95780820151818401526020810190506106de565b50505050905090810190601f1680156107265780820380516001836020036101000a031916815260200191505b509250505060405180910390fd5b5061076760016004838154811061074757fe5b906000526020600020906005020160020154610ee790919063ffffffff16565b6004828154811061077457fe5b90600052602060002090600502016002018190555050565b606080600660008473ffffffffffffffffffffffffffffffffffffffff1673ffffffffffffffffffffffffffffffffffffffff168152602001908152602001600020546040519080825280602002602001820160405280156107fd5781602001602082028038833980820191505090505b509050600080905060008090505b6004805490508110156108ae578473ffffffffffffffffffffffffffffffffffffffff166005600083815260200190815260200160002060009054906101000a900473ffffffffffffffffffffffffffffffffffffffff1673ffffffffffffffffffffffffffffffffffffffff1614156108a1578083838151811061088c57fe5b60200260200101818152505081806001019250505b808060010191505061080b565b508192505050919050565b6000600660003373ffffffffffffffffffffffffffffffffffffffff1673ffffffffffffffffffffffffffffffffffffffff1681526020019081526020016000205414610951576040517f08c379a00000000000000000000000000000000000000000000000000000000081526004018080602001828103825260358152602001806116606035913960400191505060405180910390fd5b600061095c82610f6f565b90506064818161096857fe5b06810390506109778282610ffd565b505050565b60066020528060005260406000206000915090505481565b6060806004805490506040519080825280602002602001820160405280156109cb5781602001602082028038833980820191505090505b509050600080905060008090505b600480549050811015610a1457808383815181106109f357fe5b602002602001018181525050818060010192505080806001019150506109d9565b50610a2360048054905061124a565b9250505090565b60056020528060005260406000206000915054906101000a900473ffffffffffffffffffffffffffffffffffffffff1681565b60048181548110610a6a57fe5b9060005260206000209060050201600091509050806000018054600181600116156101000203166002900480601f016020809104026020016040519081016040528092919081815260200182805460018160011615610100020316600290048015610b165780601f10610aeb57610100808354040283529160200191610b16565b820191906000526020600020905b815481529060010190602001808311610af957829003601f168201915b5050505050908060010154908060020154908060030154908060040154905085565b610b40610c9a565b610bb2576040517f08c379a00000000000000000000000000000000000000000000000000000000081526004018080602001828103825260208152602001807f4f776e61626c653a2063616c6c6572206973206e6f7420746865206f776e657281525060200191505060405180910390fd5b600073ffffffffffffffffffffffffffffffffffffffff166000809054906101000a900473ffffffffffffffffffffffffffffffffffffffff1673ffffffffffffffffffffffffffffffffffffffff167f8be0079c531659141344cd1fd0a4f28419497f9722a3daafe3b4186f6b6457e060405160405180910390a360008060006101000a81548173ffffffffffffffffffffffffffffffffffffffff021916908373ffffffffffffffffffffffffffffffffffffffff160217905550565b60008060009054906101000a900473ffffffffffffffffffffffffffffffffffffffff16905090565b60008060009054906101000a900473ffffffffffffffffffffffffffffffffffffffff1673ffffffffffffffffffffffffffffffffffffffff163373ffffffffffffffffffffffffffffffffffffffff1614905090565b826005600082815260200190815260200160002060009054906101000a900473ffffffffffffffffffffffffffffffffffffffff1673ffffffffffffffffffffffffffffffffffffffff163373ffffffffffffffffffffffffffffffffffffffff1614610da9576040517f08c379a00000000000000000000000000000000000000000000000000000000081526004018080602001828103825260308152602001806116306030913960400191505060405180910390fd5b828260048681548110610db857fe5b90600052602060002090600502016000019190610dd69291906114bb565b5050505050565b610de5610c9a565b610e57576040517f08c379a00000000000000000000000000000000000000000000000000000000081526004018080602001828103825260208152602001807f4f776e61626c653a2063616c6c6572206973206e6f7420746865206f776e657281525060200191505060405180910390fd5b8060078190555050565b610e69610c9a565b610edb576040517f08c379a00000000000000000000000000000000000000000000000000000000081526004018080602001828103825260208152602001807f4f776e61626c653a2063616c6c6572206973206e6f7420746865206f776e657281525060200191505060405180910390fd5b610ee481611377565b50565b600080828401905083811015610f65576040517f08c379a000000000000000000000000000000000000000000000000000000000815260040180806020018281038252601b8152602001807f536166654d6174683a206164646974696f6e206f766572666c6f77000000000081525060200191505060405180910390fd5b8091505092915050565b600080826040516020018082805190602001908083835b60208310610fa95780518252602082019150602081019050602083039250610f86565b6001836020036101000a0380198251168184511680821785525050505050509050019150506040516020818303038152906040528051906020012060001c90506002548181610ff457fe5b06915050919050565b600080600160046040518060a0016040528087815260200186815260200160018152602001600354420163ffffffff168152602001600081525090806001815401808255809150509060018203906000526020600020906005020160009091929091909150600082015181600001908051906020019061107e92919061153b565b50602082015181600101556040820151816002015560608201518160030155608082015181600401555050039050336005600083815260200190815260200160002060006101000a81548173ffffffffffffffffffffffffffffffffffffffff021916908373ffffffffffffffffffffffffffffffffffffffff1602179055506111516001600660003373ffffffffffffffffffffffffffffffffffffffff1673ffffffffffffffffffffffffffffffffffffffff16815260200190815260200160002054610ee790919063ffffffff16565b600660003373ffffffffffffffffffffffffffffffffffffffff1673ffffffffffffffffffffffffffffffffffffffff168152602001908152602001600020819055507f5117ea76edf4ff070cb57b55682b9c0135dbbe437d78a71c5b5612a4d9dd25e68185856040518084815260200180602001838152602001828103825284818151815260200191508051906020019080838360005b838110156112045780820151818401526020810190506111e9565b50505050905090810190601f1680156112315780820380516001836020036101000a031916815260200191505b5094505050505060405180910390a18091505092915050565b60606000821415611292576040518060400160405280600181526020017f30000000000000000000000000000000000000000000000000000000000000008152509050611372565b600082905060005b600082146112bc578080600101915050600a82816112b457fe5b04915061129a565b6060816040519080825280601f01601f1916602001820160405280156112f15781602001600182028038833980820191505090505b50905060006001830390505b6000861461136a57600a868161130f57fe5b0660300160f81b8282806001900393508151811061132957fe5b60200101907effffffffffffffffffffffffffffffffffffffffffffffffffffffffffffff1916908160001a905350600a868161136257fe5b0495506112fd565b819450505050505b919050565b600073ffffffffffffffffffffffffffffffffffffffff168173ffffffffffffffffffffffffffffffffffffffff1614156113fd576040517f08c379a000000000000000000000000000000000000000000000000000000000815260040180806020018281038252602681526020018061160a6026913960400191505060405180910390fd5b8073ffffffffffffffffffffffffffffffffffffffff166000809054906101000a900473ffffffffffffffffffffffffffffffffffffffff1673ffffffffffffffffffffffffffffffffffffffff167f8be0079c531659141344cd1fd0a4f28419497f9722a3daafe3b4186f6b6457e060405160405180910390a3806000806101000a81548173ffffffffffffffffffffffffffffffffffffffff021916908373ffffffffffffffffffffffffffffffffffffffff16021790555050565b828054600181600116156101000203166002900490600052602060002090601f016020900481019282601f106114fc57803560ff191683800117855561152a565b8280016001018555821561152a579182015b8281111561152957823582559160200191906001019061150e565b5b50905061153791906115bb565b5090565b828054600181600116156101000203166002900490600052602060002090601f016020900481019282601f1061157c57805160ff19168380011785556115aa565b828001600101855582156115aa579182015b828111156115a957825182559160200191906001019061158e565b5b5090506115b791906115bb565b5090565b6115dd91905b808211156115d95760008160009055506001016115c1565b5090565b9056fe4f2076616c6f72207061676f20707265636973612073657220696775616c20612074617861206465204f776e61626c653a206e6577206f776e657220697320746865207a65726f2061646472657373536f6d656e7465206f20646f6e6f20646f2074617a6f20706f6465207265616c697a617220616c74657261c3a7c3a36f536f6d656e7465206e6f766f7320757375c3a172696f732073656d2074617a6f7320706f64656d20676572617220756d2074617a6fa165627a7a723058202c401a28044359a67ca39f9235864c87ea3589054818ace255851a8a9e03af750029",
  "source": "pragma solidity ^0.5.0;\r\n\r\nimport \"./TazoFuse.sol\";\r\nimport 'openzeppelin-solidity/contracts/ownership/Ownable.sol';\r\n\r\ncontract TazoHelper is TazoFuse {\r\n    uint levelUpFee = 0.0001 ether;\r\n\r\n    modifier aboveLevel(uint _level, uint _tazoId) {\r\n    require(tazos[_tazoId].level >= _level, string(abi.encodePacked(\"O level do tazo precisa ser maior que \", _level)));\r\n    _;\r\n  }\r\n\r\n    function setLevelUpFee(uint _fee) external onlyOwner {\r\n        levelUpFee = _fee;\r\n    }\r\n\r\n    function levelUp(uint _tazoId) external payable {\r\n        require(msg.value == levelUpFee, string(abi.encodePacked(\"O valor pago precisa ser igual a taxa de \", levelUpFee)));\r\n        tazos[_tazoId].level = tazos[_tazoId].level.add(1);\r\n    }\r\n\r\n    function changeName(uint _tazoId, string calldata _newName) external onlyOwnerOf(_tazoId) {\r\n        tazos[_tazoId].name = _newName;\r\n    }\r\n\r\n    function getTazosByOwner(address _owner) external view returns(uint[] memory) {\r\n    uint[] memory result = new uint[](ownerTazoCount[_owner]);\r\n    uint counter = 0;\r\n    for (uint i = 0; i < tazos.length; i++) {\r\n      if (tazoToOwner[i] == _owner) {\r\n        result[counter] = i;\r\n        counter++;\r\n      }\r\n    }\r\n    return result;\r\n  }\r\n\r\n  function _uint2str(uint _i) internal pure returns (string memory _uintAsString) {\r\n    if (_i == 0) {\r\n        return \"0\";\r\n    }\r\n    uint j = _i;\r\n    uint len;\r\n    while (j != 0) {\r\n        len++;\r\n        j /= 10;\r\n    }\r\n    bytes memory bstr = new bytes(len);\r\n    uint k = len - 1;\r\n    while (_i != 0) {\r\n        bstr[k--] = byte(uint8(48 + _i % 10));\r\n        _i /= 10;\r\n    }\r\n    return string(bstr);\r\n  }\r\n\r\n  function getTazos() public view returns(string memory) {\r\n    uint[] memory result = new uint[](tazos.length);\r\n    uint counter = 0;\r\n    for (uint i = 0; i < tazos.length; i++) {\r\n        result[counter] = i;\r\n        counter++;\r\n    }\r\n    return _uint2str(tazos.length);\r\n  }\r\n\r\n}",
  "sourcePath": "D:\\Projects\\Cryptazo\\truffle project\\contracts\\TazoHelper.sol",
  "compiler": {
    "name": "solc",
    "version": "0.5.8+commit.23d335f2.Emscripten.clang"
  },
  "schemaVersion": "3.0.11",
  "updatedAt": "2019-06-26T19:58:30.305Z",
  "devdoc": {
    "methods": {
      "isOwner()": {
        "details": "Returns true if the caller is the current owner.\r"
      },
      "owner()": {
        "details": "Returns the address of the current owner.\r"
      },
      "renounceOwnership()": {
        "details": "Leaves the contract without owner. It will not be possible to call\r `onlyOwner` functions anymore. Can only be called by the current owner.\r      * > Note: Renouncing ownership will leave the contract without an owner,\r thereby removing any functionality that is only available to the owner.\r"
      },
      "transferOwnership(address)": {
        "details": "Transfers ownership of the contract to a new account (`newOwner`).\r Can only be called by the current owner.\r"
      }
    }
  },
  "userdoc": {
    "methods": {}
  }
}