{
  "contractName": "TazoOwnership",
  "abi": [
    {
      "constant": true,
      "inputs": [
        {
          "name": "interfaceId",
          "type": "bytes4"
        }
      ],
      "name": "supportsInterface",
      "outputs": [
        {
          "name": "",
          "type": "bool"
        }
      ],
      "payable": false,
      "stateMutability": "view",
      "type": "function"
    },
    {
      "constant": true,
      "inputs": [
        {
          "name": "tokenId",
          "type": "uint256"
        }
      ],
      "name": "getApproved",
      "outputs": [
        {
          "name": "",
          "type": "address"
        }
      ],
      "payable": false,
      "stateMutability": "view",
      "type": "function"
    },
    {
      "constant": false,
      "inputs": [
        {
          "name": "_tazoId",
          "type": "uint256"
        }
      ],
      "name": "levelUp",
      "outputs": [],
      "payable": true,
      "stateMutability": "payable",
      "type": "function"
    },
    {
      "constant": true,
      "inputs": [
        {
          "name": "_owner",
          "type": "address"
        }
      ],
      "name": "getTazosByOwner",
      "outputs": [
        {
          "name": "",
          "type": "uint256[]"
        }
      ],
      "payable": false,
      "stateMutability": "view",
      "type": "function"
    },
    {
      "constant": false,
      "inputs": [
        {
          "name": "_name",
          "type": "string"
        }
      ],
      "name": "createRandomTazo",
      "outputs": [],
      "payable": false,
      "stateMutability": "nonpayable",
      "type": "function"
    },
    {
      "constant": true,
      "inputs": [
        {
          "name": "",
          "type": "address"
        }
      ],
      "name": "ownerTazoCount",
      "outputs": [
        {
          "name": "",
          "type": "uint256"
        }
      ],
      "payable": false,
      "stateMutability": "view",
      "type": "function"
    },
    {
      "constant": false,
      "inputs": [
        {
          "name": "from",
          "type": "address"
        },
        {
          "name": "to",
          "type": "address"
        },
        {
          "name": "tokenId",
          "type": "uint256"
        }
      ],
      "name": "safeTransferFrom",
      "outputs": [],
      "payable": false,
      "stateMutability": "nonpayable",
      "type": "function"
    },
    {
      "constant": true,
      "inputs": [
        {
          "name": "",
          "type": "uint256"
        }
      ],
      "name": "tazoToOwner",
      "outputs": [
        {
          "name": "",
          "type": "address"
        }
      ],
      "payable": false,
      "stateMutability": "view",
      "type": "function"
    },
    {
      "constant": true,
      "inputs": [
        {
          "name": "",
          "type": "uint256"
        }
      ],
      "name": "tazos",
      "outputs": [
        {
          "name": "name",
          "type": "string"
        },
        {
          "name": "dna",
          "type": "uint256"
        },
        {
          "name": "level",
          "type": "uint256"
        },
        {
          "name": "cooldown",
          "type": "uint256"
        },
        {
          "name": "winCount",
          "type": "uint256"
        }
      ],
      "payable": false,
      "stateMutability": "view",
      "type": "function"
    },
    {
      "constant": false,
      "inputs": [],
      "name": "renounceOwnership",
      "outputs": [],
      "payable": false,
      "stateMutability": "nonpayable",
      "type": "function"
    },
    {
      "constant": true,
      "inputs": [],
      "name": "owner",
      "outputs": [
        {
          "name": "",
          "type": "address"
        }
      ],
      "payable": false,
      "stateMutability": "view",
      "type": "function"
    },
    {
      "constant": true,
      "inputs": [],
      "name": "isOwner",
      "outputs": [
        {
          "name": "",
          "type": "bool"
        }
      ],
      "payable": false,
      "stateMutability": "view",
      "type": "function"
    },
    {
      "constant": false,
      "inputs": [
        {
          "name": "to",
          "type": "address"
        },
        {
          "name": "approved",
          "type": "bool"
        }
      ],
      "name": "setApprovalForAll",
      "outputs": [],
      "payable": false,
      "stateMutability": "nonpayable",
      "type": "function"
    },
    {
      "constant": false,
      "inputs": [
        {
          "name": "from",
          "type": "address"
        },
        {
          "name": "to",
          "type": "address"
        },
        {
          "name": "tokenId",
          "type": "uint256"
        },
        {
          "name": "_data",
          "type": "bytes"
        }
      ],
      "name": "safeTransferFrom",
      "outputs": [],
      "payable": false,
      "stateMutability": "nonpayable",
      "type": "function"
    },
    {
      "constant": false,
      "inputs": [
        {
          "name": "_tazoId",
          "type": "uint256"
        },
        {
          "name": "_newName",
          "type": "string"
        }
      ],
      "name": "changeName",
      "outputs": [],
      "payable": false,
      "stateMutability": "nonpayable",
      "type": "function"
    },
    {
      "constant": false,
      "inputs": [
        {
          "name": "_fee",
          "type": "uint256"
        }
      ],
      "name": "setLevelUpFee",
      "outputs": [],
      "payable": false,
      "stateMutability": "nonpayable",
      "type": "function"
    },
    {
      "constant": false,
      "inputs": [
        {
          "name": "_tazoId",
          "type": "uint256"
        },
        {
          "name": "_targetId",
          "type": "uint256"
        }
      ],
      "name": "attack",
      "outputs": [],
      "payable": false,
      "stateMutability": "nonpayable",
      "type": "function"
    },
    {
      "constant": true,
      "inputs": [
        {
          "name": "_tazoId",
          "type": "uint256"
        }
      ],
      "name": "getTazoPower",
      "outputs": [
        {
          "name": "",
          "type": "uint256"
        }
      ],
      "payable": false,
      "stateMutability": "view",
      "type": "function"
    },
    {
      "constant": true,
      "inputs": [
        {
          "name": "owner",
          "type": "address"
        },
        {
          "name": "operator",
          "type": "address"
        }
      ],
      "name": "isApprovedForAll",
      "outputs": [
        {
          "name": "",
          "type": "bool"
        }
      ],
      "payable": false,
      "stateMutability": "view",
      "type": "function"
    },
    {
      "constant": false,
      "inputs": [
        {
          "name": "newOwner",
          "type": "address"
        }
      ],
      "name": "transferOwnership",
      "outputs": [],
      "payable": false,
      "stateMutability": "nonpayable",
      "type": "function"
    },
    {
      "anonymous": false,
      "inputs": [
        {
          "indexed": true,
          "name": "from",
          "type": "address"
        },
        {
          "indexed": true,
          "name": "to",
          "type": "address"
        },
        {
          "indexed": true,
          "name": "tokenId",
          "type": "uint256"
        }
      ],
      "name": "Transfer",
      "type": "event"
    },
    {
      "anonymous": false,
      "inputs": [
        {
          "indexed": true,
          "name": "owner",
          "type": "address"
        },
        {
          "indexed": true,
          "name": "approved",
          "type": "address"
        },
        {
          "indexed": true,
          "name": "tokenId",
          "type": "uint256"
        }
      ],
      "name": "Approval",
      "type": "event"
    },
    {
      "anonymous": false,
      "inputs": [
        {
          "indexed": true,
          "name": "owner",
          "type": "address"
        },
        {
          "indexed": true,
          "name": "operator",
          "type": "address"
        },
        {
          "indexed": false,
          "name": "approved",
          "type": "bool"
        }
      ],
      "name": "ApprovalForAll",
      "type": "event"
    },
    {
      "anonymous": false,
      "inputs": [
        {
          "indexed": false,
          "name": "tazoId",
          "type": "uint256"
        },
        {
          "indexed": false,
          "name": "name",
          "type": "string"
        },
        {
          "indexed": false,
          "name": "dna",
          "type": "uint256"
        }
      ],
      "name": "NewTazo",
      "type": "event"
    },
    {
      "anonymous": false,
      "inputs": [
        {
          "indexed": true,
          "name": "previousOwner",
          "type": "address"
        },
        {
          "indexed": true,
          "name": "newOwner",
          "type": "address"
        }
      ],
      "name": "OwnershipTransferred",
      "type": "event"
    },
    {
      "constant": true,
      "inputs": [
        {
          "name": "_owner",
          "type": "address"
        }
      ],
      "name": "balanceOf",
      "outputs": [
        {
          "name": "",
          "type": "uint256"
        }
      ],
      "payable": false,
      "stateMutability": "view",
      "type": "function"
    },
    {
      "constant": true,
      "inputs": [
        {
          "name": "_tokenId",
          "type": "uint256"
        }
      ],
      "name": "ownerOf",
      "outputs": [
        {
          "name": "",
          "type": "address"
        }
      ],
      "payable": false,
      "stateMutability": "view",
      "type": "function"
    },
    {
      "constant": false,
      "inputs": [
        {
          "name": "_from",
          "type": "address"
        },
        {
          "name": "_to",
          "type": "address"
        },
        {
          "name": "_tokenId",
          "type": "uint256"
        }
      ],
      "name": "transferFrom",
      "outputs": [],
      "payable": false,
      "stateMutability": "nonpayable",
      "type": "function"
    },
    {
      "constant": false,
      "inputs": [
        {
          "name": "_approved",
          "type": "address"
        },
        {
          "name": "_tokenId",
          "type": "uint256"
        }
      ],
      "name": "approve",
      "outputs": [],
      "payable": false,
      "stateMutability": "nonpayable",
      "type": "function"
    }
  ],
  "bytecode": "0x60806040526010600155600154600a0a60025562015180600355655af3107a40006007556000600855336000806101000a81548173ffffffffffffffffffffffffffffffffffffffff021916908373ffffffffffffffffffffffffffffffffffffffff1602179055506000809054906101000a900473ffffffffffffffffffffffffffffffffffffffff1673ffffffffffffffffffffffffffffffffffffffff16600073ffffffffffffffffffffffffffffffffffffffff167f8be0079c531659141344cd1fd0a4f28419497f9722a3daafe3b4186f6b6457e060405160405180910390a3620000fc6301ffc9a760e01b6200011a60201b60201c565b620001146380ac58cd60e01b6200011a60201b60201c565b62000224565b63ffffffff60e01b817bffffffffffffffffffffffffffffffffffffffffffffffffffffffff19161415620001b7576040517f08c379a000000000000000000000000000000000000000000000000000000000815260040180806020018281038252601c8152602001807f4552433136353a20696e76616c696420696e746572666163652069640000000081525060200191505060405180910390fd5b600160096000837bffffffffffffffffffffffffffffffffffffffffffffffffffffffff19167bffffffffffffffffffffffffffffffffffffffffffffffffffffffff1916815260200190815260200160002060006101000a81548160ff02191690831515021790555050565b612b4680620002346000396000f3fe60806040526004361061014b5760003560e01c806370a08231116100b6578063c39cbef11161006f578063c39cbef1146109c6578063ccf670f814610a56578063e1fa763814610a91578063e7927ab114610ad6578063e985e9c514610b25578063f2fde38b14610bae5761014b565b806370a0823114610755578063715018a6146107ba5780638da5cb5b146107d15780638f32d59b14610828578063a22cb46514610857578063b88d4fde146108b45761014b565b8063278892d511610108578063278892d5146103e75780632cafebb7146104af57806342842e0e146105145780635a800dbd1461058f5780636352211e1461060a578063697c3e5f146106855761014b565b806301ffc9a714610150578063081812fc146101c2578063095ea7b31461023d5780630ce90ec21461029857806323b872dd146102c657806326ff8bcc14610341575b600080fd5b34801561015c57600080fd5b506101a86004803603602081101561017357600080fd5b8101908080357bffffffffffffffffffffffffffffffffffffffffffffffffffffffff19169060200190929190505050610bff565b604051808215151515815260200191505060405180910390f35b3480156101ce57600080fd5b506101fb600480360360208110156101e557600080fd5b8101908080359060200190929190505050610c67565b604051808273ffffffffffffffffffffffffffffffffffffffff1673ffffffffffffffffffffffffffffffffffffffff16815260200191505060405180910390f35b34801561024957600080fd5b506102966004803603604081101561026057600080fd5b81019080803573ffffffffffffffffffffffffffffffffffffffff16906020019092919080359060200190929190505050610d02565b005b6102c4600480360360208110156102ae57600080fd5b8101908080359060200190929190505050610e6c565b005b3480156102d257600080fd5b5061033f600480360360608110156102e957600080fd5b81019080803573ffffffffffffffffffffffffffffffffffffffff169060200190929190803573ffffffffffffffffffffffffffffffffffffffff16906020019092919080359060200190929190505050610f9c565b005b34801561034d57600080fd5b506103906004803603602081101561036457600080fd5b81019080803573ffffffffffffffffffffffffffffffffffffffff1690602001909291905050506110cc565b6040518080602001828103825283818151815260200191508051906020019060200280838360005b838110156103d35780820151818401526020810190506103b8565b505050509050019250505060405180910390f35b3480156103f357600080fd5b506104ad6004803603602081101561040a57600080fd5b810190808035906020019064010000000081111561042757600080fd5b82018360208201111561043957600080fd5b8035906020019184600183028401116401000000008311171561045b57600080fd5b91908080601f016020809104026020016040519081016040528093929190818152602001838380828437600081840152601f19601f8201169050808301925050505050505091929192905050506111f9565b005b3480156104bb57600080fd5b506104fe600480360360208110156104d257600080fd5b81019080803573ffffffffffffffffffffffffffffffffffffffff1690602001909291905050506112bc565b6040518082815260200191505060405180910390f35b34801561052057600080fd5b5061058d6004803603606081101561053757600080fd5b81019080803573ffffffffffffffffffffffffffffffffffffffff169060200190929190803573ffffffffffffffffffffffffffffffffffffffff169060200190929190803590602001909291905050506112d4565b005b34801561059b57600080fd5b506105c8600480360360208110156105b257600080fd5b81019080803590602001909291905050506112f4565b604051808273ffffffffffffffffffffffffffffffffffffffff1673ffffffffffffffffffffffffffffffffffffffff16815260200191505060405180910390f35b34801561061657600080fd5b506106436004803603602081101561062d57600080fd5b8101908080359060200190929190505050611327565b604051808273ffffffffffffffffffffffffffffffffffffffff1673ffffffffffffffffffffffffffffffffffffffff16815260200191505060405180910390f35b34801561069157600080fd5b506106be600480360360208110156106a857600080fd5b8101908080359060200190929190505050611364565b6040518080602001868152602001858152602001848152602001838152602001828103825287818151815260200191508051906020019080838360005b838110156107165780820151818401526020810190506106fb565b50505050905090810190601f1680156107435780820380516001836020036101000a031916815260200191505b50965050505050505060405180910390f35b34801561076157600080fd5b506107a46004803603602081101561077857600080fd5b81019080803573ffffffffffffffffffffffffffffffffffffffff16906020019092919050505061143f565b6040518082815260200191505060405180910390f35b3480156107c657600080fd5b506107cf611488565b005b3480156107dd57600080fd5b506107e66115c1565b604051808273ffffffffffffffffffffffffffffffffffffffff1673ffffffffffffffffffffffffffffffffffffffff16815260200191505060405180910390f35b34801561083457600080fd5b5061083d6115ea565b604051808215151515815260200191505060405180910390f35b34801561086357600080fd5b506108b26004803603604081101561087a57600080fd5b81019080803573ffffffffffffffffffffffffffffffffffffffff169060200190929190803515159060200190929190505050611641565b005b3480156108c057600080fd5b506109c4600480360360808110156108d757600080fd5b81019080803573ffffffffffffffffffffffffffffffffffffffff169060200190929190803573ffffffffffffffffffffffffffffffffffffffff169060200190929190803590602001909291908035906020019064010000000081111561093e57600080fd5b82018360208201111561095057600080fd5b8035906020019184600183028401116401000000008311171561097257600080fd5b91908080601f016020809104026020016040519081016040528093929190818152602001838380828437600081840152601f19601f8201169050808301925050505050505091929192905050506117e4565b005b3480156109d257600080fd5b50610a54600480360360408110156109e957600080fd5b810190808035906020019092919080359060200190640100000000811115610a1057600080fd5b820183602082011115610a2257600080fd5b80359060200191846001830284011164010000000083111715610a4457600080fd5b9091929391929390505050611856565b005b348015610a6257600080fd5b50610a8f60048036036020811015610a7957600080fd5b8101908080359060200190929190505050611942565b005b348015610a9d57600080fd5b50610ad460048036036040811015610ab457600080fd5b8101908080359060200190929190803590602001909291905050506119c6565b005b348015610ae257600080fd5b50610b0f60048036036020811015610af957600080fd5b8101908080359060200190929190505050611ce8565b6040518082815260200191505060405180910390f35b348015610b3157600080fd5b50610b9460048036036040811015610b4857600080fd5b81019080803573ffffffffffffffffffffffffffffffffffffffff169060200190929190803573ffffffffffffffffffffffffffffffffffffffff169060200190929190505050611d53565b604051808215151515815260200191505060405180910390f35b348015610bba57600080fd5b50610bfd60048036036020811015610bd157600080fd5b81019080803573ffffffffffffffffffffffffffffffffffffffff169060200190929190505050611de7565b005b600060096000837bffffffffffffffffffffffffffffffffffffffffffffffffffffffff19167bffffffffffffffffffffffffffffffffffffffffffffffffffffffff1916815260200190815260200160002060009054906101000a900460ff169050919050565b6000610c7282611e6d565b610cc7576040517f08c379a000000000000000000000000000000000000000000000000000000000815260040180806020018281038252602c815260200180612a9e602c913960400191505060405180910390fd5b600b600083815260200190815260200160002060009054906101000a900473ffffffffffffffffffffffffffffffffffffffff169050919050565b806005600082815260200190815260200160002060009054906101000a900473ffffffffffffffffffffffffffffffffffffffff1673ffffffffffffffffffffffffffffffffffffffff163373ffffffffffffffffffffffffffffffffffffffff1614610dba576040517f08c379a0000000000000000000000000000000000000000000000000000000008152600401808060200182810382526030815260200180612a396030913960400191505060405180910390fd5b82600e600084815260200190815260200160002060006101000a81548173ffffffffffffffffffffffffffffffffffffffff021916908373ffffffffffffffffffffffffffffffffffffffff160217905550818373ffffffffffffffffffffffffffffffffffffffff163373ffffffffffffffffffffffffffffffffffffffff167f8c5be1e5ebec7d5bd14f71427d1e84f3dd0314c0f7b2291e5b200ac8c7c3b92560405160405180910390a4505050565b600754341460075460405160200180806129b86029913960290182815260200191505060405160208183030381529060405290610f44576040517f08c379a00000000000000000000000000000000000000000000000000000000081526004018080602001828103825283818151815260200191508051906020019080838360005b83811015610f09578082015181840152602081019050610eee565b50505050905090810190601f168015610f365780820380516001836020036101000a031916815260200191505b509250505060405180910390fd5b50610f77600160048381548110610f5757fe5b906000526020600020906005020160020154611edf90919063ffffffff16565b60048281548110610f8457fe5b90600052602060002090600502016002018190555050565b3373ffffffffffffffffffffffffffffffffffffffff166005600083815260200190815260200160002060009054906101000a900473ffffffffffffffffffffffffffffffffffffffff1673ffffffffffffffffffffffffffffffffffffffff16148061106757503373ffffffffffffffffffffffffffffffffffffffff16600e600083815260200190815260200160002060009054906101000a900473ffffffffffffffffffffffffffffffffffffffff1673ffffffffffffffffffffffffffffffffffffffff16145b6110bc576040517f08c379a0000000000000000000000000000000000000000000000000000000008152600401808060200182810382526051815260200180612aca6051913960600191505060405180910390fd5b6110c7838383611f67565b505050565b606080600660008473ffffffffffffffffffffffffffffffffffffffff1673ffffffffffffffffffffffffffffffffffffffff1681526020019081526020016000205460405190808252806020026020018201604052801561113d5781602001602082028038833980820191505090505b509050600080905060008090505b6004805490508110156111ee578473ffffffffffffffffffffffffffffffffffffffff166005600083815260200190815260200160002060009054906101000a900473ffffffffffffffffffffffffffffffffffffffff1673ffffffffffffffffffffffffffffffffffffffff1614156111e157808383815181106111cc57fe5b60200260200101818152505081806001019250505b808060010191505061114b565b508192505050919050565b6000600660003373ffffffffffffffffffffffffffffffffffffffff1673ffffffffffffffffffffffffffffffffffffffff1681526020019081526020016000205414611291576040517f08c379a0000000000000000000000000000000000000000000000000000000008152600401808060200182810382526035815260200180612a696035913960400191505060405180910390fd5b600061129c82612145565b9050606481816112a857fe5b06810390506112b782826121d3565b505050565b60066020528060005260406000206000915090505481565b6112ef838383604051806020016040528060008152506117e4565b505050565b60056020528060005260406000206000915054906101000a900473ffffffffffffffffffffffffffffffffffffffff1681565b60006005600083815260200190815260200160002060009054906101000a900473ffffffffffffffffffffffffffffffffffffffff169050919050565b6004818154811061137157fe5b9060005260206000209060050201600091509050806000018054600181600116156101000203166002900480601f01602080910402602001604051908101604052809291908181526020018280546001816001161561010002031660029004801561141d5780601f106113f25761010080835404028352916020019161141d565b820191906000526020600020905b81548152906001019060200180831161140057829003601f168201915b5050505050908060010154908060020154908060030154908060040154905085565b6000600660008373ffffffffffffffffffffffffffffffffffffffff1673ffffffffffffffffffffffffffffffffffffffff168152602001908152602001600020549050919050565b6114906115ea565b611502576040517f08c379a00000000000000000000000000000000000000000000000000000000081526004018080602001828103825260208152602001807f4f776e61626c653a2063616c6c6572206973206e6f7420746865206f776e657281525060200191505060405180910390fd5b600073ffffffffffffffffffffffffffffffffffffffff166000809054906101000a900473ffffffffffffffffffffffffffffffffffffffff1673ffffffffffffffffffffffffffffffffffffffff167f8be0079c531659141344cd1fd0a4f28419497f9722a3daafe3b4186f6b6457e060405160405180910390a360008060006101000a81548173ffffffffffffffffffffffffffffffffffffffff021916908373ffffffffffffffffffffffffffffffffffffffff160217905550565b60008060009054906101000a900473ffffffffffffffffffffffffffffffffffffffff16905090565b60008060009054906101000a900473ffffffffffffffffffffffffffffffffffffffff1673ffffffffffffffffffffffffffffffffffffffff163373ffffffffffffffffffffffffffffffffffffffff1614905090565b3373ffffffffffffffffffffffffffffffffffffffff168273ffffffffffffffffffffffffffffffffffffffff1614156116e3576040517f08c379a00000000000000000000000000000000000000000000000000000000081526004018080602001828103825260198152602001807f4552433732313a20617070726f766520746f2063616c6c65720000000000000081525060200191505060405180910390fd5b80600d60003373ffffffffffffffffffffffffffffffffffffffff1673ffffffffffffffffffffffffffffffffffffffff16815260200190815260200160002060008473ffffffffffffffffffffffffffffffffffffffff1673ffffffffffffffffffffffffffffffffffffffff16815260200190815260200160002060006101000a81548160ff0219169083151502179055508173ffffffffffffffffffffffffffffffffffffffff163373ffffffffffffffffffffffffffffffffffffffff167f17307eab39ab6107e8899845ad3d59bd9653f200f220920489ca2b5937696c3183604051808215151515815260200191505060405180910390a35050565b6117ef848484610f9c565b6117fb84848484612420565b611850576040517f08c379a00000000000000000000000000000000000000000000000000000000081526004018080602001828103825260328152602001806129e16032913960400191505060405180910390fd5b50505050565b826005600082815260200190815260200160002060009054906101000a900473ffffffffffffffffffffffffffffffffffffffff1673ffffffffffffffffffffffffffffffffffffffff163373ffffffffffffffffffffffffffffffffffffffff161461190e576040517f08c379a0000000000000000000000000000000000000000000000000000000008152600401808060200182810382526030815260200180612a396030913960400191505060405180910390fd5b82826004868154811061191d57fe5b9060005260206000209060050201600001919061193b929190612892565b5050505050565b61194a6115ea565b6119bc576040517f08c379a00000000000000000000000000000000000000000000000000000000081526004018080602001828103825260208152602001807f4f776e61626c653a2063616c6c6572206973206e6f7420746865206f776e657281525060200191505060405180910390fd5b8060078190555050565b816005600082815260200190815260200160002060009054906101000a900473ffffffffffffffffffffffffffffffffffffffff1673ffffffffffffffffffffffffffffffffffffffff163373ffffffffffffffffffffffffffffffffffffffff1614611a7e576040517f08c379a0000000000000000000000000000000000000000000000000000000008152600401808060200182810382526030815260200180612a396030913960400191505060405180910390fd5b600060048481548110611a8d57fe5b90600052602060002090600502019050600060048481548110611aac57fe5b906000526020600020906005020190506000611ac86064612609565b90506000806000846002015486600201540390507ffffffffffffffffffffffffffffffffffffffffffffffffffffffffffffffff88111611b105760079250600c9150611c48565b7ffffffffffffffffffffffffffffffffffffffffffffffffffffffffffffffffb8111158015611b5f57507ffffffffffffffffffffffffffffffffffffffffffffffffffffffffffffffff881115b15611b7157600e925060099150611c47565b600081108015611ba057507ffffffffffffffffffffffffffffffffffffffffffffffffffffffffffffffffb81115b15611bb2576014925060079150611c46565b806000108015611bc25750600581105b15611bd457603c925060049150611c45565b80600511158015611be55750600881105b15611bf7576046925060039150611c44565b80600811158015611c085750600a81105b15611c1a576050925060029150611c43565b600a8110611c2f576055925060019150611c42565b6000811415611c415760329250600491505b5b5b5b5b5b5b5b828411611c9357611c6760018760040154611edf90919063ffffffff16565b8660040181905550611c86828760020154611edf90919063ffffffff16565b8660020181905550611cd4565b611cab60018660040154611edf90919063ffffffff16565b8560040181905550611ccb60018660020154611edf90919063ffffffff16565b85600201819055505b611cdd866126a2565b505050505050505050565b60008060048381548110611cf857fe5b906000526020600020906005020160010154905060006127108281611d1957fe5b06905060048481548110611d2957fe5b906000526020600020906005020160020154600160058381611d4757fe5b06010292505050919050565b6000600d60008473ffffffffffffffffffffffffffffffffffffffff1673ffffffffffffffffffffffffffffffffffffffff16815260200190815260200160002060008373ffffffffffffffffffffffffffffffffffffffff1673ffffffffffffffffffffffffffffffffffffffff16815260200190815260200160002060009054906101000a900460ff16905092915050565b611def6115ea565b611e61576040517f08c379a00000000000000000000000000000000000000000000000000000000081526004018080602001828103825260208152602001807f4f776e61626c653a2063616c6c6572206973206e6f7420746865206f776e657281525060200191505060405180910390fd5b611e6a816126b2565b50565b600080600a600084815260200190815260200160002060009054906101000a900473ffffffffffffffffffffffffffffffffffffffff169050600073ffffffffffffffffffffffffffffffffffffffff168173ffffffffffffffffffffffffffffffffffffffff161415915050919050565b600080828401905083811015611f5d576040517f08c379a000000000000000000000000000000000000000000000000000000000815260040180806020018281038252601b8152602001807f536166654d6174683a206164646974696f6e206f766572666c6f77000000000081525060200191505060405180910390fd5b8091505092915050565b611fba6001600660008573ffffffffffffffffffffffffffffffffffffffff1673ffffffffffffffffffffffffffffffffffffffff16815260200190815260200160002054611edf90919063ffffffff16565b600660008473ffffffffffffffffffffffffffffffffffffffff1673ffffffffffffffffffffffffffffffffffffffff168152602001908152602001600020819055506120506001600660003373ffffffffffffffffffffffffffffffffffffffff1673ffffffffffffffffffffffffffffffffffffffff168152602001908152602001600020546127f690919063ffffffff16565b600660003373ffffffffffffffffffffffffffffffffffffffff1673ffffffffffffffffffffffffffffffffffffffff16815260200190815260200160002081905550816005600083815260200190815260200160002060006101000a81548173ffffffffffffffffffffffffffffffffffffffff021916908373ffffffffffffffffffffffffffffffffffffffff160217905550808273ffffffffffffffffffffffffffffffffffffffff168473ffffffffffffffffffffffffffffffffffffffff167fddf252ad1be2c89b69c2b068fc378daa952ba7f163c4a11628f55a4df523b3ef60405160405180910390a4505050565b600080826040516020018082805190602001908083835b6020831061217f578051825260208201915060208101905060208303925061215c565b6001836020036101000a0380198251168184511680821785525050505050509050019150506040516020818303038152906040528051906020012060001c905060025481816121ca57fe5b06915050919050565b600080600160046040518060a0016040528087815260200186815260200160018152602001600354420163ffffffff1681526020016000815250908060018154018082558091505090600182039060005260206000209060050201600090919290919091506000820151816000019080519060200190612254929190612912565b50602082015181600101556040820151816002015560608201518160030155608082015181600401555050039050336005600083815260200190815260200160002060006101000a81548173ffffffffffffffffffffffffffffffffffffffff021916908373ffffffffffffffffffffffffffffffffffffffff1602179055506123276001600660003373ffffffffffffffffffffffffffffffffffffffff1673ffffffffffffffffffffffffffffffffffffffff16815260200190815260200160002054611edf90919063ffffffff16565b600660003373ffffffffffffffffffffffffffffffffffffffff1673ffffffffffffffffffffffffffffffffffffffff168152602001908152602001600020819055507f5117ea76edf4ff070cb57b55682b9c0135dbbe437d78a71c5b5612a4d9dd25e68185856040518084815260200180602001838152602001828103825284818151815260200191508051906020019080838360005b838110156123da5780820151818401526020810190506123bf565b50505050905090810190601f1680156124075780820380516001836020036101000a031916815260200191505b5094505050505060405180910390a18091505092915050565b60006124418473ffffffffffffffffffffffffffffffffffffffff1661287f565b61244e5760019050612601565b60008473ffffffffffffffffffffffffffffffffffffffff1663150b7a02338887876040518563ffffffff1660e01b8152600401808573ffffffffffffffffffffffffffffffffffffffff1673ffffffffffffffffffffffffffffffffffffffff1681526020018473ffffffffffffffffffffffffffffffffffffffff1673ffffffffffffffffffffffffffffffffffffffff16815260200183815260200180602001828103825283818151815260200191508051906020019080838360005b8381101561252957808201518184015260208101905061250e565b50505050905090810190601f1680156125565780820380516001836020036101000a031916815260200191505b5095505050505050602060405180830381600087803b15801561257857600080fd5b505af115801561258c573d6000803e3d6000fd5b505050506040513d60208110156125a257600080fd5b8101908080519060200190929190505050905063150b7a0260e01b7bffffffffffffffffffffffffffffffffffffffffffffffffffffffff1916817bffffffffffffffffffffffffffffffffffffffffffffffffffffffff1916149150505b949350505050565b60006126216001600854611edf90919063ffffffff16565b600881905550814233600854604051602001808481526020018373ffffffffffffffffffffffffffffffffffffffff1673ffffffffffffffffffffffffffffffffffffffff1660601b815260140182815260200193505050506040516020818303038152906040528051906020012060001c8161269a57fe5b069050919050565b6003544201816003018190555050565b600073ffffffffffffffffffffffffffffffffffffffff168173ffffffffffffffffffffffffffffffffffffffff161415612738576040517f08c379a0000000000000000000000000000000000000000000000000000000008152600401808060200182810382526026815260200180612a136026913960400191505060405180910390fd5b8073ffffffffffffffffffffffffffffffffffffffff166000809054906101000a900473ffffffffffffffffffffffffffffffffffffffff1673ffffffffffffffffffffffffffffffffffffffff167f8be0079c531659141344cd1fd0a4f28419497f9722a3daafe3b4186f6b6457e060405160405180910390a3806000806101000a81548173ffffffffffffffffffffffffffffffffffffffff021916908373ffffffffffffffffffffffffffffffffffffffff16021790555050565b60008282111561286e576040517f08c379a000000000000000000000000000000000000000000000000000000000815260040180806020018281038252601e8152602001807f536166654d6174683a207375627472616374696f6e206f766572666c6f77000081525060200191505060405180910390fd5b600082840390508091505092915050565b600080823b905060008111915050919050565b828054600181600116156101000203166002900490600052602060002090601f016020900481019282601f106128d357803560ff1916838001178555612901565b82800160010185558215612901579182015b828111156129005782358255916020019190600101906128e5565b5b50905061290e9190612992565b5090565b828054600181600116156101000203166002900490600052602060002090601f016020900481019282601f1061295357805160ff1916838001178555612981565b82800160010185558215612981579182015b82811115612980578251825591602001919060010190612965565b5b50905061298e9190612992565b5090565b6129b491905b808211156129b0576000816000905550600101612998565b5090565b9056fe4f2076616c6f72207061676f20707265636973612073657220696775616c20612074617861206465204552433732313a207472616e7366657220746f206e6f6e20455243373231526563656976657220696d706c656d656e7465724f776e61626c653a206e6577206f776e657220697320746865207a65726f2061646472657373536f6d656e7465206f20646f6e6f20646f2074617a6f20706f6465207265616c697a617220616c74657261c3a7c3a36f536f6d656e7465206e6f766f7320757375c3a172696f732073656d2074617a6f7320706f64656d20676572617220756d2074617a6f4552433732313a20617070726f76656420717565727920666f72206e6f6e6578697374656e7420746f6b656e557375c3a172696f20656e7669616e646f206f2074617a6f207072656369736172206f20646f6e6f20646f206d65736d6f206f75206f207265636570746f7220746572207369646f206170726f7661646fa165627a7a7230582027624533b7ab47c32dc2f749b0c17fc9393bbadc411613d18139a0933cc83a840029",
  "source": "pragma solidity ^0.5.0;\r\n\r\nimport \"./TazoBattle.sol\";\r\nimport 'openzeppelin-solidity/contracts/token/ERC721/ERC721.sol';\r\nimport 'openzeppelin-solidity/contracts/math/SafeMath.sol';\r\n\r\ncontract TazoOwnership is TazoBattle, ERC721 {\r\n\r\n    using SafeMath for uint256;\r\n\r\n    mapping (uint => address) tazoApprovals;\r\n\r\n    function balanceOf(address _owner) public view returns (uint256) {\r\n        return ownerTazoCount[_owner];\r\n    }\r\n\r\n    function ownerOf(uint256 _tokenId) public view returns (address) {\r\n        return tazoToOwner[_tokenId];\r\n    }\r\n\r\n    function _transfer(address _from, address _to, uint256 _tokenId) private {\r\n        ownerTazoCount[_to] = ownerTazoCount[_to].add(1);\r\n        ownerTazoCount[msg.sender] = ownerTazoCount[msg.sender].sub(1);\r\n        tazoToOwner[_tokenId] = _to;\r\n        emit Transfer(_from, _to, _tokenId);\r\n    }\r\n\r\n    function transferFrom(address _from, address _to, uint256 _tokenId) public {\r\n        require (tazoToOwner[_tokenId] == msg.sender || tazoApprovals[_tokenId] == msg.sender,\r\n        \"Usurio enviando o tazo precisar o dono do mesmo ou o receptor ter sido aprovado\");\r\n        _transfer(_from, _to, _tokenId);\r\n    }\r\n\r\n    function approve(address _approved, uint256 _tokenId) public onlyOwnerOf(_tokenId) {\r\n        tazoApprovals[_tokenId] = _approved;\r\n        emit Approval(msg.sender, _approved, _tokenId);\r\n  }\r\n\r\n}",
  "sourcePath": "D:/Projects/Projeto SD/Cryptazo/truffle project/contracts/TazoOwnership.sol",
  "compiler": {
    "name": "solc",
    "version": "0.5.8+commit.23d335f2.Emscripten.clang"
  },
  "schemaVersion": "3.0.11",
  "updatedAt": "2019-06-26T13:34:48.381Z",
  "devdoc": {
    "methods": {
      "getApproved(uint256)": {
        "details": "Gets the approved address for a token ID, or zero if no address set Reverts if the token ID does not exist.",
        "params": {
          "tokenId": "uint256 ID of the token to query the approval of"
        },
        "return": "address currently approved for the given token ID"
      },
      "isApprovedForAll(address,address)": {
        "details": "Tells whether an operator is approved by a given owner.",
        "params": {
          "operator": "operator address which you want to query the approval of",
          "owner": "owner address which you want to query the approval of"
        },
        "return": "bool whether the given operator is approved by the given owner"
      },
      "isOwner()": {
        "details": "Returns true if the caller is the current owner."
      },
      "owner()": {
        "details": "Returns the address of the current owner."
      },
      "renounceOwnership()": {
        "details": "Leaves the contract without owner. It will not be possible to call `onlyOwner` functions anymore. Can only be called by the current owner.     * > Note: Renouncing ownership will leave the contract without an owner, thereby removing any functionality that is only available to the owner."
      },
      "safeTransferFrom(address,address,uint256)": {
        "details": "Safely transfers the ownership of a given token ID to another address If the target address is a contract, it must implement `onERC721Received`, which is called upon a safe transfer, and return the magic value `bytes4(keccak256(\"onERC721Received(address,address,uint256,bytes)\"))`; otherwise, the transfer is reverted. Requires the msg.sender to be the owner, approved, or operator",
        "params": {
          "from": "current owner of the token",
          "to": "address to receive the ownership of the given token ID",
          "tokenId": "uint256 ID of the token to be transferred"
        }
      },
      "safeTransferFrom(address,address,uint256,bytes)": {
        "details": "Safely transfers the ownership of a given token ID to another address If the target address is a contract, it must implement `onERC721Received`, which is called upon a safe transfer, and return the magic value `bytes4(keccak256(\"onERC721Received(address,address,uint256,bytes)\"))`; otherwise, the transfer is reverted. Requires the msg.sender to be the owner, approved, or operator",
        "params": {
          "_data": "bytes data to send along with a safe transfer check",
          "from": "current owner of the token",
          "to": "address to receive the ownership of the given token ID",
          "tokenId": "uint256 ID of the token to be transferred"
        }
      },
      "setApprovalForAll(address,bool)": {
        "details": "Sets or unsets the approval of a given operator An operator is allowed to transfer all tokens of the sender on their behalf.",
        "params": {
          "approved": "representing the status of the approval to be set",
          "to": "operator address to set the approval"
        }
      },
      "supportsInterface(bytes4)": {
        "details": "See `IERC165.supportsInterface`.     * Time complexity O(1), guaranteed to always use less than 30 000 gas."
      },
      "transferOwnership(address)": {
        "details": "Transfers ownership of the contract to a new account (`newOwner`). Can only be called by the current owner."
      }
    }
  },
  "userdoc": {
    "methods": {}
  }
}