{
  "contractName": "TazoHelper",
  "abi": [
    {
      "constant": false,
      "inputs": [
        {
          "name": "_name",
          "type": "string"
        }
      ],
      "name": "createRandomTazo",
      "outputs": [],
      "payable": false,
      "stateMutability": "nonpayable",
      "type": "function"
    },
    {
      "constant": true,
      "inputs": [
        {
          "name": "",
          "type": "address"
        }
      ],
      "name": "ownerTazoCount",
      "outputs": [
        {
          "name": "",
          "type": "uint256"
        }
      ],
      "payable": false,
      "stateMutability": "view",
      "type": "function"
    },
    {
      "constant": true,
      "inputs": [
        {
          "name": "",
          "type": "uint256"
        }
      ],
      "name": "tazoToOwner",
      "outputs": [
        {
          "name": "",
          "type": "address"
        }
      ],
      "payable": false,
      "stateMutability": "view",
      "type": "function"
    },
    {
      "constant": true,
      "inputs": [
        {
          "name": "",
          "type": "uint256"
        }
      ],
      "name": "tazos",
      "outputs": [
        {
          "name": "name",
          "type": "string"
        },
        {
          "name": "dna",
          "type": "uint256"
        },
        {
          "name": "level",
          "type": "uint256"
        },
        {
          "name": "cooldown",
          "type": "uint256"
        },
        {
          "name": "winCount",
          "type": "uint256"
        }
      ],
      "payable": false,
      "stateMutability": "view",
      "type": "function"
    },
    {
      "constant": false,
      "inputs": [],
      "name": "renounceOwnership",
      "outputs": [],
      "payable": false,
      "stateMutability": "nonpayable",
      "type": "function"
    },
    {
      "constant": true,
      "inputs": [],
      "name": "owner",
      "outputs": [
        {
          "name": "",
          "type": "address"
        }
      ],
      "payable": false,
      "stateMutability": "view",
      "type": "function"
    },
    {
      "constant": true,
      "inputs": [],
      "name": "isOwner",
      "outputs": [
        {
          "name": "",
          "type": "bool"
        }
      ],
      "payable": false,
      "stateMutability": "view",
      "type": "function"
    },
    {
      "constant": false,
      "inputs": [
        {
          "name": "newOwner",
          "type": "address"
        }
      ],
      "name": "transferOwnership",
      "outputs": [],
      "payable": false,
      "stateMutability": "nonpayable",
      "type": "function"
    },
    {
      "anonymous": false,
      "inputs": [
        {
          "indexed": false,
          "name": "tazoId",
          "type": "uint256"
        },
        {
          "indexed": false,
          "name": "name",
          "type": "string"
        },
        {
          "indexed": false,
          "name": "dna",
          "type": "uint256"
        }
      ],
      "name": "NewTazo",
      "type": "event"
    },
    {
      "anonymous": false,
      "inputs": [
        {
          "indexed": true,
          "name": "previousOwner",
          "type": "address"
        },
        {
          "indexed": true,
          "name": "newOwner",
          "type": "address"
        }
      ],
      "name": "OwnershipTransferred",
      "type": "event"
    },
    {
      "constant": false,
      "inputs": [
        {
          "name": "_fee",
          "type": "uint256"
        }
      ],
      "name": "setLevelUpFee",
      "outputs": [],
      "payable": false,
      "stateMutability": "nonpayable",
      "type": "function"
    },
    {
      "constant": false,
      "inputs": [
        {
          "name": "_tazoId",
          "type": "uint256"
        }
      ],
      "name": "levelUp",
      "outputs": [],
      "payable": true,
      "stateMutability": "payable",
      "type": "function"
    },
    {
      "constant": false,
      "inputs": [
        {
          "name": "_tazoId",
          "type": "uint256"
        },
        {
          "name": "_newName",
          "type": "string"
        }
      ],
      "name": "changeName",
      "outputs": [],
      "payable": false,
      "stateMutability": "nonpayable",
      "type": "function"
    },
    {
      "constant": true,
      "inputs": [
        {
          "name": "_owner",
          "type": "address"
        }
      ],
      "name": "getTazosByOwner",
      "outputs": [
        {
          "name": "",
          "type": "uint256[]"
        }
      ],
      "payable": false,
      "stateMutability": "view",
      "type": "function"
    },
    {
      "constant": true,
      "inputs": [],
      "name": "getTazos",
      "outputs": [
        {
          "name": "",
          "type": "uint256[]"
        }
      ],
      "payable": false,
      "stateMutability": "view",
      "type": "function"
    }
  ],
  "bytecode": "0x60806040526010600155600154600a0a60025562015180600355655af3107a4000600755336000806101000a81548173ffffffffffffffffffffffffffffffffffffffff021916908373ffffffffffffffffffffffffffffffffffffffff1602179055506000809054906101000a900473ffffffffffffffffffffffffffffffffffffffff1673ffffffffffffffffffffffffffffffffffffffff16600073ffffffffffffffffffffffffffffffffffffffff167f8be0079c531659141344cd1fd0a4f28419497f9722a3daafe3b4186f6b6457e060405160405180910390a3611562806100ee6000396000f3fe6080604052600436106100c25760003560e01c8063697c3e5f1161007f5780638f32d59b116100595780638f32d59b146104ed578063c39cbef11461051c578063ccf670f8146105ac578063f2fde38b146105e7576100c2565b8063697c3e5f146103af578063715018a61461047f5780638da5cb5b14610496576100c2565b80630ce90ec2146100c757806326ff8bcc146100f5578063278892d51461019b5780632cafebb714610263578063579f4425146102c85780635a800dbd14610334575b600080fd5b6100f3600480360360208110156100dd57600080fd5b8101908080359060200190929190505050610638565b005b34801561010157600080fd5b506101446004803603602081101561011857600080fd5b81019080803573ffffffffffffffffffffffffffffffffffffffff169060200190929190505050610768565b6040518080602001828103825283818151815260200191508051906020019060200280838360005b8381101561018757808201518184015260208101905061016c565b505050509050019250505060405180910390f35b3480156101a757600080fd5b50610261600480360360208110156101be57600080fd5b81019080803590602001906401000000008111156101db57600080fd5b8201836020820111156101ed57600080fd5b8035906020019184600183028401116401000000008311171561020f57600080fd5b91908080601f016020809104026020016040519081016040528093929190818152602001838380828437600081840152601f19601f820116905080830192505050505050509192919290505050610895565b005b34801561026f57600080fd5b506102b26004803603602081101561028657600080fd5b81019080803573ffffffffffffffffffffffffffffffffffffffff169060200190929190505050610958565b6040518082815260200191505060405180910390f35b3480156102d457600080fd5b506102dd610970565b6040518080602001828103825283818151815260200191508051906020019060200280838360005b83811015610320578082015181840152602081019050610305565b505050509050019250505060405180910390f35b34801561034057600080fd5b5061036d6004803603602081101561035757600080fd5b81019080803590602001909291905050506109f9565b604051808273ffffffffffffffffffffffffffffffffffffffff1673ffffffffffffffffffffffffffffffffffffffff16815260200191505060405180910390f35b3480156103bb57600080fd5b506103e8600480360360208110156103d257600080fd5b8101908080359060200190929190505050610a2c565b6040518080602001868152602001858152602001848152602001838152602001828103825287818151815260200191508051906020019080838360005b83811015610440578082015181840152602081019050610425565b50505050905090810190601f16801561046d5780820380516001836020036101000a031916815260200191505b50965050505050505060405180910390f35b34801561048b57600080fd5b50610494610b07565b005b3480156104a257600080fd5b506104ab610c40565b604051808273ffffffffffffffffffffffffffffffffffffffff1673ffffffffffffffffffffffffffffffffffffffff16815260200191505060405180910390f35b3480156104f957600080fd5b50610502610c69565b604051808215151515815260200191505060405180910390f35b34801561052857600080fd5b506105aa6004803603604081101561053f57600080fd5b81019080803590602001909291908035906020019064010000000081111561056657600080fd5b82018360208201111561057857600080fd5b8035906020019184600183028401116401000000008311171561059a57600080fd5b9091929391929390505050610cc0565b005b3480156105b857600080fd5b506105e5600480360360208110156105cf57600080fd5b8101908080359060200190929190505050610dac565b005b3480156105f357600080fd5b506106366004803603602081101561060a57600080fd5b81019080803573ffffffffffffffffffffffffffffffffffffffff169060200190929190505050610e30565b005b600754341460075460405160200180806114836029913960290182815260200191505060405160208183030381529060405290610710576040517f08c379a00000000000000000000000000000000000000000000000000000000081526004018080602001828103825283818151815260200191508051906020019080838360005b838110156106d55780820151818401526020810190506106ba565b50505050905090810190601f1680156107025780820380516001836020036101000a031916815260200191505b509250505060405180910390fd5b5061074360016004838154811061072357fe5b906000526020600020906005020160020154610eb690919063ffffffff16565b6004828154811061075057fe5b90600052602060002090600502016002018190555050565b606080600660008473ffffffffffffffffffffffffffffffffffffffff1673ffffffffffffffffffffffffffffffffffffffff168152602001908152602001600020546040519080825280602002602001820160405280156107d95781602001602082028038833980820191505090505b509050600080905060008090505b60048054905081101561088a578473ffffffffffffffffffffffffffffffffffffffff166005600083815260200190815260200160002060009054906101000a900473ffffffffffffffffffffffffffffffffffffffff1673ffffffffffffffffffffffffffffffffffffffff16141561087d578083838151811061086857fe5b60200260200101818152505081806001019250505b80806001019150506107e7565b508192505050919050565b6000600660003373ffffffffffffffffffffffffffffffffffffffff1673ffffffffffffffffffffffffffffffffffffffff168152602001908152602001600020541461092d576040517f08c379a00000000000000000000000000000000000000000000000000000000081526004018080602001828103825260358152602001806115026035913960400191505060405180910390fd5b600061093882610f3e565b90506064818161094457fe5b06810390506109538282610fcc565b505050565b60066020528060005260406000206000915090505481565b6060806004805490506040519080825280602002602001820160405280156109a75781602001602082028038833980820191505090505b509050600080905060008090505b6004805490508110156109f057808383815181106109cf57fe5b602002602001018181525050818060010192505080806001019150506109b5565b50819250505090565b60056020528060005260406000206000915054906101000a900473ffffffffffffffffffffffffffffffffffffffff1681565b60048181548110610a3957fe5b9060005260206000209060050201600091509050806000018054600181600116156101000203166002900480601f016020809104026020016040519081016040528092919081815260200182805460018160011615610100020316600290048015610ae55780601f10610aba57610100808354040283529160200191610ae5565b820191906000526020600020905b815481529060010190602001808311610ac857829003601f168201915b5050505050908060010154908060020154908060030154908060040154905085565b610b0f610c69565b610b81576040517f08c379a00000000000000000000000000000000000000000000000000000000081526004018080602001828103825260208152602001807f4f776e61626c653a2063616c6c6572206973206e6f7420746865206f776e657281525060200191505060405180910390fd5b600073ffffffffffffffffffffffffffffffffffffffff166000809054906101000a900473ffffffffffffffffffffffffffffffffffffffff1673ffffffffffffffffffffffffffffffffffffffff167f8be0079c531659141344cd1fd0a4f28419497f9722a3daafe3b4186f6b6457e060405160405180910390a360008060006101000a81548173ffffffffffffffffffffffffffffffffffffffff021916908373ffffffffffffffffffffffffffffffffffffffff160217905550565b60008060009054906101000a900473ffffffffffffffffffffffffffffffffffffffff16905090565b60008060009054906101000a900473ffffffffffffffffffffffffffffffffffffffff1673ffffffffffffffffffffffffffffffffffffffff163373ffffffffffffffffffffffffffffffffffffffff1614905090565b826005600082815260200190815260200160002060009054906101000a900473ffffffffffffffffffffffffffffffffffffffff1673ffffffffffffffffffffffffffffffffffffffff163373ffffffffffffffffffffffffffffffffffffffff1614610d78576040517f08c379a00000000000000000000000000000000000000000000000000000000081526004018080602001828103825260308152602001806114d26030913960400191505060405180910390fd5b828260048681548110610d8757fe5b90600052602060002090600502016000019190610da592919061135d565b5050505050565b610db4610c69565b610e26576040517f08c379a00000000000000000000000000000000000000000000000000000000081526004018080602001828103825260208152602001807f4f776e61626c653a2063616c6c6572206973206e6f7420746865206f776e657281525060200191505060405180910390fd5b8060078190555050565b610e38610c69565b610eaa576040517f08c379a00000000000000000000000000000000000000000000000000000000081526004018080602001828103825260208152602001807f4f776e61626c653a2063616c6c6572206973206e6f7420746865206f776e657281525060200191505060405180910390fd5b610eb381611219565b50565b600080828401905083811015610f34576040517f08c379a000000000000000000000000000000000000000000000000000000000815260040180806020018281038252601b8152602001807f536166654d6174683a206164646974696f6e206f766572666c6f77000000000081525060200191505060405180910390fd5b8091505092915050565b600080826040516020018082805190602001908083835b60208310610f785780518252602082019150602081019050602083039250610f55565b6001836020036101000a0380198251168184511680821785525050505050509050019150506040516020818303038152906040528051906020012060001c90506002548181610fc357fe5b06915050919050565b600080600160046040518060a0016040528087815260200186815260200160018152602001600354420163ffffffff168152602001600081525090806001815401808255809150509060018203906000526020600020906005020160009091929091909150600082015181600001908051906020019061104d9291906113dd565b50602082015181600101556040820151816002015560608201518160030155608082015181600401555050039050336005600083815260200190815260200160002060006101000a81548173ffffffffffffffffffffffffffffffffffffffff021916908373ffffffffffffffffffffffffffffffffffffffff1602179055506111206001600660003373ffffffffffffffffffffffffffffffffffffffff1673ffffffffffffffffffffffffffffffffffffffff16815260200190815260200160002054610eb690919063ffffffff16565b600660003373ffffffffffffffffffffffffffffffffffffffff1673ffffffffffffffffffffffffffffffffffffffff168152602001908152602001600020819055507f5117ea76edf4ff070cb57b55682b9c0135dbbe437d78a71c5b5612a4d9dd25e68185856040518084815260200180602001838152602001828103825284818151815260200191508051906020019080838360005b838110156111d35780820151818401526020810190506111b8565b50505050905090810190601f1680156112005780820380516001836020036101000a031916815260200191505b5094505050505060405180910390a18091505092915050565b600073ffffffffffffffffffffffffffffffffffffffff168173ffffffffffffffffffffffffffffffffffffffff16141561129f576040517f08c379a00000000000000000000000000000000000000000000000000000000081526004018080602001828103825260268152602001806114ac6026913960400191505060405180910390fd5b8073ffffffffffffffffffffffffffffffffffffffff166000809054906101000a900473ffffffffffffffffffffffffffffffffffffffff1673ffffffffffffffffffffffffffffffffffffffff167f8be0079c531659141344cd1fd0a4f28419497f9722a3daafe3b4186f6b6457e060405160405180910390a3806000806101000a81548173ffffffffffffffffffffffffffffffffffffffff021916908373ffffffffffffffffffffffffffffffffffffffff16021790555050565b828054600181600116156101000203166002900490600052602060002090601f016020900481019282601f1061139e57803560ff19168380011785556113cc565b828001600101855582156113cc579182015b828111156113cb5782358255916020019190600101906113b0565b5b5090506113d9919061145d565b5090565b828054600181600116156101000203166002900490600052602060002090601f016020900481019282601f1061141e57805160ff191683800117855561144c565b8280016001018555821561144c579182015b8281111561144b578251825591602001919060010190611430565b5b509050611459919061145d565b5090565b61147f91905b8082111561147b576000816000905550600101611463565b5090565b9056fe4f2076616c6f72207061676f20707265636973612073657220696775616c20612074617861206465204f776e61626c653a206e6577206f776e657220697320746865207a65726f2061646472657373536f6d656e7465206f20646f6e6f20646f2074617a6f20706f6465207265616c697a617220616c74657261c3a7c3a36f536f6d656e7465206e6f766f7320757375c3a172696f732073656d2074617a6f7320706f64656d20676572617220756d2074617a6fa165627a7a723058203939fd4978359d7330b3de2282c82bb4df3ab45b09c49ff48cb7fb3f73bd56300029",
  "source": "pragma solidity ^0.5.0;\r\n\r\nimport \"./TazoFuse.sol\";\r\nimport 'openzeppelin-solidity/contracts/ownership/Ownable.sol';\r\n\r\ncontract TazoHelper is TazoFuse {\r\n    uint levelUpFee = 0.0001 ether;\r\n\r\n    modifier aboveLevel(uint _level, uint _tazoId) {\r\n    require(tazos[_tazoId].level >= _level, string(abi.encodePacked(\"O level do tazo precisa ser maior que \", _level)));\r\n    _;\r\n  }\r\n\r\n    function setLevelUpFee(uint _fee) external onlyOwner {\r\n        levelUpFee = _fee;\r\n    }\r\n\r\n    function levelUp(uint _tazoId) external payable {\r\n        require(msg.value == levelUpFee, string(abi.encodePacked(\"O valor pago precisa ser igual a taxa de \", levelUpFee)));\r\n        tazos[_tazoId].level = tazos[_tazoId].level.add(1);\r\n    }\r\n\r\n    function changeName(uint _tazoId, string calldata _newName) external onlyOwnerOf(_tazoId) {\r\n        tazos[_tazoId].name = _newName;\r\n    }\r\n\r\n    function getTazosByOwner(address _owner) external view returns(uint[] memory) {\r\n    uint[] memory result = new uint[](ownerTazoCount[_owner]);\r\n    uint counter = 0;\r\n    for (uint i = 0; i < tazos.length; i++) {\r\n      if (tazoToOwner[i] == _owner) {\r\n        result[counter] = i;\r\n        counter++;\r\n      }\r\n    }\r\n    return result;\r\n  }\r\n\r\n  function getTazos() external view returns(uint[] memory) {\r\n    uint[] memory result = new uint[](tazos.length);\r\n    uint counter = 0;\r\n    for (uint i = 0; i < tazos.length; i++) {\r\n        result[counter] = i;\r\n        counter++; \r\n    }\r\n    return result;\r\n  }\r\n\r\n}",
  "sourcePath": "C:\\Users\\Pichau\\Documents\\GitHub\\Cryptazo\\truffle project\\contracts\\TazoHelper.sol",
  "compiler": {
    "name": "solc",
    "version": "0.5.8+commit.23d335f2.Emscripten.clang"
  },
  "schemaVersion": "3.0.11",
  "updatedAt": "2019-06-26T15:32:17.899Z",
  "devdoc": {
    "methods": {
      "isOwner()": {
        "details": "Returns true if the caller is the current owner.\r"
      },
      "owner()": {
        "details": "Returns the address of the current owner.\r"
      },
      "renounceOwnership()": {
        "details": "Leaves the contract without owner. It will not be possible to call\r `onlyOwner` functions anymore. Can only be called by the current owner.\r      * > Note: Renouncing ownership will leave the contract without an owner,\r thereby removing any functionality that is only available to the owner.\r"
      },
      "transferOwnership(address)": {
        "details": "Transfers ownership of the contract to a new account (`newOwner`).\r Can only be called by the current owner.\r"
      }
    }
  },
  "userdoc": {
    "methods": {}
  }
}