{
  "contractName": "TazoBattle",
  "abi": [
    {
      "constant": false,
      "inputs": [
        {
          "name": "_tazoId",
          "type": "uint256"
        }
      ],
      "name": "levelUp",
      "outputs": [],
      "payable": true,
      "stateMutability": "payable",
      "type": "function"
    },
    {
      "constant": true,
      "inputs": [
        {
          "name": "_owner",
          "type": "address"
        }
      ],
      "name": "getTazosByOwner",
      "outputs": [
        {
          "name": "",
          "type": "uint256[]"
        }
      ],
      "payable": false,
      "stateMutability": "view",
      "type": "function"
    },
    {
      "constant": false,
      "inputs": [
        {
          "name": "_name",
          "type": "string"
        }
      ],
      "name": "createRandomTazo",
      "outputs": [],
      "payable": false,
      "stateMutability": "nonpayable",
      "type": "function"
    },
    {
      "constant": true,
      "inputs": [
        {
          "name": "",
          "type": "address"
        }
      ],
      "name": "ownerTazoCount",
      "outputs": [
        {
          "name": "",
          "type": "uint256"
        }
      ],
      "payable": false,
      "stateMutability": "view",
      "type": "function"
    },
    {
      "constant": true,
      "inputs": [
        {
          "name": "",
          "type": "uint256"
        }
      ],
      "name": "tazoToOwner",
      "outputs": [
        {
          "name": "",
          "type": "address"
        }
      ],
      "payable": false,
      "stateMutability": "view",
      "type": "function"
    },
    {
      "constant": true,
      "inputs": [
        {
          "name": "",
          "type": "uint256"
        }
      ],
      "name": "tazos",
      "outputs": [
        {
          "name": "name",
          "type": "string"
        },
        {
          "name": "dna",
          "type": "uint256"
        },
        {
          "name": "level",
          "type": "uint256"
        },
        {
          "name": "cooldown",
          "type": "uint256"
        },
        {
          "name": "winCount",
          "type": "uint256"
        },
        {
          "name": "forSale",
          "type": "bool"
        },
        {
          "name": "price",
          "type": "uint256"
        }
      ],
      "payable": false,
      "stateMutability": "view",
      "type": "function"
    },
    {
      "constant": true,
      "inputs": [],
      "name": "getLevelUpFee",
      "outputs": [
        {
          "name": "",
          "type": "uint256"
        }
      ],
      "payable": false,
      "stateMutability": "view",
      "type": "function"
    },
    {
      "constant": false,
      "inputs": [],
      "name": "renounceOwnership",
      "outputs": [],
      "payable": false,
      "stateMutability": "nonpayable",
      "type": "function"
    },
    {
      "constant": true,
      "inputs": [],
      "name": "owner",
      "outputs": [
        {
          "name": "",
          "type": "address"
        }
      ],
      "payable": false,
      "stateMutability": "view",
      "type": "function"
    },
    {
      "constant": true,
      "inputs": [],
      "name": "isOwner",
      "outputs": [
        {
          "name": "",
          "type": "bool"
        }
      ],
      "payable": false,
      "stateMutability": "view",
      "type": "function"
    },
    {
      "constant": false,
      "inputs": [
        {
          "name": "_tazoId",
          "type": "uint256"
        },
        {
          "name": "_newName",
          "type": "string"
        }
      ],
      "name": "changeName",
      "outputs": [],
      "payable": false,
      "stateMutability": "nonpayable",
      "type": "function"
    },
    {
      "constant": false,
      "inputs": [
        {
          "name": "_fee",
          "type": "uint256"
        }
      ],
      "name": "setLevelUpFee",
      "outputs": [],
      "payable": false,
      "stateMutability": "nonpayable",
      "type": "function"
    },
    {
      "constant": false,
      "inputs": [
        {
          "name": "newOwner",
          "type": "address"
        }
      ],
      "name": "transferOwnership",
      "outputs": [],
      "payable": false,
      "stateMutability": "nonpayable",
      "type": "function"
    },
    {
      "anonymous": false,
      "inputs": [
        {
          "indexed": false,
          "name": "tazoId",
          "type": "uint256"
        },
        {
          "indexed": false,
          "name": "name",
          "type": "string"
        },
        {
          "indexed": false,
          "name": "dna",
          "type": "uint256"
        }
      ],
      "name": "NewTazo",
      "type": "event"
    },
    {
      "anonymous": false,
      "inputs": [
        {
          "indexed": true,
          "name": "previousOwner",
          "type": "address"
        },
        {
          "indexed": true,
          "name": "newOwner",
          "type": "address"
        }
      ],
      "name": "OwnershipTransferred",
      "type": "event"
    },
    {
      "constant": true,
      "inputs": [
        {
          "name": "_tazoId",
          "type": "uint256"
        }
      ],
      "name": "getTazoPower",
      "outputs": [
        {
          "name": "",
          "type": "uint256"
        }
      ],
      "payable": false,
      "stateMutability": "view",
      "type": "function"
    },
    {
      "constant": false,
      "inputs": [
        {
          "name": "_tazoId",
          "type": "uint256"
        },
        {
          "name": "_targetId",
          "type": "uint256"
        }
      ],
      "name": "attack",
      "outputs": [],
      "payable": false,
      "stateMutability": "nonpayable",
      "type": "function"
    }
  ],
  "bytecode": "0x60806040526010600155600154600a0a60025562015180600355655af3107a40006007556000600855336000806101000a81548173ffffffffffffffffffffffffffffffffffffffff021916908373ffffffffffffffffffffffffffffffffffffffff1602179055506000809054906101000a900473ffffffffffffffffffffffffffffffffffffffff1673ffffffffffffffffffffffffffffffffffffffff16600073ffffffffffffffffffffffffffffffffffffffff167f8be0079c531659141344cd1fd0a4f28419497f9722a3daafe3b4186f6b6457e060405160405180910390a36119f7806100f36000396000f3fe6080604052600436106100e85760003560e01c8063715018a61161008a578063ccf670f811610059578063ccf670f8146105a3578063e1fa7638146105de578063e7927ab114610623578063f2fde38b14610672576100e8565b8063715018a6146104765780638da5cb5b1461048d5780638f32d59b146104e4578063c39cbef114610513576100e8565b80632cafebb7116100c65780632cafebb7146102895780635a800dbd146102ee578063697c3e5f146103695780636b2f60c81461044b576100e8565b80630ce90ec2146100ed57806326ff8bcc1461011b578063278892d5146101c1575b600080fd5b6101196004803603602081101561010357600080fd5b81019080803590602001909291905050506106c3565b005b34801561012757600080fd5b5061016a6004803603602081101561013e57600080fd5b81019080803573ffffffffffffffffffffffffffffffffffffffff1690602001909291905050506107f3565b6040518080602001828103825283818151815260200191508051906020019060200280838360005b838110156101ad578082015181840152602081019050610192565b505050509050019250505060405180910390f35b3480156101cd57600080fd5b50610287600480360360208110156101e457600080fd5b810190808035906020019064010000000081111561020157600080fd5b82018360208201111561021357600080fd5b8035906020019184600183028401116401000000008311171561023557600080fd5b91908080601f016020809104026020016040519081016040528093929190818152602001838380828437600081840152601f19601f820116905080830192505050505050509192919290505050610920565b005b34801561029557600080fd5b506102d8600480360360208110156102ac57600080fd5b81019080803573ffffffffffffffffffffffffffffffffffffffff1690602001909291905050506109e3565b6040518082815260200191505060405180910390f35b3480156102fa57600080fd5b506103276004803603602081101561031157600080fd5b81019080803590602001909291905050506109fb565b604051808273ffffffffffffffffffffffffffffffffffffffff1673ffffffffffffffffffffffffffffffffffffffff16815260200191505060405180910390f35b34801561037557600080fd5b506103a26004803603602081101561038c57600080fd5b8101908080359060200190929190505050610a2e565b604051808060200188815260200187815260200186815260200185815260200184151515158152602001838152602001828103825289818151815260200191508051906020019080838360005b8381101561040a5780820151818401526020810190506103ef565b50505050905090810190601f1680156104375780820380516001836020036101000a031916815260200191505b509850505050505050505060405180910390f35b34801561045757600080fd5b50610460610b22565b6040518082815260200191505060405180910390f35b34801561048257600080fd5b5061048b610b2c565b005b34801561049957600080fd5b506104a2610c65565b604051808273ffffffffffffffffffffffffffffffffffffffff1673ffffffffffffffffffffffffffffffffffffffff16815260200191505060405180910390f35b3480156104f057600080fd5b506104f9610c8e565b604051808215151515815260200191505060405180910390f35b34801561051f57600080fd5b506105a16004803603604081101561053657600080fd5b81019080803590602001909291908035906020019064010000000081111561055d57600080fd5b82018360208201111561056f57600080fd5b8035906020019184600183028401116401000000008311171561059157600080fd5b9091929391929390505050610ce5565b005b3480156105af57600080fd5b506105dc600480360360208110156105c657600080fd5b8101908080359060200190929190505050610dd1565b005b3480156105ea57600080fd5b506106216004803603604081101561060157600080fd5b810190808035906020019092919080359060200190929190505050610e55565b005b34801561062f57600080fd5b5061065c6004803603602081101561064657600080fd5b8101908080359060200190929190505050611177565b6040518082815260200191505060405180910390f35b34801561067e57600080fd5b506106c16004803603602081101561069557600080fd5b81019080803573ffffffffffffffffffffffffffffffffffffffff1690602001909291905050506111e2565b005b60075434146007546040516020018080611918602991396029018281526020019150506040516020818303038152906040529061079b576040517f08c379a00000000000000000000000000000000000000000000000000000000081526004018080602001828103825283818151815260200191508051906020019080838360005b83811015610760578082015181840152602081019050610745565b50505050905090810190601f16801561078d5780820380516001836020036101000a031916815260200191505b509250505060405180910390fd5b506107ce6001600483815481106107ae57fe5b90600052602060002090600702016002015461126890919063ffffffff16565b600482815481106107db57fe5b90600052602060002090600702016002018190555050565b606080600660008473ffffffffffffffffffffffffffffffffffffffff1673ffffffffffffffffffffffffffffffffffffffff168152602001908152602001600020546040519080825280602002602001820160405280156108645781602001602082028038833980820191505090505b509050600080905060008090505b600480549050811015610915578473ffffffffffffffffffffffffffffffffffffffff166005600083815260200190815260200160002060009054906101000a900473ffffffffffffffffffffffffffffffffffffffff1673ffffffffffffffffffffffffffffffffffffffff16141561090857808383815181106108f357fe5b60200260200101818152505081806001019250505b8080600101915050610872565b508192505050919050565b6000600660003373ffffffffffffffffffffffffffffffffffffffff1673ffffffffffffffffffffffffffffffffffffffff16815260200190815260200160002054146109b8576040517f08c379a00000000000000000000000000000000000000000000000000000000081526004018080602001828103825260358152602001806119976035913960400191505060405180910390fd5b60006109c3826112f0565b9050606481816109cf57fe5b06810390506109de828261137e565b505050565b60066020528060005260406000206000915090505481565b60056020528060005260406000206000915054906101000a900473ffffffffffffffffffffffffffffffffffffffff1681565b60048181548110610a3b57fe5b9060005260206000209060070201600091509050806000018054600181600116156101000203166002900480601f016020809104026020016040519081016040528092919081815260200182805460018160011615610100020316600290048015610ae75780601f10610abc57610100808354040283529160200191610ae7565b820191906000526020600020905b815481529060010190602001808311610aca57829003601f168201915b5050505050908060010154908060020154908060030154908060040154908060050160009054906101000a900460ff16908060060154905087565b6000600754905090565b610b34610c8e565b610ba6576040517f08c379a00000000000000000000000000000000000000000000000000000000081526004018080602001828103825260208152602001807f4f776e61626c653a2063616c6c6572206973206e6f7420746865206f776e657281525060200191505060405180910390fd5b600073ffffffffffffffffffffffffffffffffffffffff166000809054906101000a900473ffffffffffffffffffffffffffffffffffffffff1673ffffffffffffffffffffffffffffffffffffffff167f8be0079c531659141344cd1fd0a4f28419497f9722a3daafe3b4186f6b6457e060405160405180910390a360008060006101000a81548173ffffffffffffffffffffffffffffffffffffffff021916908373ffffffffffffffffffffffffffffffffffffffff160217905550565b60008060009054906101000a900473ffffffffffffffffffffffffffffffffffffffff16905090565b60008060009054906101000a900473ffffffffffffffffffffffffffffffffffffffff1673ffffffffffffffffffffffffffffffffffffffff163373ffffffffffffffffffffffffffffffffffffffff1614905090565b826005600082815260200190815260200160002060009054906101000a900473ffffffffffffffffffffffffffffffffffffffff1673ffffffffffffffffffffffffffffffffffffffff163373ffffffffffffffffffffffffffffffffffffffff1614610d9d576040517f08c379a00000000000000000000000000000000000000000000000000000000081526004018080602001828103825260308152602001806119676030913960400191505060405180910390fd5b828260048681548110610dac57fe5b90600052602060002090600702016000019190610dca9291906117f2565b5050505050565b610dd9610c8e565b610e4b576040517f08c379a00000000000000000000000000000000000000000000000000000000081526004018080602001828103825260208152602001807f4f776e61626c653a2063616c6c6572206973206e6f7420746865206f776e657281525060200191505060405180910390fd5b8060078190555050565b816005600082815260200190815260200160002060009054906101000a900473ffffffffffffffffffffffffffffffffffffffff1673ffffffffffffffffffffffffffffffffffffffff163373ffffffffffffffffffffffffffffffffffffffff1614610f0d576040517f08c379a00000000000000000000000000000000000000000000000000000000081526004018080602001828103825260308152602001806119676030913960400191505060405180910390fd5b600060048481548110610f1c57fe5b90600052602060002090600702019050600060048481548110610f3b57fe5b906000526020600020906007020190506000610f576064611605565b90506000806000846002015486600201540390507ffffffffffffffffffffffffffffffffffffffffffffffffffffffffffffffff88111610f9f5760079250600c91506110d7565b7ffffffffffffffffffffffffffffffffffffffffffffffffffffffffffffffffb8111158015610fee57507ffffffffffffffffffffffffffffffffffffffffffffffffffffffffffffffff881115b1561100057600e9250600991506110d6565b60008110801561102f57507ffffffffffffffffffffffffffffffffffffffffffffffffffffffffffffffffb81115b156110415760149250600791506110d5565b8060001080156110515750600581105b1561106357603c9250600491506110d4565b806005111580156110745750600881105b156110865760469250600391506110d3565b806008111580156110975750600a81105b156110a95760509250600291506110d2565b600a81106110be5760559250600191506110d1565b60008114156110d05760329250600491505b5b5b5b5b5b5b5b828411611122576110f66001876004015461126890919063ffffffff16565b866004018190555061111582876002015461126890919063ffffffff16565b8660020181905550611163565b61113a6001866004015461126890919063ffffffff16565b856004018190555061115a6001866002015461126890919063ffffffff16565b85600201819055505b61116c8661169e565b505050505050505050565b6000806004838154811061118757fe5b9060005260206000209060070201600101549050600061271082816111a857fe5b069050600484815481106111b857fe5b9060005260206000209060070201600201546001600583816111d657fe5b06010292505050919050565b6111ea610c8e565b61125c576040517f08c379a00000000000000000000000000000000000000000000000000000000081526004018080602001828103825260208152602001807f4f776e61626c653a2063616c6c6572206973206e6f7420746865206f776e657281525060200191505060405180910390fd5b611265816116ae565b50565b6000808284019050838110156112e6576040517f08c379a000000000000000000000000000000000000000000000000000000000815260040180806020018281038252601b8152602001807f536166654d6174683a206164646974696f6e206f766572666c6f77000000000081525060200191505060405180910390fd5b8091505092915050565b600080826040516020018082805190602001908083835b6020831061132a5780518252602082019150602081019050602083039250611307565b6001836020036101000a0380198251168184511680821785525050505050509050019150506040516020818303038152906040528051906020012060001c9050600254818161137557fe5b06915050919050565b600080600160046040518060e0016040528087815260200186815260200160018152602001600354420163ffffffff16815260200160008152602001600015158152602001600081525090806001815401808255809150509060018203906000526020600020906007020160009091929091909150600082015181600001908051906020019061140f929190611872565b506020820151816001015560408201518160020155606082015181600301556080820151816004015560a08201518160050160006101000a81548160ff02191690831515021790555060c082015181600601555050039050336005600083815260200190815260200160002060006101000a81548173ffffffffffffffffffffffffffffffffffffffff021916908373ffffffffffffffffffffffffffffffffffffffff16021790555061150c6001600660003373ffffffffffffffffffffffffffffffffffffffff1673ffffffffffffffffffffffffffffffffffffffff1681526020019081526020016000205461126890919063ffffffff16565b600660003373ffffffffffffffffffffffffffffffffffffffff1673ffffffffffffffffffffffffffffffffffffffff168152602001908152602001600020819055507f5117ea76edf4ff070cb57b55682b9c0135dbbe437d78a71c5b5612a4d9dd25e68185856040518084815260200180602001838152602001828103825284818151815260200191508051906020019080838360005b838110156115bf5780820151818401526020810190506115a4565b50505050905090810190601f1680156115ec5780820380516001836020036101000a031916815260200191505b5094505050505060405180910390a18091505092915050565b600061161d600160085461126890919063ffffffff16565b600881905550814233600854604051602001808481526020018373ffffffffffffffffffffffffffffffffffffffff1673ffffffffffffffffffffffffffffffffffffffff1660601b815260140182815260200193505050506040516020818303038152906040528051906020012060001c8161169657fe5b069050919050565b6003544201816003018190555050565b600073ffffffffffffffffffffffffffffffffffffffff168173ffffffffffffffffffffffffffffffffffffffff161415611734576040517f08c379a00000000000000000000000000000000000000000000000000000000081526004018080602001828103825260268152602001806119416026913960400191505060405180910390fd5b8073ffffffffffffffffffffffffffffffffffffffff166000809054906101000a900473ffffffffffffffffffffffffffffffffffffffff1673ffffffffffffffffffffffffffffffffffffffff167f8be0079c531659141344cd1fd0a4f28419497f9722a3daafe3b4186f6b6457e060405160405180910390a3806000806101000a81548173ffffffffffffffffffffffffffffffffffffffff021916908373ffffffffffffffffffffffffffffffffffffffff16021790555050565b828054600181600116156101000203166002900490600052602060002090601f016020900481019282601f1061183357803560ff1916838001178555611861565b82800160010185558215611861579182015b82811115611860578235825591602001919060010190611845565b5b50905061186e91906118f2565b5090565b828054600181600116156101000203166002900490600052602060002090601f016020900481019282601f106118b357805160ff19168380011785556118e1565b828001600101855582156118e1579182015b828111156118e05782518255916020019190600101906118c5565b5b5090506118ee91906118f2565b5090565b61191491905b808211156119105760008160009055506001016118f8565b5090565b9056fe4f2076616c6f72207061676f20707265636973612073657220696775616c20612074617861206465204f776e61626c653a206e6577206f776e657220697320746865207a65726f2061646472657373536f6d656e7465206f20646f6e6f20646f2074617a6f20706f6465207265616c697a617220616c74657261c3a7c3a36f536f6d656e7465206e6f766f7320757375c3a172696f732073656d2074617a6f7320706f64656d20676572617220756d2074617a6fa165627a7a723058203037cf9187fc6180023ff4008a58e460984c746f838db6e92234da868d6646030029",
  "source": "pragma solidity ^0.5.0;\r\n\r\nimport \"./TazoHelper.sol\";\r\n\r\ncontract TazoBattle is TazoHelper {\r\n\r\n    uint randNonce = 0;\r\n\r\n    function getTazoPower(uint _tazoId) public view returns(uint){\r\n        uint tazoDna = tazos[_tazoId].dna;\r\n        uint basePower = tazoDna%10000;\r\n        return ((basePower%5)+1) * tazos[_tazoId].level;\r\n    }\r\n\r\n\r\n  function randMod(uint _modulus) internal returns(uint) {\r\n    randNonce = randNonce.add(1);\r\n    return uint(keccak256(abi.encodePacked(now, msg.sender, randNonce))) % _modulus;\r\n  }\r\n\r\n  function attack(uint _tazoId, uint _targetId) external onlyOwnerOf(_tazoId) {\r\n    Tazo storage myTazo = tazos[_tazoId];\r\n    Tazo storage enemyTazo = tazos[_targetId];\r\n    uint rand = randMod(100);\r\n    uint battleVictoryProbability;\r\n    uint levelGain;\r\n    uint levelDifference = myTazo.level - enemyTazo.level;\r\n    if(levelDifference <= uint(-8)){\r\n        battleVictoryProbability = 7;\r\n        levelGain = 12;\r\n    }\r\n    else if(levelDifference <= uint(-5) && levelDifference > uint(-8)){\r\n        battleVictoryProbability = 14;\r\n        levelGain = 9;\r\n    }\r\n    else if(levelDifference < uint(0) && levelDifference > uint(-5)){\r\n        battleVictoryProbability = 20;\r\n        levelGain = 7;\r\n    }\r\n    else if(uint(0) < levelDifference && levelDifference < uint(5)){\r\n        battleVictoryProbability = 60;\r\n        levelGain = 4;\r\n    }\r\n    else if(uint(5) <= levelDifference && levelDifference < uint(8)){\r\n        battleVictoryProbability = 70;\r\n        levelGain = 3;\r\n    }\r\n    else if(uint(8) <= levelDifference && levelDifference < uint(10)){\r\n        battleVictoryProbability = 80;\r\n        levelGain = 2;\r\n    }\r\n    else if(levelDifference >= uint(10)){\r\n        battleVictoryProbability = 85;\r\n        levelGain = 1;\r\n    }\r\n    else if(levelDifference == uint(0)){\r\n        battleVictoryProbability = 50;\r\n        levelGain = 4;\r\n    }\r\n\r\n    if (rand <= battleVictoryProbability) {\r\n      myTazo.winCount = myTazo.winCount.add(1);\r\n      myTazo.level = myTazo.level.add(levelGain);\r\n    } else {\r\n      enemyTazo.winCount = enemyTazo.winCount.add(1);\r\n      enemyTazo.level = enemyTazo.level.add(1);\r\n    }\r\n    _triggerCooldown(myTazo);\r\n  }\r\n\r\n}",
  "sourcePath": "D:\\Projects\\Cryptazo\\truffle project\\contracts\\TazoBattle.sol",
  "compiler": {
    "name": "solc",
    "version": "0.5.8+commit.23d335f2.Emscripten.clang"
  },
  "schemaVersion": "3.0.11",
  "updatedAt": "2019-07-05T14:26:53.223Z",
  "devdoc": {
    "methods": {
      "isOwner()": {
        "details": "Returns true if the caller is the current owner.\r"
      },
      "owner()": {
        "details": "Returns the address of the current owner.\r"
      },
      "renounceOwnership()": {
        "details": "Leaves the contract without owner. It will not be possible to call\r `onlyOwner` functions anymore. Can only be called by the current owner.\r      * > Note: Renouncing ownership will leave the contract without an owner,\r thereby removing any functionality that is only available to the owner.\r"
      },
      "transferOwnership(address)": {
        "details": "Transfers ownership of the contract to a new account (`newOwner`).\r Can only be called by the current owner.\r"
      }
    }
  },
  "userdoc": {
    "methods": {}
  }
}