{
  "contractName": "TazoBattle",
  "abi": [
    {
      "constant": false,
      "inputs": [
        {
          "name": "_tazoId",
          "type": "uint256"
        }
      ],
      "name": "levelUp",
      "outputs": [],
      "payable": true,
      "stateMutability": "payable",
      "type": "function"
    },
    {
      "constant": true,
      "inputs": [
        {
          "name": "_owner",
          "type": "address"
        }
      ],
      "name": "getTazosByOwner",
      "outputs": [
        {
          "name": "",
          "type": "uint256[]"
        }
      ],
      "payable": false,
      "stateMutability": "view",
      "type": "function"
    },
    {
      "constant": false,
      "inputs": [
        {
          "name": "_name",
          "type": "string"
        }
      ],
      "name": "createRandomTazo",
      "outputs": [],
      "payable": false,
      "stateMutability": "nonpayable",
      "type": "function"
    },
    {
      "constant": true,
      "inputs": [
        {
          "name": "",
          "type": "address"
        }
      ],
      "name": "ownerTazoCount",
      "outputs": [
        {
          "name": "",
          "type": "uint256"
        }
      ],
      "payable": false,
      "stateMutability": "view",
      "type": "function"
    },
    {
      "constant": true,
      "inputs": [],
      "name": "getTazos",
      "outputs": [
        {
          "name": "",
          "type": "uint256[]"
        }
      ],
      "payable": false,
      "stateMutability": "view",
      "type": "function"
    },
    {
      "constant": true,
      "inputs": [
        {
          "name": "",
          "type": "uint256"
        }
      ],
      "name": "tazoToOwner",
      "outputs": [
        {
          "name": "",
          "type": "address"
        }
      ],
      "payable": false,
      "stateMutability": "view",
      "type": "function"
    },
    {
      "constant": true,
      "inputs": [
        {
          "name": "",
          "type": "uint256"
        }
      ],
      "name": "tazos",
      "outputs": [
        {
          "name": "name",
          "type": "string"
        },
        {
          "name": "dna",
          "type": "uint256"
        },
        {
          "name": "level",
          "type": "uint256"
        },
        {
          "name": "cooldown",
          "type": "uint256"
        },
        {
          "name": "winCount",
          "type": "uint256"
        }
      ],
      "payable": false,
      "stateMutability": "view",
      "type": "function"
    },
    {
      "constant": false,
      "inputs": [],
      "name": "renounceOwnership",
      "outputs": [],
      "payable": false,
      "stateMutability": "nonpayable",
      "type": "function"
    },
    {
      "constant": true,
      "inputs": [],
      "name": "owner",
      "outputs": [
        {
          "name": "",
          "type": "address"
        }
      ],
      "payable": false,
      "stateMutability": "view",
      "type": "function"
    },
    {
      "constant": true,
      "inputs": [],
      "name": "isOwner",
      "outputs": [
        {
          "name": "",
          "type": "bool"
        }
      ],
      "payable": false,
      "stateMutability": "view",
      "type": "function"
    },
    {
      "constant": false,
      "inputs": [
        {
          "name": "_tazoId",
          "type": "uint256"
        },
        {
          "name": "_newName",
          "type": "string"
        }
      ],
      "name": "changeName",
      "outputs": [],
      "payable": false,
      "stateMutability": "nonpayable",
      "type": "function"
    },
    {
      "constant": false,
      "inputs": [
        {
          "name": "_fee",
          "type": "uint256"
        }
      ],
      "name": "setLevelUpFee",
      "outputs": [],
      "payable": false,
      "stateMutability": "nonpayable",
      "type": "function"
    },
    {
      "constant": false,
      "inputs": [
        {
          "name": "newOwner",
          "type": "address"
        }
      ],
      "name": "transferOwnership",
      "outputs": [],
      "payable": false,
      "stateMutability": "nonpayable",
      "type": "function"
    },
    {
      "anonymous": false,
      "inputs": [
        {
          "indexed": false,
          "name": "tazoId",
          "type": "uint256"
        },
        {
          "indexed": false,
          "name": "name",
          "type": "string"
        },
        {
          "indexed": false,
          "name": "dna",
          "type": "uint256"
        }
      ],
      "name": "NewTazo",
      "type": "event"
    },
    {
      "anonymous": false,
      "inputs": [
        {
          "indexed": true,
          "name": "previousOwner",
          "type": "address"
        },
        {
          "indexed": true,
          "name": "newOwner",
          "type": "address"
        }
      ],
      "name": "OwnershipTransferred",
      "type": "event"
    },
    {
      "constant": true,
      "inputs": [
        {
          "name": "_tazoId",
          "type": "uint256"
        }
      ],
      "name": "getTazoPower",
      "outputs": [
        {
          "name": "",
          "type": "uint256"
        }
      ],
      "payable": false,
      "stateMutability": "view",
      "type": "function"
    },
    {
      "constant": false,
      "inputs": [
        {
          "name": "_tazoId",
          "type": "uint256"
        },
        {
          "name": "_targetId",
          "type": "uint256"
        }
      ],
      "name": "attack",
      "outputs": [],
      "payable": false,
      "stateMutability": "nonpayable",
      "type": "function"
    }
  ],
  "bytecode": "0x60806040526010600155600154600a0a60025562015180600355655af3107a40006007556000600855336000806101000a81548173ffffffffffffffffffffffffffffffffffffffff021916908373ffffffffffffffffffffffffffffffffffffffff1602179055506000809054906101000a900473ffffffffffffffffffffffffffffffffffffffff1673ffffffffffffffffffffffffffffffffffffffff16600073ffffffffffffffffffffffffffffffffffffffff167f8be0079c531659141344cd1fd0a4f28419497f9722a3daafe3b4186f6b6457e060405160405180910390a3611a52806100f36000396000f3fe6080604052600436106100e85760003560e01c8063715018a61161008a578063ccf670f811610059578063ccf670f8146105d2578063e1fa76381461060d578063e7927ab114610652578063f2fde38b146106a1576100e8565b8063715018a6146104a55780638da5cb5b146104bc5780638f32d59b14610513578063c39cbef114610542576100e8565b80632cafebb7116100c65780632cafebb714610289578063579f4425146102ee5780635a800dbd1461035a578063697c3e5f146103d5576100e8565b80630ce90ec2146100ed57806326ff8bcc1461011b578063278892d5146101c1575b600080fd5b6101196004803603602081101561010357600080fd5b81019080803590602001909291905050506106f2565b005b34801561012757600080fd5b5061016a6004803603602081101561013e57600080fd5b81019080803573ffffffffffffffffffffffffffffffffffffffff169060200190929190505050610822565b6040518080602001828103825283818151815260200191508051906020019060200280838360005b838110156101ad578082015181840152602081019050610192565b505050509050019250505060405180910390f35b3480156101cd57600080fd5b50610287600480360360208110156101e457600080fd5b810190808035906020019064010000000081111561020157600080fd5b82018360208201111561021357600080fd5b8035906020019184600183028401116401000000008311171561023557600080fd5b91908080601f016020809104026020016040519081016040528093929190818152602001838380828437600081840152601f19601f82011690508083019250505050505050919291929050505061094f565b005b34801561029557600080fd5b506102d8600480360360208110156102ac57600080fd5b81019080803573ffffffffffffffffffffffffffffffffffffffff169060200190929190505050610a12565b6040518082815260200191505060405180910390f35b3480156102fa57600080fd5b50610303610a2a565b6040518080602001828103825283818151815260200191508051906020019060200280838360005b8381101561034657808201518184015260208101905061032b565b505050509050019250505060405180910390f35b34801561036657600080fd5b506103936004803603602081101561037d57600080fd5b8101908080359060200190929190505050610ab3565b604051808273ffffffffffffffffffffffffffffffffffffffff1673ffffffffffffffffffffffffffffffffffffffff16815260200191505060405180910390f35b3480156103e157600080fd5b5061040e600480360360208110156103f857600080fd5b8101908080359060200190929190505050610ae6565b6040518080602001868152602001858152602001848152602001838152602001828103825287818151815260200191508051906020019080838360005b8381101561046657808201518184015260208101905061044b565b50505050905090810190601f1680156104935780820380516001836020036101000a031916815260200191505b50965050505050505060405180910390f35b3480156104b157600080fd5b506104ba610bc1565b005b3480156104c857600080fd5b506104d1610cfa565b604051808273ffffffffffffffffffffffffffffffffffffffff1673ffffffffffffffffffffffffffffffffffffffff16815260200191505060405180910390f35b34801561051f57600080fd5b50610528610d23565b604051808215151515815260200191505060405180910390f35b34801561054e57600080fd5b506105d06004803603604081101561056557600080fd5b81019080803590602001909291908035906020019064010000000081111561058c57600080fd5b82018360208201111561059e57600080fd5b803590602001918460018302840111640100000000831117156105c057600080fd5b9091929391929390505050610d7a565b005b3480156105de57600080fd5b5061060b600480360360208110156105f557600080fd5b8101908080359060200190929190505050610e66565b005b34801561061957600080fd5b506106506004803603604081101561063057600080fd5b810190808035906020019092919080359060200190929190505050610eea565b005b34801561065e57600080fd5b5061068b6004803603602081101561067557600080fd5b810190808035906020019092919050505061120c565b6040518082815260200191505060405180910390f35b3480156106ad57600080fd5b506106f0600480360360208110156106c457600080fd5b81019080803573ffffffffffffffffffffffffffffffffffffffff169060200190929190505050611277565b005b6007543414600754604051602001808061197360299139602901828152602001915050604051602081830303815290604052906107ca576040517f08c379a00000000000000000000000000000000000000000000000000000000081526004018080602001828103825283818151815260200191508051906020019080838360005b8381101561078f578082015181840152602081019050610774565b50505050905090810190601f1680156107bc5780820380516001836020036101000a031916815260200191505b509250505060405180910390fd5b506107fd6001600483815481106107dd57fe5b9060005260206000209060050201600201546112fd90919063ffffffff16565b6004828154811061080a57fe5b90600052602060002090600502016002018190555050565b606080600660008473ffffffffffffffffffffffffffffffffffffffff1673ffffffffffffffffffffffffffffffffffffffff168152602001908152602001600020546040519080825280602002602001820160405280156108935781602001602082028038833980820191505090505b509050600080905060008090505b600480549050811015610944578473ffffffffffffffffffffffffffffffffffffffff166005600083815260200190815260200160002060009054906101000a900473ffffffffffffffffffffffffffffffffffffffff1673ffffffffffffffffffffffffffffffffffffffff161415610937578083838151811061092257fe5b60200260200101818152505081806001019250505b80806001019150506108a1565b508192505050919050565b6000600660003373ffffffffffffffffffffffffffffffffffffffff1673ffffffffffffffffffffffffffffffffffffffff16815260200190815260200160002054146109e7576040517f08c379a00000000000000000000000000000000000000000000000000000000081526004018080602001828103825260358152602001806119f26035913960400191505060405180910390fd5b60006109f282611385565b9050606481816109fe57fe5b0681039050610a0d8282611413565b505050565b60066020528060005260406000206000915090505481565b606080600480549050604051908082528060200260200182016040528015610a615781602001602082028038833980820191505090505b509050600080905060008090505b600480549050811015610aaa5780838381518110610a8957fe5b60200260200101818152505081806001019250508080600101915050610a6f565b50819250505090565b60056020528060005260406000206000915054906101000a900473ffffffffffffffffffffffffffffffffffffffff1681565b60048181548110610af357fe5b9060005260206000209060050201600091509050806000018054600181600116156101000203166002900480601f016020809104026020016040519081016040528092919081815260200182805460018160011615610100020316600290048015610b9f5780601f10610b7457610100808354040283529160200191610b9f565b820191906000526020600020905b815481529060010190602001808311610b8257829003601f168201915b5050505050908060010154908060020154908060030154908060040154905085565b610bc9610d23565b610c3b576040517f08c379a00000000000000000000000000000000000000000000000000000000081526004018080602001828103825260208152602001807f4f776e61626c653a2063616c6c6572206973206e6f7420746865206f776e657281525060200191505060405180910390fd5b600073ffffffffffffffffffffffffffffffffffffffff166000809054906101000a900473ffffffffffffffffffffffffffffffffffffffff1673ffffffffffffffffffffffffffffffffffffffff167f8be0079c531659141344cd1fd0a4f28419497f9722a3daafe3b4186f6b6457e060405160405180910390a360008060006101000a81548173ffffffffffffffffffffffffffffffffffffffff021916908373ffffffffffffffffffffffffffffffffffffffff160217905550565b60008060009054906101000a900473ffffffffffffffffffffffffffffffffffffffff16905090565b60008060009054906101000a900473ffffffffffffffffffffffffffffffffffffffff1673ffffffffffffffffffffffffffffffffffffffff163373ffffffffffffffffffffffffffffffffffffffff1614905090565b826005600082815260200190815260200160002060009054906101000a900473ffffffffffffffffffffffffffffffffffffffff1673ffffffffffffffffffffffffffffffffffffffff163373ffffffffffffffffffffffffffffffffffffffff1614610e32576040517f08c379a00000000000000000000000000000000000000000000000000000000081526004018080602001828103825260308152602001806119c26030913960400191505060405180910390fd5b828260048681548110610e4157fe5b90600052602060002090600502016000019190610e5f92919061184d565b5050505050565b610e6e610d23565b610ee0576040517f08c379a00000000000000000000000000000000000000000000000000000000081526004018080602001828103825260208152602001807f4f776e61626c653a2063616c6c6572206973206e6f7420746865206f776e657281525060200191505060405180910390fd5b8060078190555050565b816005600082815260200190815260200160002060009054906101000a900473ffffffffffffffffffffffffffffffffffffffff1673ffffffffffffffffffffffffffffffffffffffff163373ffffffffffffffffffffffffffffffffffffffff1614610fa2576040517f08c379a00000000000000000000000000000000000000000000000000000000081526004018080602001828103825260308152602001806119c26030913960400191505060405180910390fd5b600060048481548110610fb157fe5b90600052602060002090600502019050600060048481548110610fd057fe5b906000526020600020906005020190506000610fec6064611660565b90506000806000846002015486600201540390507ffffffffffffffffffffffffffffffffffffffffffffffffffffffffffffffff881116110345760079250600c915061116c565b7ffffffffffffffffffffffffffffffffffffffffffffffffffffffffffffffffb811115801561108357507ffffffffffffffffffffffffffffffffffffffffffffffffffffffffffffffff881115b1561109557600e92506009915061116b565b6000811080156110c457507ffffffffffffffffffffffffffffffffffffffffffffffffffffffffffffffffb81115b156110d657601492506007915061116a565b8060001080156110e65750600581105b156110f857603c925060049150611169565b806005111580156111095750600881105b1561111b576046925060039150611168565b8060081115801561112c5750600a81105b1561113e576050925060029150611167565b600a8110611153576055925060019150611166565b60008114156111655760329250600491505b5b5b5b5b5b5b5b8284116111b75761118b600187600401546112fd90919063ffffffff16565b86600401819055506111aa8287600201546112fd90919063ffffffff16565b86600201819055506111f8565b6111cf600186600401546112fd90919063ffffffff16565b85600401819055506111ef600186600201546112fd90919063ffffffff16565b85600201819055505b611201866116f9565b505050505050505050565b6000806004838154811061121c57fe5b90600052602060002090600502016001015490506000612710828161123d57fe5b0690506004848154811061124d57fe5b90600052602060002090600502016002015460016005838161126b57fe5b06010292505050919050565b61127f610d23565b6112f1576040517f08c379a00000000000000000000000000000000000000000000000000000000081526004018080602001828103825260208152602001807f4f776e61626c653a2063616c6c6572206973206e6f7420746865206f776e657281525060200191505060405180910390fd5b6112fa81611709565b50565b60008082840190508381101561137b576040517f08c379a000000000000000000000000000000000000000000000000000000000815260040180806020018281038252601b8152602001807f536166654d6174683a206164646974696f6e206f766572666c6f77000000000081525060200191505060405180910390fd5b8091505092915050565b600080826040516020018082805190602001908083835b602083106113bf578051825260208201915060208101905060208303925061139c565b6001836020036101000a0380198251168184511680821785525050505050509050019150506040516020818303038152906040528051906020012060001c9050600254818161140a57fe5b06915050919050565b600080600160046040518060a0016040528087815260200186815260200160018152602001600354420163ffffffff16815260200160008152509080600181540180825580915050906001820390600052602060002090600502016000909192909190915060008201518160000190805190602001906114949291906118cd565b50602082015181600101556040820151816002015560608201518160030155608082015181600401555050039050336005600083815260200190815260200160002060006101000a81548173ffffffffffffffffffffffffffffffffffffffff021916908373ffffffffffffffffffffffffffffffffffffffff1602179055506115676001600660003373ffffffffffffffffffffffffffffffffffffffff1673ffffffffffffffffffffffffffffffffffffffff168152602001908152602001600020546112fd90919063ffffffff16565b600660003373ffffffffffffffffffffffffffffffffffffffff1673ffffffffffffffffffffffffffffffffffffffff168152602001908152602001600020819055507f5117ea76edf4ff070cb57b55682b9c0135dbbe437d78a71c5b5612a4d9dd25e68185856040518084815260200180602001838152602001828103825284818151815260200191508051906020019080838360005b8381101561161a5780820151818401526020810190506115ff565b50505050905090810190601f1680156116475780820380516001836020036101000a031916815260200191505b5094505050505060405180910390a18091505092915050565b600061167860016008546112fd90919063ffffffff16565b600881905550814233600854604051602001808481526020018373ffffffffffffffffffffffffffffffffffffffff1673ffffffffffffffffffffffffffffffffffffffff1660601b815260140182815260200193505050506040516020818303038152906040528051906020012060001c816116f157fe5b069050919050565b6003544201816003018190555050565b600073ffffffffffffffffffffffffffffffffffffffff168173ffffffffffffffffffffffffffffffffffffffff16141561178f576040517f08c379a000000000000000000000000000000000000000000000000000000000815260040180806020018281038252602681526020018061199c6026913960400191505060405180910390fd5b8073ffffffffffffffffffffffffffffffffffffffff166000809054906101000a900473ffffffffffffffffffffffffffffffffffffffff1673ffffffffffffffffffffffffffffffffffffffff167f8be0079c531659141344cd1fd0a4f28419497f9722a3daafe3b4186f6b6457e060405160405180910390a3806000806101000a81548173ffffffffffffffffffffffffffffffffffffffff021916908373ffffffffffffffffffffffffffffffffffffffff16021790555050565b828054600181600116156101000203166002900490600052602060002090601f016020900481019282601f1061188e57803560ff19168380011785556118bc565b828001600101855582156118bc579182015b828111156118bb5782358255916020019190600101906118a0565b5b5090506118c9919061194d565b5090565b828054600181600116156101000203166002900490600052602060002090601f016020900481019282601f1061190e57805160ff191683800117855561193c565b8280016001018555821561193c579182015b8281111561193b578251825591602001919060010190611920565b5b509050611949919061194d565b5090565b61196f91905b8082111561196b576000816000905550600101611953565b5090565b9056fe4f2076616c6f72207061676f20707265636973612073657220696775616c20612074617861206465204f776e61626c653a206e6577206f776e657220697320746865207a65726f2061646472657373536f6d656e7465206f20646f6e6f20646f2074617a6f20706f6465207265616c697a617220616c74657261c3a7c3a36f536f6d656e7465206e6f766f7320757375c3a172696f732073656d2074617a6f7320706f64656d20676572617220756d2074617a6fa165627a7a723058200b07c3d08c3e2df0ef62d3ab0d93e4fbaba0ab02c02dc407a25c8c060d74a9fe0029",
  "source": "pragma solidity ^0.5.0;\r\n\r\nimport \"./TazoHelper.sol\";\r\n\r\ncontract TazoBattle is TazoHelper {\r\n\r\n    uint randNonce = 0;\r\n\r\n    function getTazoPower(uint _tazoId) public view returns(uint){\r\n        uint tazoDna = tazos[_tazoId].dna;\r\n        uint basePower = tazoDna%10000;\r\n        return ((basePower%5)+1) * tazos[_tazoId].level;\r\n    }\r\n\r\n\r\n  function randMod(uint _modulus) internal returns(uint) {\r\n    randNonce = randNonce.add(1);\r\n    return uint(keccak256(abi.encodePacked(now, msg.sender, randNonce))) % _modulus;\r\n  }\r\n\r\n  function attack(uint _tazoId, uint _targetId) external onlyOwnerOf(_tazoId) {\r\n    Tazo storage myTazo = tazos[_tazoId];\r\n    Tazo storage enemyTazo = tazos[_targetId];\r\n    uint rand = randMod(100);\r\n    uint battleVictoryProbability;\r\n    uint levelGain;\r\n    uint levelDifference = myTazo.level - enemyTazo.level;\r\n    if(levelDifference <= uint(-8)){\r\n        battleVictoryProbability = 7;\r\n        levelGain = 12;\r\n    }\r\n    else if(levelDifference <= uint(-5) && levelDifference > uint(-8)){\r\n        battleVictoryProbability = 14;\r\n        levelGain = 9;\r\n    }\r\n    else if(levelDifference < uint(0) && levelDifference > uint(-5)){\r\n        battleVictoryProbability = 20;\r\n        levelGain = 7;\r\n    }\r\n    else if(uint(0) < levelDifference && levelDifference < uint(5)){\r\n        battleVictoryProbability = 60;\r\n        levelGain = 4;\r\n    }\r\n    else if(uint(5) <= levelDifference && levelDifference < uint(8)){\r\n        battleVictoryProbability = 70;\r\n        levelGain = 3;\r\n    }\r\n    else if(uint(8) <= levelDifference && levelDifference < uint(10)){\r\n        battleVictoryProbability = 80;\r\n        levelGain = 2;\r\n    }\r\n    else if(levelDifference >= uint(10)){\r\n        battleVictoryProbability = 85;\r\n        levelGain = 1;\r\n    }\r\n    else if(levelDifference == uint(0)){\r\n        battleVictoryProbability = 50;\r\n        levelGain = 4;\r\n    }\r\n\r\n    if (rand <= battleVictoryProbability) {\r\n      myTazo.winCount = myTazo.winCount.add(1);\r\n      myTazo.level = myTazo.level.add(levelGain);\r\n    } else {\r\n      enemyTazo.winCount = enemyTazo.winCount.add(1);\r\n      enemyTazo.level = enemyTazo.level.add(1);\r\n    }\r\n    _triggerCooldown(myTazo);\r\n  }\r\n\r\n}",
  "sourcePath": "C:\\Users\\Pichau\\Documents\\GitHub\\Cryptazo\\truffle project\\contracts\\TazoBattle.sol",
  "compiler": {
    "name": "solc",
    "version": "0.5.8+commit.23d335f2.Emscripten.clang"
  },
  "schemaVersion": "3.0.11",
  "updatedAt": "2019-06-26T15:32:17.904Z",
  "devdoc": {
    "methods": {
      "isOwner()": {
        "details": "Returns true if the caller is the current owner.\r"
      },
      "owner()": {
        "details": "Returns the address of the current owner.\r"
      },
      "renounceOwnership()": {
        "details": "Leaves the contract without owner. It will not be possible to call\r `onlyOwner` functions anymore. Can only be called by the current owner.\r      * > Note: Renouncing ownership will leave the contract without an owner,\r thereby removing any functionality that is only available to the owner.\r"
      },
      "transferOwnership(address)": {
        "details": "Transfers ownership of the contract to a new account (`newOwner`).\r Can only be called by the current owner.\r"
      }
    }
  },
  "userdoc": {
    "methods": {}
  }
}