{
  "contractName": "TazoOwnership",
  "abi": [
    {
      "constant": true,
      "inputs": [
        {
          "name": "interfaceId",
          "type": "bytes4"
        }
      ],
      "name": "supportsInterface",
      "outputs": [
        {
          "name": "",
          "type": "bool"
        }
      ],
      "payable": false,
      "stateMutability": "view",
      "type": "function"
    },
    {
      "constant": true,
      "inputs": [
        {
          "name": "tokenId",
          "type": "uint256"
        }
      ],
      "name": "getApproved",
      "outputs": [
        {
          "name": "",
          "type": "address"
        }
      ],
      "payable": false,
      "stateMutability": "view",
      "type": "function"
    },
    {
      "constant": false,
      "inputs": [
        {
          "name": "_tazoId",
          "type": "uint256"
        }
      ],
      "name": "levelUp",
      "outputs": [],
      "payable": true,
      "stateMutability": "payable",
      "type": "function"
    },
    {
      "constant": true,
      "inputs": [
        {
          "name": "_owner",
          "type": "address"
        }
      ],
      "name": "getTazosByOwner",
      "outputs": [
        {
          "name": "",
          "type": "uint256[]"
        }
      ],
      "payable": false,
      "stateMutability": "view",
      "type": "function"
    },
    {
      "constant": false,
      "inputs": [
        {
          "name": "_name",
          "type": "string"
        }
      ],
      "name": "createRandomTazo",
      "outputs": [],
      "payable": false,
      "stateMutability": "nonpayable",
      "type": "function"
    },
    {
      "constant": true,
      "inputs": [
        {
          "name": "",
          "type": "address"
        }
      ],
      "name": "ownerTazoCount",
      "outputs": [
        {
          "name": "",
          "type": "uint256"
        }
      ],
      "payable": false,
      "stateMutability": "view",
      "type": "function"
    },
    {
      "constant": false,
      "inputs": [
        {
          "name": "from",
          "type": "address"
        },
        {
          "name": "to",
          "type": "address"
        },
        {
          "name": "tokenId",
          "type": "uint256"
        }
      ],
      "name": "safeTransferFrom",
      "outputs": [],
      "payable": false,
      "stateMutability": "nonpayable",
      "type": "function"
    },
    {
      "constant": true,
      "inputs": [],
      "name": "getTazos",
      "outputs": [
        {
          "name": "",
          "type": "string"
        }
      ],
      "payable": false,
      "stateMutability": "view",
      "type": "function"
    },
    {
      "constant": true,
      "inputs": [
        {
          "name": "",
          "type": "uint256"
        }
      ],
      "name": "tazoToOwner",
      "outputs": [
        {
          "name": "",
          "type": "address"
        }
      ],
      "payable": false,
      "stateMutability": "view",
      "type": "function"
    },
    {
      "constant": true,
      "inputs": [
        {
          "name": "",
          "type": "uint256"
        }
      ],
      "name": "tazos",
      "outputs": [
        {
          "name": "name",
          "type": "string"
        },
        {
          "name": "dna",
          "type": "uint256"
        },
        {
          "name": "level",
          "type": "uint256"
        },
        {
          "name": "cooldown",
          "type": "uint256"
        },
        {
          "name": "winCount",
          "type": "uint256"
        }
      ],
      "payable": false,
      "stateMutability": "view",
      "type": "function"
    },
    {
      "constant": false,
      "inputs": [],
      "name": "renounceOwnership",
      "outputs": [],
      "payable": false,
      "stateMutability": "nonpayable",
      "type": "function"
    },
    {
      "constant": true,
      "inputs": [],
      "name": "owner",
      "outputs": [
        {
          "name": "",
          "type": "address"
        }
      ],
      "payable": false,
      "stateMutability": "view",
      "type": "function"
    },
    {
      "constant": true,
      "inputs": [],
      "name": "isOwner",
      "outputs": [
        {
          "name": "",
          "type": "bool"
        }
      ],
      "payable": false,
      "stateMutability": "view",
      "type": "function"
    },
    {
      "constant": false,
      "inputs": [
        {
          "name": "to",
          "type": "address"
        },
        {
          "name": "approved",
          "type": "bool"
        }
      ],
      "name": "setApprovalForAll",
      "outputs": [],
      "payable": false,
      "stateMutability": "nonpayable",
      "type": "function"
    },
    {
      "constant": false,
      "inputs": [
        {
          "name": "from",
          "type": "address"
        },
        {
          "name": "to",
          "type": "address"
        },
        {
          "name": "tokenId",
          "type": "uint256"
        },
        {
          "name": "_data",
          "type": "bytes"
        }
      ],
      "name": "safeTransferFrom",
      "outputs": [],
      "payable": false,
      "stateMutability": "nonpayable",
      "type": "function"
    },
    {
      "constant": false,
      "inputs": [
        {
          "name": "_tazoId",
          "type": "uint256"
        },
        {
          "name": "_newName",
          "type": "string"
        }
      ],
      "name": "changeName",
      "outputs": [],
      "payable": false,
      "stateMutability": "nonpayable",
      "type": "function"
    },
    {
      "constant": false,
      "inputs": [
        {
          "name": "_fee",
          "type": "uint256"
        }
      ],
      "name": "setLevelUpFee",
      "outputs": [],
      "payable": false,
      "stateMutability": "nonpayable",
      "type": "function"
    },
    {
      "constant": false,
      "inputs": [
        {
          "name": "_tazoId",
          "type": "uint256"
        },
        {
          "name": "_targetId",
          "type": "uint256"
        }
      ],
      "name": "attack",
      "outputs": [],
      "payable": false,
      "stateMutability": "nonpayable",
      "type": "function"
    },
    {
      "constant": true,
      "inputs": [
        {
          "name": "_tazoId",
          "type": "uint256"
        }
      ],
      "name": "getTazoPower",
      "outputs": [
        {
          "name": "",
          "type": "uint256"
        }
      ],
      "payable": false,
      "stateMutability": "view",
      "type": "function"
    },
    {
      "constant": true,
      "inputs": [
        {
          "name": "owner",
          "type": "address"
        },
        {
          "name": "operator",
          "type": "address"
        }
      ],
      "name": "isApprovedForAll",
      "outputs": [
        {
          "name": "",
          "type": "bool"
        }
      ],
      "payable": false,
      "stateMutability": "view",
      "type": "function"
    },
    {
      "constant": false,
      "inputs": [
        {
          "name": "newOwner",
          "type": "address"
        }
      ],
      "name": "transferOwnership",
      "outputs": [],
      "payable": false,
      "stateMutability": "nonpayable",
      "type": "function"
    },
    {
      "anonymous": false,
      "inputs": [
        {
          "indexed": true,
          "name": "from",
          "type": "address"
        },
        {
          "indexed": true,
          "name": "to",
          "type": "address"
        },
        {
          "indexed": true,
          "name": "tokenId",
          "type": "uint256"
        }
      ],
      "name": "Transfer",
      "type": "event"
    },
    {
      "anonymous": false,
      "inputs": [
        {
          "indexed": true,
          "name": "owner",
          "type": "address"
        },
        {
          "indexed": true,
          "name": "approved",
          "type": "address"
        },
        {
          "indexed": true,
          "name": "tokenId",
          "type": "uint256"
        }
      ],
      "name": "Approval",
      "type": "event"
    },
    {
      "anonymous": false,
      "inputs": [
        {
          "indexed": true,
          "name": "owner",
          "type": "address"
        },
        {
          "indexed": true,
          "name": "operator",
          "type": "address"
        },
        {
          "indexed": false,
          "name": "approved",
          "type": "bool"
        }
      ],
      "name": "ApprovalForAll",
      "type": "event"
    },
    {
      "anonymous": false,
      "inputs": [
        {
          "indexed": false,
          "name": "tazoId",
          "type": "uint256"
        },
        {
          "indexed": false,
          "name": "name",
          "type": "string"
        },
        {
          "indexed": false,
          "name": "dna",
          "type": "uint256"
        }
      ],
      "name": "NewTazo",
      "type": "event"
    },
    {
      "anonymous": false,
      "inputs": [
        {
          "indexed": true,
          "name": "previousOwner",
          "type": "address"
        },
        {
          "indexed": true,
          "name": "newOwner",
          "type": "address"
        }
      ],
      "name": "OwnershipTransferred",
      "type": "event"
    },
    {
      "constant": true,
      "inputs": [
        {
          "name": "_owner",
          "type": "address"
        }
      ],
      "name": "balanceOf",
      "outputs": [
        {
          "name": "",
          "type": "uint256"
        }
      ],
      "payable": false,
      "stateMutability": "view",
      "type": "function"
    },
    {
      "constant": true,
      "inputs": [
        {
          "name": "_tokenId",
          "type": "uint256"
        }
      ],
      "name": "ownerOf",
      "outputs": [
        {
          "name": "",
          "type": "address"
        }
      ],
      "payable": false,
      "stateMutability": "view",
      "type": "function"
    },
    {
      "constant": false,
      "inputs": [
        {
          "name": "_from",
          "type": "address"
        },
        {
          "name": "_to",
          "type": "address"
        },
        {
          "name": "_tokenId",
          "type": "uint256"
        }
      ],
      "name": "transferFrom",
      "outputs": [],
      "payable": false,
      "stateMutability": "nonpayable",
      "type": "function"
    },
    {
      "constant": false,
      "inputs": [
        {
          "name": "_approved",
          "type": "address"
        },
        {
          "name": "_tokenId",
          "type": "uint256"
        }
      ],
      "name": "approve",
      "outputs": [],
      "payable": false,
      "stateMutability": "nonpayable",
      "type": "function"
    }
  ],
  "bytecode": "0x60806040526010600155600154600a0a60025562015180600355655af3107a40006007556000600855336000806101000a81548173ffffffffffffffffffffffffffffffffffffffff021916908373ffffffffffffffffffffffffffffffffffffffff1602179055506000809054906101000a900473ffffffffffffffffffffffffffffffffffffffff1673ffffffffffffffffffffffffffffffffffffffff16600073ffffffffffffffffffffffffffffffffffffffff167f8be0079c531659141344cd1fd0a4f28419497f9722a3daafe3b4186f6b6457e060405160405180910390a3620000fc6301ffc9a760e01b6200011a60201b60201c565b620001146380ac58cd60e01b6200011a60201b60201c565b62000224565b63ffffffff60e01b817bffffffffffffffffffffffffffffffffffffffffffffffffffffffff19161415620001b7576040517f08c379a000000000000000000000000000000000000000000000000000000000815260040180806020018281038252601c8152602001807f4552433136353a20696e76616c696420696e746572666163652069640000000081525060200191505060405180910390fd5b600160096000837bffffffffffffffffffffffffffffffffffffffffffffffffffffffff19167bffffffffffffffffffffffffffffffffffffffffffffffffffffffff1916815260200190815260200160002060006101000a81548160ff02191690831515021790555050565b612db480620002346000396000f3fe6080604052600436106101665760003560e01c8063697c3e5f116100d1578063b88d4fde1161008a578063e1fa763811610064578063e1fa763814610b3c578063e7927ab114610b81578063e985e9c514610bd0578063f2fde38b14610c5957610166565b8063b88d4fde1461095f578063c39cbef114610a71578063ccf670f814610b0157610166565b8063697c3e5f1461073057806370a0823114610800578063715018a6146108655780638da5cb5b1461087c5780638f32d59b146108d3578063a22cb4651461090257610166565b8063278892d511610123578063278892d5146104025780632cafebb7146104ca57806342842e0e1461052f578063579f4425146105aa5780635a800dbd1461063a5780636352211e146106b557610166565b806301ffc9a71461016b578063081812fc146101dd578063095ea7b3146102585780630ce90ec2146102b357806323b872dd146102e157806326ff8bcc1461035c575b600080fd5b34801561017757600080fd5b506101c36004803603602081101561018e57600080fd5b8101908080357bffffffffffffffffffffffffffffffffffffffffffffffffffffffff19169060200190929190505050610caa565b604051808215151515815260200191505060405180910390f35b3480156101e957600080fd5b506102166004803603602081101561020057600080fd5b8101908080359060200190929190505050610d12565b604051808273ffffffffffffffffffffffffffffffffffffffff1673ffffffffffffffffffffffffffffffffffffffff16815260200191505060405180910390f35b34801561026457600080fd5b506102b16004803603604081101561027b57600080fd5b81019080803573ffffffffffffffffffffffffffffffffffffffff16906020019092919080359060200190929190505050610dad565b005b6102df600480360360208110156102c957600080fd5b8101908080359060200190929190505050610f17565b005b3480156102ed57600080fd5b5061035a6004803603606081101561030457600080fd5b81019080803573ffffffffffffffffffffffffffffffffffffffff169060200190929190803573ffffffffffffffffffffffffffffffffffffffff16906020019092919080359060200190929190505050611047565b005b34801561036857600080fd5b506103ab6004803603602081101561037f57600080fd5b81019080803573ffffffffffffffffffffffffffffffffffffffff169060200190929190505050611177565b6040518080602001828103825283818151815260200191508051906020019060200280838360005b838110156103ee5780820151818401526020810190506103d3565b505050509050019250505060405180910390f35b34801561040e57600080fd5b506104c86004803603602081101561042557600080fd5b810190808035906020019064010000000081111561044257600080fd5b82018360208201111561045457600080fd5b8035906020019184600183028401116401000000008311171561047657600080fd5b91908080601f016020809104026020016040519081016040528093929190818152602001838380828437600081840152601f19601f8201169050808301925050505050505091929192905050506112a4565b005b3480156104d657600080fd5b50610519600480360360208110156104ed57600080fd5b81019080803573ffffffffffffffffffffffffffffffffffffffff169060200190929190505050611367565b6040518082815260200191505060405180910390f35b34801561053b57600080fd5b506105a86004803603606081101561055257600080fd5b81019080803573ffffffffffffffffffffffffffffffffffffffff169060200190929190803573ffffffffffffffffffffffffffffffffffffffff1690602001909291908035906020019092919050505061137f565b005b3480156105b657600080fd5b506105bf61139f565b6040518080602001828103825283818151815260200191508051906020019080838360005b838110156105ff5780820151818401526020810190506105e4565b50505050905090810190601f16801561062c5780820380516001836020036101000a031916815260200191505b509250505060405180910390f35b34801561064657600080fd5b506106736004803603602081101561065d57600080fd5b8101908080359060200190929190505050611435565b604051808273ffffffffffffffffffffffffffffffffffffffff1673ffffffffffffffffffffffffffffffffffffffff16815260200191505060405180910390f35b3480156106c157600080fd5b506106ee600480360360208110156106d857600080fd5b8101908080359060200190929190505050611468565b604051808273ffffffffffffffffffffffffffffffffffffffff1673ffffffffffffffffffffffffffffffffffffffff16815260200191505060405180910390f35b34801561073c57600080fd5b506107696004803603602081101561075357600080fd5b81019080803590602001909291905050506114a5565b6040518080602001868152602001858152602001848152602001838152602001828103825287818151815260200191508051906020019080838360005b838110156107c15780820151818401526020810190506107a6565b50505050905090810190601f1680156107ee5780820380516001836020036101000a031916815260200191505b50965050505050505060405180910390f35b34801561080c57600080fd5b5061084f6004803603602081101561082357600080fd5b81019080803573ffffffffffffffffffffffffffffffffffffffff169060200190929190505050611580565b6040518082815260200191505060405180910390f35b34801561087157600080fd5b5061087a6115c9565b005b34801561088857600080fd5b50610891611702565b604051808273ffffffffffffffffffffffffffffffffffffffff1673ffffffffffffffffffffffffffffffffffffffff16815260200191505060405180910390f35b3480156108df57600080fd5b506108e861172b565b604051808215151515815260200191505060405180910390f35b34801561090e57600080fd5b5061095d6004803603604081101561092557600080fd5b81019080803573ffffffffffffffffffffffffffffffffffffffff169060200190929190803515159060200190929190505050611782565b005b34801561096b57600080fd5b50610a6f6004803603608081101561098257600080fd5b81019080803573ffffffffffffffffffffffffffffffffffffffff169060200190929190803573ffffffffffffffffffffffffffffffffffffffff16906020019092919080359060200190929190803590602001906401000000008111156109e957600080fd5b8201836020820111156109fb57600080fd5b80359060200191846001830284011164010000000083111715610a1d57600080fd5b91908080601f016020809104026020016040519081016040528093929190818152602001838380828437600081840152601f19601f820116905080830192505050505050509192919290505050611925565b005b348015610a7d57600080fd5b50610aff60048036036040811015610a9457600080fd5b810190808035906020019092919080359060200190640100000000811115610abb57600080fd5b820183602082011115610acd57600080fd5b80359060200191846001830284011164010000000083111715610aef57600080fd5b9091929391929390505050611997565b005b348015610b0d57600080fd5b50610b3a60048036036020811015610b2457600080fd5b8101908080359060200190929190505050611a83565b005b348015610b4857600080fd5b50610b7f60048036036040811015610b5f57600080fd5b810190808035906020019092919080359060200190929190505050611b07565b005b348015610b8d57600080fd5b50610bba60048036036020811015610ba457600080fd5b8101908080359060200190929190505050611e29565b6040518082815260200191505060405180910390f35b348015610bdc57600080fd5b50610c3f60048036036040811015610bf357600080fd5b81019080803573ffffffffffffffffffffffffffffffffffffffff169060200190929190803573ffffffffffffffffffffffffffffffffffffffff169060200190929190505050611e94565b604051808215151515815260200191505060405180910390f35b348015610c6557600080fd5b50610ca860048036036020811015610c7c57600080fd5b81019080803573ffffffffffffffffffffffffffffffffffffffff169060200190929190505050611f28565b005b600060096000837bffffffffffffffffffffffffffffffffffffffffffffffffffffffff19167bffffffffffffffffffffffffffffffffffffffffffffffffffffffff1916815260200190815260200160002060009054906101000a900460ff169050919050565b6000610d1d82611fae565b610d72576040517f08c379a000000000000000000000000000000000000000000000000000000000815260040180806020018281038252602c815260200180612d0c602c913960400191505060405180910390fd5b600b600083815260200190815260200160002060009054906101000a900473ffffffffffffffffffffffffffffffffffffffff169050919050565b806005600082815260200190815260200160002060009054906101000a900473ffffffffffffffffffffffffffffffffffffffff1673ffffffffffffffffffffffffffffffffffffffff163373ffffffffffffffffffffffffffffffffffffffff1614610e65576040517f08c379a0000000000000000000000000000000000000000000000000000000008152600401808060200182810382526030815260200180612ca76030913960400191505060405180910390fd5b82600e600084815260200190815260200160002060006101000a81548173ffffffffffffffffffffffffffffffffffffffff021916908373ffffffffffffffffffffffffffffffffffffffff160217905550818373ffffffffffffffffffffffffffffffffffffffff163373ffffffffffffffffffffffffffffffffffffffff167f8c5be1e5ebec7d5bd14f71427d1e84f3dd0314c0f7b2291e5b200ac8c7c3b92560405160405180910390a4505050565b60075434146007546040516020018080612c266029913960290182815260200191505060405160208183030381529060405290610fef576040517f08c379a00000000000000000000000000000000000000000000000000000000081526004018080602001828103825283818151815260200191508051906020019080838360005b83811015610fb4578082015181840152602081019050610f99565b50505050905090810190601f168015610fe15780820380516001836020036101000a031916815260200191505b509250505060405180910390fd5b5061102260016004838154811061100257fe5b90600052602060002090600502016002015461202090919063ffffffff16565b6004828154811061102f57fe5b90600052602060002090600502016002018190555050565b3373ffffffffffffffffffffffffffffffffffffffff166005600083815260200190815260200160002060009054906101000a900473ffffffffffffffffffffffffffffffffffffffff1673ffffffffffffffffffffffffffffffffffffffff16148061111257503373ffffffffffffffffffffffffffffffffffffffff16600e600083815260200190815260200160002060009054906101000a900473ffffffffffffffffffffffffffffffffffffffff1673ffffffffffffffffffffffffffffffffffffffff16145b611167576040517f08c379a0000000000000000000000000000000000000000000000000000000008152600401808060200182810382526051815260200180612d386051913960600191505060405180910390fd5b6111728383836120a8565b505050565b606080600660008473ffffffffffffffffffffffffffffffffffffffff1673ffffffffffffffffffffffffffffffffffffffff168152602001908152602001600020546040519080825280602002602001820160405280156111e85781602001602082028038833980820191505090505b509050600080905060008090505b600480549050811015611299578473ffffffffffffffffffffffffffffffffffffffff166005600083815260200190815260200160002060009054906101000a900473ffffffffffffffffffffffffffffffffffffffff1673ffffffffffffffffffffffffffffffffffffffff16141561128c578083838151811061127757fe5b60200260200101818152505081806001019250505b80806001019150506111f6565b508192505050919050565b6000600660003373ffffffffffffffffffffffffffffffffffffffff1673ffffffffffffffffffffffffffffffffffffffff168152602001908152602001600020541461133c576040517f08c379a0000000000000000000000000000000000000000000000000000000008152600401808060200182810382526035815260200180612cd76035913960400191505060405180910390fd5b600061134782612286565b90506064818161135357fe5b06810390506113628282612314565b505050565b60066020528060005260406000206000915090505481565b61139a83838360405180602001604052806000815250611925565b505050565b6060806004805490506040519080825280602002602001820160405280156113d65781602001602082028038833980820191505090505b509050600080905060008090505b60048054905081101561141f57808383815181106113fe57fe5b602002602001018181525050818060010192505080806001019150506113e4565b5061142e600480549050612561565b9250505090565b60056020528060005260406000206000915054906101000a900473ffffffffffffffffffffffffffffffffffffffff1681565b60006005600083815260200190815260200160002060009054906101000a900473ffffffffffffffffffffffffffffffffffffffff169050919050565b600481815481106114b257fe5b9060005260206000209060050201600091509050806000018054600181600116156101000203166002900480601f01602080910402602001604051908101604052809291908181526020018280546001816001161561010002031660029004801561155e5780601f106115335761010080835404028352916020019161155e565b820191906000526020600020905b81548152906001019060200180831161154157829003601f168201915b5050505050908060010154908060020154908060030154908060040154905085565b6000600660008373ffffffffffffffffffffffffffffffffffffffff1673ffffffffffffffffffffffffffffffffffffffff168152602001908152602001600020549050919050565b6115d161172b565b611643576040517f08c379a00000000000000000000000000000000000000000000000000000000081526004018080602001828103825260208152602001807f4f776e61626c653a2063616c6c6572206973206e6f7420746865206f776e657281525060200191505060405180910390fd5b600073ffffffffffffffffffffffffffffffffffffffff166000809054906101000a900473ffffffffffffffffffffffffffffffffffffffff1673ffffffffffffffffffffffffffffffffffffffff167f8be0079c531659141344cd1fd0a4f28419497f9722a3daafe3b4186f6b6457e060405160405180910390a360008060006101000a81548173ffffffffffffffffffffffffffffffffffffffff021916908373ffffffffffffffffffffffffffffffffffffffff160217905550565b60008060009054906101000a900473ffffffffffffffffffffffffffffffffffffffff16905090565b60008060009054906101000a900473ffffffffffffffffffffffffffffffffffffffff1673ffffffffffffffffffffffffffffffffffffffff163373ffffffffffffffffffffffffffffffffffffffff1614905090565b3373ffffffffffffffffffffffffffffffffffffffff168273ffffffffffffffffffffffffffffffffffffffff161415611824576040517f08c379a00000000000000000000000000000000000000000000000000000000081526004018080602001828103825260198152602001807f4552433732313a20617070726f766520746f2063616c6c65720000000000000081525060200191505060405180910390fd5b80600d60003373ffffffffffffffffffffffffffffffffffffffff1673ffffffffffffffffffffffffffffffffffffffff16815260200190815260200160002060008473ffffffffffffffffffffffffffffffffffffffff1673ffffffffffffffffffffffffffffffffffffffff16815260200190815260200160002060006101000a81548160ff0219169083151502179055508173ffffffffffffffffffffffffffffffffffffffff163373ffffffffffffffffffffffffffffffffffffffff167f17307eab39ab6107e8899845ad3d59bd9653f200f220920489ca2b5937696c3183604051808215151515815260200191505060405180910390a35050565b611930848484611047565b61193c8484848461268e565b611991576040517f08c379a0000000000000000000000000000000000000000000000000000000008152600401808060200182810382526032815260200180612c4f6032913960400191505060405180910390fd5b50505050565b826005600082815260200190815260200160002060009054906101000a900473ffffffffffffffffffffffffffffffffffffffff1673ffffffffffffffffffffffffffffffffffffffff163373ffffffffffffffffffffffffffffffffffffffff1614611a4f576040517f08c379a0000000000000000000000000000000000000000000000000000000008152600401808060200182810382526030815260200180612ca76030913960400191505060405180910390fd5b828260048681548110611a5e57fe5b90600052602060002090600502016000019190611a7c929190612b00565b5050505050565b611a8b61172b565b611afd576040517f08c379a00000000000000000000000000000000000000000000000000000000081526004018080602001828103825260208152602001807f4f776e61626c653a2063616c6c6572206973206e6f7420746865206f776e657281525060200191505060405180910390fd5b8060078190555050565b816005600082815260200190815260200160002060009054906101000a900473ffffffffffffffffffffffffffffffffffffffff1673ffffffffffffffffffffffffffffffffffffffff163373ffffffffffffffffffffffffffffffffffffffff1614611bbf576040517f08c379a0000000000000000000000000000000000000000000000000000000008152600401808060200182810382526030815260200180612ca76030913960400191505060405180910390fd5b600060048481548110611bce57fe5b90600052602060002090600502019050600060048481548110611bed57fe5b906000526020600020906005020190506000611c096064612877565b90506000806000846002015486600201540390507ffffffffffffffffffffffffffffffffffffffffffffffffffffffffffffffff88111611c515760079250600c9150611d89565b7ffffffffffffffffffffffffffffffffffffffffffffffffffffffffffffffffb8111158015611ca057507ffffffffffffffffffffffffffffffffffffffffffffffffffffffffffffffff881115b15611cb257600e925060099150611d88565b600081108015611ce157507ffffffffffffffffffffffffffffffffffffffffffffffffffffffffffffffffb81115b15611cf3576014925060079150611d87565b806000108015611d035750600581105b15611d1557603c925060049150611d86565b80600511158015611d265750600881105b15611d38576046925060039150611d85565b80600811158015611d495750600a81105b15611d5b576050925060029150611d84565b600a8110611d70576055925060019150611d83565b6000811415611d825760329250600491505b5b5b5b5b5b5b5b828411611dd457611da86001876004015461202090919063ffffffff16565b8660040181905550611dc782876002015461202090919063ffffffff16565b8660020181905550611e15565b611dec6001866004015461202090919063ffffffff16565b8560040181905550611e0c6001866002015461202090919063ffffffff16565b85600201819055505b611e1e86612910565b505050505050505050565b60008060048381548110611e3957fe5b906000526020600020906005020160010154905060006127108281611e5a57fe5b06905060048481548110611e6a57fe5b906000526020600020906005020160020154600160058381611e8857fe5b06010292505050919050565b6000600d60008473ffffffffffffffffffffffffffffffffffffffff1673ffffffffffffffffffffffffffffffffffffffff16815260200190815260200160002060008373ffffffffffffffffffffffffffffffffffffffff1673ffffffffffffffffffffffffffffffffffffffff16815260200190815260200160002060009054906101000a900460ff16905092915050565b611f3061172b565b611fa2576040517f08c379a00000000000000000000000000000000000000000000000000000000081526004018080602001828103825260208152602001807f4f776e61626c653a2063616c6c6572206973206e6f7420746865206f776e657281525060200191505060405180910390fd5b611fab81612920565b50565b600080600a600084815260200190815260200160002060009054906101000a900473ffffffffffffffffffffffffffffffffffffffff169050600073ffffffffffffffffffffffffffffffffffffffff168173ffffffffffffffffffffffffffffffffffffffff161415915050919050565b60008082840190508381101561209e576040517f08c379a000000000000000000000000000000000000000000000000000000000815260040180806020018281038252601b8152602001807f536166654d6174683a206164646974696f6e206f766572666c6f77000000000081525060200191505060405180910390fd5b8091505092915050565b6120fb6001600660008573ffffffffffffffffffffffffffffffffffffffff1673ffffffffffffffffffffffffffffffffffffffff1681526020019081526020016000205461202090919063ffffffff16565b600660008473ffffffffffffffffffffffffffffffffffffffff1673ffffffffffffffffffffffffffffffffffffffff168152602001908152602001600020819055506121916001600660003373ffffffffffffffffffffffffffffffffffffffff1673ffffffffffffffffffffffffffffffffffffffff16815260200190815260200160002054612a6490919063ffffffff16565b600660003373ffffffffffffffffffffffffffffffffffffffff1673ffffffffffffffffffffffffffffffffffffffff16815260200190815260200160002081905550816005600083815260200190815260200160002060006101000a81548173ffffffffffffffffffffffffffffffffffffffff021916908373ffffffffffffffffffffffffffffffffffffffff160217905550808273ffffffffffffffffffffffffffffffffffffffff168473ffffffffffffffffffffffffffffffffffffffff167fddf252ad1be2c89b69c2b068fc378daa952ba7f163c4a11628f55a4df523b3ef60405160405180910390a4505050565b600080826040516020018082805190602001908083835b602083106122c0578051825260208201915060208101905060208303925061229d565b6001836020036101000a0380198251168184511680821785525050505050509050019150506040516020818303038152906040528051906020012060001c9050600254818161230b57fe5b06915050919050565b600080600160046040518060a0016040528087815260200186815260200160018152602001600354420163ffffffff1681526020016000815250908060018154018082558091505090600182039060005260206000209060050201600090919290919091506000820151816000019080519060200190612395929190612b80565b50602082015181600101556040820151816002015560608201518160030155608082015181600401555050039050336005600083815260200190815260200160002060006101000a81548173ffffffffffffffffffffffffffffffffffffffff021916908373ffffffffffffffffffffffffffffffffffffffff1602179055506124686001600660003373ffffffffffffffffffffffffffffffffffffffff1673ffffffffffffffffffffffffffffffffffffffff1681526020019081526020016000205461202090919063ffffffff16565b600660003373ffffffffffffffffffffffffffffffffffffffff1673ffffffffffffffffffffffffffffffffffffffff168152602001908152602001600020819055507f5117ea76edf4ff070cb57b55682b9c0135dbbe437d78a71c5b5612a4d9dd25e68185856040518084815260200180602001838152602001828103825284818151815260200191508051906020019080838360005b8381101561251b578082015181840152602081019050612500565b50505050905090810190601f1680156125485780820380516001836020036101000a031916815260200191505b5094505050505060405180910390a18091505092915050565b606060008214156125a9576040518060400160405280600181526020017f30000000000000000000000000000000000000000000000000000000000000008152509050612689565b600082905060005b600082146125d3578080600101915050600a82816125cb57fe5b0491506125b1565b6060816040519080825280601f01601f1916602001820160405280156126085781602001600182028038833980820191505090505b50905060006001830390505b6000861461268157600a868161262657fe5b0660300160f81b8282806001900393508151811061264057fe5b60200101907effffffffffffffffffffffffffffffffffffffffffffffffffffffffffffff1916908160001a905350600a868161267957fe5b049550612614565b819450505050505b919050565b60006126af8473ffffffffffffffffffffffffffffffffffffffff16612aed565b6126bc576001905061286f565b60008473ffffffffffffffffffffffffffffffffffffffff1663150b7a02338887876040518563ffffffff1660e01b8152600401808573ffffffffffffffffffffffffffffffffffffffff1673ffffffffffffffffffffffffffffffffffffffff1681526020018473ffffffffffffffffffffffffffffffffffffffff1673ffffffffffffffffffffffffffffffffffffffff16815260200183815260200180602001828103825283818151815260200191508051906020019080838360005b8381101561279757808201518184015260208101905061277c565b50505050905090810190601f1680156127c45780820380516001836020036101000a031916815260200191505b5095505050505050602060405180830381600087803b1580156127e657600080fd5b505af11580156127fa573d6000803e3d6000fd5b505050506040513d602081101561281057600080fd5b8101908080519060200190929190505050905063150b7a0260e01b7bffffffffffffffffffffffffffffffffffffffffffffffffffffffff1916817bffffffffffffffffffffffffffffffffffffffffffffffffffffffff1916149150505b949350505050565b600061288f600160085461202090919063ffffffff16565b600881905550814233600854604051602001808481526020018373ffffffffffffffffffffffffffffffffffffffff1673ffffffffffffffffffffffffffffffffffffffff1660601b815260140182815260200193505050506040516020818303038152906040528051906020012060001c8161290857fe5b069050919050565b6003544201816003018190555050565b600073ffffffffffffffffffffffffffffffffffffffff168173ffffffffffffffffffffffffffffffffffffffff1614156129a6576040517f08c379a0000000000000000000000000000000000000000000000000000000008152600401808060200182810382526026815260200180612c816026913960400191505060405180910390fd5b8073ffffffffffffffffffffffffffffffffffffffff166000809054906101000a900473ffffffffffffffffffffffffffffffffffffffff1673ffffffffffffffffffffffffffffffffffffffff167f8be0079c531659141344cd1fd0a4f28419497f9722a3daafe3b4186f6b6457e060405160405180910390a3806000806101000a81548173ffffffffffffffffffffffffffffffffffffffff021916908373ffffffffffffffffffffffffffffffffffffffff16021790555050565b600082821115612adc576040517f08c379a000000000000000000000000000000000000000000000000000000000815260040180806020018281038252601e8152602001807f536166654d6174683a207375627472616374696f6e206f766572666c6f77000081525060200191505060405180910390fd5b600082840390508091505092915050565b600080823b905060008111915050919050565b828054600181600116156101000203166002900490600052602060002090601f016020900481019282601f10612b4157803560ff1916838001178555612b6f565b82800160010185558215612b6f579182015b82811115612b6e578235825591602001919060010190612b53565b5b509050612b7c9190612c00565b5090565b828054600181600116156101000203166002900490600052602060002090601f016020900481019282601f10612bc157805160ff1916838001178555612bef565b82800160010185558215612bef579182015b82811115612bee578251825591602001919060010190612bd3565b5b509050612bfc9190612c00565b5090565b612c2291905b80821115612c1e576000816000905550600101612c06565b5090565b9056fe4f2076616c6f72207061676f20707265636973612073657220696775616c20612074617861206465204552433732313a207472616e7366657220746f206e6f6e20455243373231526563656976657220696d706c656d656e7465724f776e61626c653a206e6577206f776e657220697320746865207a65726f2061646472657373536f6d656e7465206f20646f6e6f20646f2074617a6f20706f6465207265616c697a617220616c74657261c3a7c3a36f536f6d656e7465206e6f766f7320757375c3a172696f732073656d2074617a6f7320706f64656d20676572617220756d2074617a6f4552433732313a20617070726f76656420717565727920666f72206e6f6e6578697374656e7420746f6b656e557375c3a172696f20656e7669616e646f206f2074617a6f207072656369736172206f20646f6e6f20646f206d65736d6f206f75206f207265636570746f7220746572207369646f206170726f7661646fa165627a7a723058208f57237849ff83d03726215e09654cbfa39ee9deee5af7496a35f7508719c3d00029",
  "source": "pragma solidity ^0.5.0;\r\n\r\nimport \"./TazoBattle.sol\";\r\nimport 'openzeppelin-solidity/contracts/token/ERC721/ERC721.sol';\r\nimport 'openzeppelin-solidity/contracts/math/SafeMath.sol';\r\n\r\ncontract TazoOwnership is TazoBattle, ERC721 {\r\n\r\n    using SafeMath for uint256;\r\n\r\n    mapping (uint => address) tazoApprovals;\r\n\r\n    function balanceOf(address _owner) public view returns (uint256) {\r\n        return ownerTazoCount[_owner];\r\n    }\r\n\r\n    function ownerOf(uint256 _tokenId) public view returns (address) {\r\n        return tazoToOwner[_tokenId];\r\n    }\r\n\r\n    function _transfer(address _from, address _to, uint256 _tokenId) private {\r\n        ownerTazoCount[_to] = ownerTazoCount[_to].add(1);\r\n        ownerTazoCount[msg.sender] = ownerTazoCount[msg.sender].sub(1);\r\n        tazoToOwner[_tokenId] = _to;\r\n        emit Transfer(_from, _to, _tokenId);\r\n    }\r\n\r\n    function transferFrom(address _from, address _to, uint256 _tokenId) public {\r\n        require (tazoToOwner[_tokenId] == msg.sender || tazoApprovals[_tokenId] == msg.sender,\r\n        \"Usurio enviando o tazo precisar o dono do mesmo ou o receptor ter sido aprovado\");\r\n        _transfer(_from, _to, _tokenId);\r\n    }\r\n\r\n    function approve(address _approved, uint256 _tokenId) public onlyOwnerOf(_tokenId) {\r\n        tazoApprovals[_tokenId] = _approved;\r\n        emit Approval(msg.sender, _approved, _tokenId);\r\n  }\r\n\r\n}",
  "sourcePath": "D:/Projects/Cryptazo/truffle project/contracts/TazoOwnership.sol",
  "compiler": {
    "name": "solc",
    "version": "0.5.8+commit.23d335f2.Emscripten.clang"
  },
  "schemaVersion": "3.0.11",
  "updatedAt": "2019-06-26T19:58:30.334Z",
  "devdoc": {
    "methods": {
      "getApproved(uint256)": {
        "details": "Gets the approved address for a token ID, or zero if no address set\r Reverts if the token ID does not exist.\r",
        "params": {
          "tokenId": "uint256 ID of the token to query the approval of\r"
        },
        "return": "address currently approved for the given token ID\r"
      },
      "isApprovedForAll(address,address)": {
        "details": "Tells whether an operator is approved by a given owner.\r",
        "params": {
          "operator": "operator address which you want to query the approval of\r",
          "owner": "owner address which you want to query the approval of\r"
        },
        "return": "bool whether the given operator is approved by the given owner\r"
      },
      "isOwner()": {
        "details": "Returns true if the caller is the current owner.\r"
      },
      "owner()": {
        "details": "Returns the address of the current owner.\r"
      },
      "renounceOwnership()": {
        "details": "Leaves the contract without owner. It will not be possible to call\r `onlyOwner` functions anymore. Can only be called by the current owner.\r      * > Note: Renouncing ownership will leave the contract without an owner,\r thereby removing any functionality that is only available to the owner.\r"
      },
      "safeTransferFrom(address,address,uint256)": {
        "details": "Safely transfers the ownership of a given token ID to another address\r If the target address is a contract, it must implement `onERC721Received`,\r which is called upon a safe transfer, and return the magic value\r `bytes4(keccak256(\"onERC721Received(address,address,uint256,bytes)\"))`; otherwise,\r the transfer is reverted.\r Requires the msg.sender to be the owner, approved, or operator\r",
        "params": {
          "from": "current owner of the token\r",
          "to": "address to receive the ownership of the given token ID\r",
          "tokenId": "uint256 ID of the token to be transferred\r"
        }
      },
      "safeTransferFrom(address,address,uint256,bytes)": {
        "details": "Safely transfers the ownership of a given token ID to another address\r If the target address is a contract, it must implement `onERC721Received`,\r which is called upon a safe transfer, and return the magic value\r `bytes4(keccak256(\"onERC721Received(address,address,uint256,bytes)\"))`; otherwise,\r the transfer is reverted.\r Requires the msg.sender to be the owner, approved, or operator\r",
        "params": {
          "_data": "bytes data to send along with a safe transfer check\r",
          "from": "current owner of the token\r",
          "to": "address to receive the ownership of the given token ID\r",
          "tokenId": "uint256 ID of the token to be transferred\r"
        }
      },
      "setApprovalForAll(address,bool)": {
        "details": "Sets or unsets the approval of a given operator\r An operator is allowed to transfer all tokens of the sender on their behalf.\r",
        "params": {
          "approved": "representing the status of the approval to be set\r",
          "to": "operator address to set the approval\r"
        }
      },
      "supportsInterface(bytes4)": {
        "details": "See `IERC165.supportsInterface`.\r      * Time complexity O(1), guaranteed to always use less than 30 000 gas.\r"
      },
      "transferOwnership(address)": {
        "details": "Transfers ownership of the contract to a new account (`newOwner`).\r Can only be called by the current owner.\r"
      }
    }
  },
  "userdoc": {
    "methods": {}
  }
}