{
  "contractName": "TazoHelper",
  "abi": [
    {
      "constant": false,
      "inputs": [
        {
          "name": "_name",
          "type": "string"
        }
      ],
      "name": "createRandomTazo",
      "outputs": [],
      "payable": false,
      "stateMutability": "nonpayable",
      "type": "function"
    },
    {
      "constant": true,
      "inputs": [
        {
          "name": "",
          "type": "address"
        }
      ],
      "name": "ownerTazoCount",
      "outputs": [
        {
          "name": "",
          "type": "uint256"
        }
      ],
      "payable": false,
      "stateMutability": "view",
      "type": "function"
    },
    {
      "constant": true,
      "inputs": [
        {
          "name": "",
          "type": "uint256"
        }
      ],
      "name": "tazoToOwner",
      "outputs": [
        {
          "name": "",
          "type": "address"
        }
      ],
      "payable": false,
      "stateMutability": "view",
      "type": "function"
    },
    {
      "constant": true,
      "inputs": [
        {
          "name": "",
          "type": "uint256"
        }
      ],
      "name": "tazos",
      "outputs": [
        {
          "name": "name",
          "type": "string"
        },
        {
          "name": "dna",
          "type": "uint256"
        },
        {
          "name": "level",
          "type": "uint256"
        },
        {
          "name": "cooldown",
          "type": "uint256"
        },
        {
          "name": "winCount",
          "type": "uint256"
        },
        {
          "name": "forSale",
          "type": "bool"
        },
        {
          "name": "price",
          "type": "uint256"
        }
      ],
      "payable": false,
      "stateMutability": "view",
      "type": "function"
    },
    {
      "constant": false,
      "inputs": [],
      "name": "renounceOwnership",
      "outputs": [],
      "payable": false,
      "stateMutability": "nonpayable",
      "type": "function"
    },
    {
      "constant": true,
      "inputs": [],
      "name": "owner",
      "outputs": [
        {
          "name": "",
          "type": "address"
        }
      ],
      "payable": false,
      "stateMutability": "view",
      "type": "function"
    },
    {
      "constant": true,
      "inputs": [],
      "name": "isOwner",
      "outputs": [
        {
          "name": "",
          "type": "bool"
        }
      ],
      "payable": false,
      "stateMutability": "view",
      "type": "function"
    },
    {
      "constant": false,
      "inputs": [
        {
          "name": "newOwner",
          "type": "address"
        }
      ],
      "name": "transferOwnership",
      "outputs": [],
      "payable": false,
      "stateMutability": "nonpayable",
      "type": "function"
    },
    {
      "anonymous": false,
      "inputs": [
        {
          "indexed": false,
          "name": "tazoId",
          "type": "uint256"
        },
        {
          "indexed": false,
          "name": "name",
          "type": "string"
        },
        {
          "indexed": false,
          "name": "dna",
          "type": "uint256"
        }
      ],
      "name": "NewTazo",
      "type": "event"
    },
    {
      "anonymous": false,
      "inputs": [
        {
          "indexed": true,
          "name": "previousOwner",
          "type": "address"
        },
        {
          "indexed": true,
          "name": "newOwner",
          "type": "address"
        }
      ],
      "name": "OwnershipTransferred",
      "type": "event"
    },
    {
      "constant": false,
      "inputs": [
        {
          "name": "_fee",
          "type": "uint256"
        }
      ],
      "name": "setLevelUpFee",
      "outputs": [],
      "payable": false,
      "stateMutability": "nonpayable",
      "type": "function"
    },
    {
      "constant": true,
      "inputs": [],
      "name": "getLevelUpFee",
      "outputs": [
        {
          "name": "",
          "type": "uint256"
        }
      ],
      "payable": false,
      "stateMutability": "view",
      "type": "function"
    },
    {
      "constant": false,
      "inputs": [
        {
          "name": "_tazoId",
          "type": "uint256"
        }
      ],
      "name": "levelUp",
      "outputs": [],
      "payable": true,
      "stateMutability": "payable",
      "type": "function"
    },
    {
      "constant": false,
      "inputs": [
        {
          "name": "_tazoId",
          "type": "uint256"
        },
        {
          "name": "_newName",
          "type": "string"
        }
      ],
      "name": "changeName",
      "outputs": [],
      "payable": false,
      "stateMutability": "nonpayable",
      "type": "function"
    },
    {
      "constant": true,
      "inputs": [
        {
          "name": "_owner",
          "type": "address"
        }
      ],
      "name": "getTazosByOwner",
      "outputs": [
        {
          "name": "",
          "type": "uint256[]"
        }
      ],
      "payable": false,
      "stateMutability": "view",
      "type": "function"
    }
  ],
  "bytecode": "0x60806040526010600155600154600a0a60025562015180600355655af3107a4000600755336000806101000a81548173ffffffffffffffffffffffffffffffffffffffff021916908373ffffffffffffffffffffffffffffffffffffffff1602179055506000809054906101000a900473ffffffffffffffffffffffffffffffffffffffff1673ffffffffffffffffffffffffffffffffffffffff16600073ffffffffffffffffffffffffffffffffffffffff167f8be0079c531659141344cd1fd0a4f28419497f9722a3daafe3b4186f6b6457e060405160405180910390a3611507806100ee6000396000f3fe6080604052600436106100c25760003560e01c80636b2f60c81161007f5780638f32d59b116100595780638f32d59b146104be578063c39cbef1146104ed578063ccf670f81461057d578063f2fde38b146105b8576100c2565b80636b2f60c814610425578063715018a6146104505780638da5cb5b14610467576100c2565b80630ce90ec2146100c757806326ff8bcc146100f5578063278892d51461019b5780632cafebb7146102635780635a800dbd146102c8578063697c3e5f14610343575b600080fd5b6100f3600480360360208110156100dd57600080fd5b8101908080359060200190929190505050610609565b005b34801561010157600080fd5b506101446004803603602081101561011857600080fd5b81019080803573ffffffffffffffffffffffffffffffffffffffff169060200190929190505050610739565b6040518080602001828103825283818151815260200191508051906020019060200280838360005b8381101561018757808201518184015260208101905061016c565b505050509050019250505060405180910390f35b3480156101a757600080fd5b50610261600480360360208110156101be57600080fd5b81019080803590602001906401000000008111156101db57600080fd5b8201836020820111156101ed57600080fd5b8035906020019184600183028401116401000000008311171561020f57600080fd5b91908080601f016020809104026020016040519081016040528093929190818152602001838380828437600081840152601f19601f820116905080830192505050505050509192919290505050610866565b005b34801561026f57600080fd5b506102b26004803603602081101561028657600080fd5b81019080803573ffffffffffffffffffffffffffffffffffffffff169060200190929190505050610929565b6040518082815260200191505060405180910390f35b3480156102d457600080fd5b50610301600480360360208110156102eb57600080fd5b8101908080359060200190929190505050610941565b604051808273ffffffffffffffffffffffffffffffffffffffff1673ffffffffffffffffffffffffffffffffffffffff16815260200191505060405180910390f35b34801561034f57600080fd5b5061037c6004803603602081101561036657600080fd5b8101908080359060200190929190505050610974565b604051808060200188815260200187815260200186815260200185815260200184151515158152602001838152602001828103825289818151815260200191508051906020019080838360005b838110156103e45780820151818401526020810190506103c9565b50505050905090810190601f1680156104115780820380516001836020036101000a031916815260200191505b509850505050505050505060405180910390f35b34801561043157600080fd5b5061043a610a68565b6040518082815260200191505060405180910390f35b34801561045c57600080fd5b50610465610a72565b005b34801561047357600080fd5b5061047c610bab565b604051808273ffffffffffffffffffffffffffffffffffffffff1673ffffffffffffffffffffffffffffffffffffffff16815260200191505060405180910390f35b3480156104ca57600080fd5b506104d3610bd4565b604051808215151515815260200191505060405180910390f35b3480156104f957600080fd5b5061057b6004803603604081101561051057600080fd5b81019080803590602001909291908035906020019064010000000081111561053757600080fd5b82018360208201111561054957600080fd5b8035906020019184600183028401116401000000008311171561056b57600080fd5b9091929391929390505050610c2b565b005b34801561058957600080fd5b506105b6600480360360208110156105a057600080fd5b8101908080359060200190929190505050610d17565b005b3480156105c457600080fd5b50610607600480360360208110156105db57600080fd5b81019080803573ffffffffffffffffffffffffffffffffffffffff169060200190929190505050610d9b565b005b6007543414600754604051602001808061142860299139602901828152602001915050604051602081830303815290604052906106e1576040517f08c379a00000000000000000000000000000000000000000000000000000000081526004018080602001828103825283818151815260200191508051906020019080838360005b838110156106a657808201518184015260208101905061068b565b50505050905090810190601f1680156106d35780820380516001836020036101000a031916815260200191505b509250505060405180910390fd5b506107146001600483815481106106f457fe5b906000526020600020906007020160020154610e2190919063ffffffff16565b6004828154811061072157fe5b90600052602060002090600702016002018190555050565b606080600660008473ffffffffffffffffffffffffffffffffffffffff1673ffffffffffffffffffffffffffffffffffffffff168152602001908152602001600020546040519080825280602002602001820160405280156107aa5781602001602082028038833980820191505090505b509050600080905060008090505b60048054905081101561085b578473ffffffffffffffffffffffffffffffffffffffff166005600083815260200190815260200160002060009054906101000a900473ffffffffffffffffffffffffffffffffffffffff1673ffffffffffffffffffffffffffffffffffffffff16141561084e578083838151811061083957fe5b60200260200101818152505081806001019250505b80806001019150506107b8565b508192505050919050565b6000600660003373ffffffffffffffffffffffffffffffffffffffff1673ffffffffffffffffffffffffffffffffffffffff16815260200190815260200160002054146108fe576040517f08c379a00000000000000000000000000000000000000000000000000000000081526004018080602001828103825260358152602001806114a76035913960400191505060405180910390fd5b600061090982610ea9565b90506064818161091557fe5b06810390506109248282610f37565b505050565b60066020528060005260406000206000915090505481565b60056020528060005260406000206000915054906101000a900473ffffffffffffffffffffffffffffffffffffffff1681565b6004818154811061098157fe5b9060005260206000209060070201600091509050806000018054600181600116156101000203166002900480601f016020809104026020016040519081016040528092919081815260200182805460018160011615610100020316600290048015610a2d5780601f10610a0257610100808354040283529160200191610a2d565b820191906000526020600020905b815481529060010190602001808311610a1057829003601f168201915b5050505050908060010154908060020154908060030154908060040154908060050160009054906101000a900460ff16908060060154905087565b6000600754905090565b610a7a610bd4565b610aec576040517f08c379a00000000000000000000000000000000000000000000000000000000081526004018080602001828103825260208152602001807f4f776e61626c653a2063616c6c6572206973206e6f7420746865206f776e657281525060200191505060405180910390fd5b600073ffffffffffffffffffffffffffffffffffffffff166000809054906101000a900473ffffffffffffffffffffffffffffffffffffffff1673ffffffffffffffffffffffffffffffffffffffff167f8be0079c531659141344cd1fd0a4f28419497f9722a3daafe3b4186f6b6457e060405160405180910390a360008060006101000a81548173ffffffffffffffffffffffffffffffffffffffff021916908373ffffffffffffffffffffffffffffffffffffffff160217905550565b60008060009054906101000a900473ffffffffffffffffffffffffffffffffffffffff16905090565b60008060009054906101000a900473ffffffffffffffffffffffffffffffffffffffff1673ffffffffffffffffffffffffffffffffffffffff163373ffffffffffffffffffffffffffffffffffffffff1614905090565b826005600082815260200190815260200160002060009054906101000a900473ffffffffffffffffffffffffffffffffffffffff1673ffffffffffffffffffffffffffffffffffffffff163373ffffffffffffffffffffffffffffffffffffffff1614610ce3576040517f08c379a00000000000000000000000000000000000000000000000000000000081526004018080602001828103825260308152602001806114776030913960400191505060405180910390fd5b828260048681548110610cf257fe5b90600052602060002090600702016000019190610d10929190611302565b5050505050565b610d1f610bd4565b610d91576040517f08c379a00000000000000000000000000000000000000000000000000000000081526004018080602001828103825260208152602001807f4f776e61626c653a2063616c6c6572206973206e6f7420746865206f776e657281525060200191505060405180910390fd5b8060078190555050565b610da3610bd4565b610e15576040517f08c379a00000000000000000000000000000000000000000000000000000000081526004018080602001828103825260208152602001807f4f776e61626c653a2063616c6c6572206973206e6f7420746865206f776e657281525060200191505060405180910390fd5b610e1e816111be565b50565b600080828401905083811015610e9f576040517f08c379a000000000000000000000000000000000000000000000000000000000815260040180806020018281038252601b8152602001807f536166654d6174683a206164646974696f6e206f766572666c6f77000000000081525060200191505060405180910390fd5b8091505092915050565b600080826040516020018082805190602001908083835b60208310610ee35780518252602082019150602081019050602083039250610ec0565b6001836020036101000a0380198251168184511680821785525050505050509050019150506040516020818303038152906040528051906020012060001c90506002548181610f2e57fe5b06915050919050565b600080600160046040518060e0016040528087815260200186815260200160018152602001600354420163ffffffff168152602001600081526020016000151581526020016000815250908060018154018082558091505090600182039060005260206000209060070201600090919290919091506000820151816000019080519060200190610fc8929190611382565b506020820151816001015560408201518160020155606082015181600301556080820151816004015560a08201518160050160006101000a81548160ff02191690831515021790555060c082015181600601555050039050336005600083815260200190815260200160002060006101000a81548173ffffffffffffffffffffffffffffffffffffffff021916908373ffffffffffffffffffffffffffffffffffffffff1602179055506110c56001600660003373ffffffffffffffffffffffffffffffffffffffff1673ffffffffffffffffffffffffffffffffffffffff16815260200190815260200160002054610e2190919063ffffffff16565b600660003373ffffffffffffffffffffffffffffffffffffffff1673ffffffffffffffffffffffffffffffffffffffff168152602001908152602001600020819055507f5117ea76edf4ff070cb57b55682b9c0135dbbe437d78a71c5b5612a4d9dd25e68185856040518084815260200180602001838152602001828103825284818151815260200191508051906020019080838360005b8381101561117857808201518184015260208101905061115d565b50505050905090810190601f1680156111a55780820380516001836020036101000a031916815260200191505b5094505050505060405180910390a18091505092915050565b600073ffffffffffffffffffffffffffffffffffffffff168173ffffffffffffffffffffffffffffffffffffffff161415611244576040517f08c379a00000000000000000000000000000000000000000000000000000000081526004018080602001828103825260268152602001806114516026913960400191505060405180910390fd5b8073ffffffffffffffffffffffffffffffffffffffff166000809054906101000a900473ffffffffffffffffffffffffffffffffffffffff1673ffffffffffffffffffffffffffffffffffffffff167f8be0079c531659141344cd1fd0a4f28419497f9722a3daafe3b4186f6b6457e060405160405180910390a3806000806101000a81548173ffffffffffffffffffffffffffffffffffffffff021916908373ffffffffffffffffffffffffffffffffffffffff16021790555050565b828054600181600116156101000203166002900490600052602060002090601f016020900481019282601f1061134357803560ff1916838001178555611371565b82800160010185558215611371579182015b82811115611370578235825591602001919060010190611355565b5b50905061137e9190611402565b5090565b828054600181600116156101000203166002900490600052602060002090601f016020900481019282601f106113c357805160ff19168380011785556113f1565b828001600101855582156113f1579182015b828111156113f05782518255916020019190600101906113d5565b5b5090506113fe9190611402565b5090565b61142491905b80821115611420576000816000905550600101611408565b5090565b9056fe4f2076616c6f72207061676f20707265636973612073657220696775616c20612074617861206465204f776e61626c653a206e6577206f776e657220697320746865207a65726f2061646472657373536f6d656e7465206f20646f6e6f20646f2074617a6f20706f6465207265616c697a617220616c74657261c3a7c3a36f536f6d656e7465206e6f766f7320757375c3a172696f732073656d2074617a6f7320706f64656d20676572617220756d2074617a6fa165627a7a72305820107dbc64b8c8e2c4d05d990cc41ab4aca59c9b34716bbe1258c38ef36946f97f0029",
  "source": "pragma solidity ^0.5.0;\r\n\r\nimport \"./TazoFuse.sol\";\r\nimport 'openzeppelin-solidity/contracts/ownership/Ownable.sol';\r\n//import 'github.com/OpenZeppelin/openzeppelin-solidity/contracts/ownership/Ownable.sol';\r\n\r\ncontract TazoHelper is TazoFuse {\r\n    uint levelUpFee = 0.0001 ether;\r\n\r\n    modifier aboveLevel(uint _level, uint _tazoId) {\r\n    require(tazos[_tazoId].level >= _level, string(abi.encodePacked(\"O level do tazo precisa ser maior que \", _level)));\r\n    _;\r\n  }\r\n\r\n    function setLevelUpFee(uint _fee) external onlyOwner {\r\n        levelUpFee = _fee;\r\n    }\r\n\r\n    function getLevelUpFee() external view returns(uint){\r\n      return levelUpFee;\r\n    }\r\n\r\n    function levelUp(uint _tazoId) external payable {\r\n        require(msg.value == levelUpFee, string(abi.encodePacked(\"O valor pago precisa ser igual a taxa de \", levelUpFee)));\r\n        tazos[_tazoId].level = tazos[_tazoId].level.add(1);\r\n    }\r\n\r\n    function changeName(uint _tazoId, string calldata _newName) external onlyOwnerOf(_tazoId) {\r\n        tazos[_tazoId].name = _newName;\r\n    }\r\n\r\n    function getTazosByOwner(address _owner) external view returns(uint[] memory) {\r\n    uint[] memory result = new uint[](ownerTazoCount[_owner]);\r\n    uint counter = 0;\r\n    for (uint i = 0; i < tazos.length; i++) {\r\n      if (tazoToOwner[i] == _owner) {\r\n        result[counter] = i;\r\n        counter++;\r\n      }\r\n    }\r\n    return result;\r\n  }\r\n\r\n  function _uint2str(uint _i) internal pure returns (string memory _uintAsString) {\r\n    if (_i == 0) {\r\n        return \"0\";\r\n    }\r\n    uint j = _i;\r\n    uint len;\r\n    while (j != 0) {\r\n        len++;\r\n        j /= 10;\r\n    }\r\n    bytes memory bstr = new bytes(len);\r\n    uint k = len - 1;\r\n    while (_i != 0) {\r\n        bstr[k--] = byte(uint8(48 + _i % 10));\r\n        _i /= 10;\r\n    }\r\n    return string(bstr);\r\n  }\r\n\r\n  /* function getTazos() public view returns(string memory) {\r\n    uint[] memory result = new uint[](tazos.length);\r\n    uint counter = 0;\r\n    for (uint i = 0; i < tazos.length; i++) {\r\n        result[counter] = i;\r\n        counter++;\r\n    }\r\n    return _uint2str(tazos.length);\r\n  } */\r\n\r\n}",
  "sourcePath": "D:\\Projects\\Cryptazo\\truffle project\\contracts\\TazoHelper.sol",
  "compiler": {
    "name": "solc",
    "version": "0.5.8+commit.23d335f2.Emscripten.clang"
  },
  "schemaVersion": "3.0.11",
  "updatedAt": "2019-07-10T19:47:32.380Z",
  "devdoc": {
    "methods": {
      "isOwner()": {
        "details": "Returns true if the caller is the current owner.\r"
      },
      "owner()": {
        "details": "Returns the address of the current owner.\r"
      },
      "renounceOwnership()": {
        "details": "Leaves the contract without owner. It will not be possible to call\r `onlyOwner` functions anymore. Can only be called by the current owner.\r      * > Note: Renouncing ownership will leave the contract without an owner,\r thereby removing any functionality that is only available to the owner.\r"
      },
      "transferOwnership(address)": {
        "details": "Transfers ownership of the contract to a new account (`newOwner`).\r Can only be called by the current owner.\r"
      }
    }
  },
  "userdoc": {
    "methods": {}
  }
}