{
  "contractName": "TazoBattle",
  "abi": [
    {
      "constant": false,
      "inputs": [
        {
          "name": "_tazoId",
          "type": "uint256"
        }
      ],
      "name": "levelUp",
      "outputs": [],
      "payable": true,
      "stateMutability": "payable",
      "type": "function"
    },
    {
      "constant": true,
      "inputs": [
        {
          "name": "_owner",
          "type": "address"
        }
      ],
      "name": "getTazosByOwner",
      "outputs": [
        {
          "name": "",
          "type": "uint256[]"
        }
      ],
      "payable": false,
      "stateMutability": "view",
      "type": "function"
    },
    {
      "constant": false,
      "inputs": [
        {
          "name": "_name",
          "type": "string"
        }
      ],
      "name": "createRandomTazo",
      "outputs": [],
      "payable": false,
      "stateMutability": "nonpayable",
      "type": "function"
    },
    {
      "constant": true,
      "inputs": [
        {
          "name": "",
          "type": "address"
        }
      ],
      "name": "ownerTazoCount",
      "outputs": [
        {
          "name": "",
          "type": "uint256"
        }
      ],
      "payable": false,
      "stateMutability": "view",
      "type": "function"
    },
    {
      "constant": true,
      "inputs": [
        {
          "name": "",
          "type": "uint256"
        }
      ],
      "name": "tazoToOwner",
      "outputs": [
        {
          "name": "",
          "type": "address"
        }
      ],
      "payable": false,
      "stateMutability": "view",
      "type": "function"
    },
    {
      "constant": true,
      "inputs": [
        {
          "name": "",
          "type": "uint256"
        }
      ],
      "name": "tazos",
      "outputs": [
        {
          "name": "name",
          "type": "string"
        },
        {
          "name": "dna",
          "type": "uint256"
        },
        {
          "name": "level",
          "type": "uint256"
        },
        {
          "name": "cooldown",
          "type": "uint256"
        },
        {
          "name": "winCount",
          "type": "uint256"
        }
      ],
      "payable": false,
      "stateMutability": "view",
      "type": "function"
    },
    {
      "constant": false,
      "inputs": [],
      "name": "renounceOwnership",
      "outputs": [],
      "payable": false,
      "stateMutability": "nonpayable",
      "type": "function"
    },
    {
      "constant": true,
      "inputs": [],
      "name": "owner",
      "outputs": [
        {
          "name": "",
          "type": "address"
        }
      ],
      "payable": false,
      "stateMutability": "view",
      "type": "function"
    },
    {
      "constant": true,
      "inputs": [],
      "name": "isOwner",
      "outputs": [
        {
          "name": "",
          "type": "bool"
        }
      ],
      "payable": false,
      "stateMutability": "view",
      "type": "function"
    },
    {
      "constant": false,
      "inputs": [
        {
          "name": "_tazoId",
          "type": "uint256"
        },
        {
          "name": "_newName",
          "type": "string"
        }
      ],
      "name": "changeName",
      "outputs": [],
      "payable": false,
      "stateMutability": "nonpayable",
      "type": "function"
    },
    {
      "constant": false,
      "inputs": [
        {
          "name": "_fee",
          "type": "uint256"
        }
      ],
      "name": "setLevelUpFee",
      "outputs": [],
      "payable": false,
      "stateMutability": "nonpayable",
      "type": "function"
    },
    {
      "constant": false,
      "inputs": [
        {
          "name": "newOwner",
          "type": "address"
        }
      ],
      "name": "transferOwnership",
      "outputs": [],
      "payable": false,
      "stateMutability": "nonpayable",
      "type": "function"
    },
    {
      "anonymous": false,
      "inputs": [
        {
          "indexed": false,
          "name": "tazoId",
          "type": "uint256"
        },
        {
          "indexed": false,
          "name": "name",
          "type": "string"
        },
        {
          "indexed": false,
          "name": "dna",
          "type": "uint256"
        }
      ],
      "name": "NewTazo",
      "type": "event"
    },
    {
      "anonymous": false,
      "inputs": [
        {
          "indexed": true,
          "name": "previousOwner",
          "type": "address"
        },
        {
          "indexed": true,
          "name": "newOwner",
          "type": "address"
        }
      ],
      "name": "OwnershipTransferred",
      "type": "event"
    },
    {
      "constant": false,
      "inputs": [
        {
          "name": "_tazoId",
          "type": "uint256"
        }
      ],
      "name": "getTazoPower",
      "outputs": [
        {
          "name": "",
          "type": "uint256"
        }
      ],
      "payable": false,
      "stateMutability": "nonpayable",
      "type": "function"
    },
    {
      "constant": false,
      "inputs": [
        {
          "name": "_tazoId",
          "type": "uint256"
        },
        {
          "name": "_targetId",
          "type": "uint256"
        }
      ],
      "name": "attack",
      "outputs": [],
      "payable": false,
      "stateMutability": "nonpayable",
      "type": "function"
    }
  ],
  "bytecode": "0x60806040526010600155600154600a0a60025562015180600355655af3107a40006007556000600855336000806101000a81548173ffffffffffffffffffffffffffffffffffffffff021916908373ffffffffffffffffffffffffffffffffffffffff1602179055506000809054906101000a900473ffffffffffffffffffffffffffffffffffffffff1673ffffffffffffffffffffffffffffffffffffffff16600073ffffffffffffffffffffffffffffffffffffffff167f8be0079c531659141344cd1fd0a4f28419497f9722a3daafe3b4186f6b6457e060405160405180910390a3611952806100f36000396000f3fe6080604052600436106100dd5760003560e01c80638da5cb5b1161007f578063ccf670f811610059578063ccf670f81461055b578063e1fa763814610596578063e7927ab1146105db578063f2fde38b1461062a576100dd565b80638da5cb5b146104455780638f32d59b1461049c578063c39cbef1146104cb576100dd565b80632cafebb7116100bb5780632cafebb71461027e5780635a800dbd146102e3578063697c3e5f1461035e578063715018a61461042e576100dd565b80630ce90ec2146100e257806326ff8bcc14610110578063278892d5146101b6575b600080fd5b61010e600480360360208110156100f857600080fd5b810190808035906020019092919050505061067b565b005b34801561011c57600080fd5b5061015f6004803603602081101561013357600080fd5b81019080803573ffffffffffffffffffffffffffffffffffffffff1690602001909291905050506107ab565b6040518080602001828103825283818151815260200191508051906020019060200280838360005b838110156101a2578082015181840152602081019050610187565b505050509050019250505060405180910390f35b3480156101c257600080fd5b5061027c600480360360208110156101d957600080fd5b81019080803590602001906401000000008111156101f657600080fd5b82018360208201111561020857600080fd5b8035906020019184600183028401116401000000008311171561022a57600080fd5b91908080601f016020809104026020016040519081016040528093929190818152602001838380828437600081840152601f19601f8201169050808301925050505050505091929192905050506108d8565b005b34801561028a57600080fd5b506102cd600480360360208110156102a157600080fd5b81019080803573ffffffffffffffffffffffffffffffffffffffff16906020019092919050505061099b565b6040518082815260200191505060405180910390f35b3480156102ef57600080fd5b5061031c6004803603602081101561030657600080fd5b81019080803590602001909291905050506109b3565b604051808273ffffffffffffffffffffffffffffffffffffffff1673ffffffffffffffffffffffffffffffffffffffff16815260200191505060405180910390f35b34801561036a57600080fd5b506103976004803603602081101561038157600080fd5b81019080803590602001909291905050506109e6565b6040518080602001868152602001858152602001848152602001838152602001828103825287818151815260200191508051906020019080838360005b838110156103ef5780820151818401526020810190506103d4565b50505050905090810190601f16801561041c5780820380516001836020036101000a031916815260200191505b50965050505050505060405180910390f35b34801561043a57600080fd5b50610443610ac1565b005b34801561045157600080fd5b5061045a610bfa565b604051808273ffffffffffffffffffffffffffffffffffffffff1673ffffffffffffffffffffffffffffffffffffffff16815260200191505060405180910390f35b3480156104a857600080fd5b506104b1610c23565b604051808215151515815260200191505060405180910390f35b3480156104d757600080fd5b50610559600480360360408110156104ee57600080fd5b81019080803590602001909291908035906020019064010000000081111561051557600080fd5b82018360208201111561052757600080fd5b8035906020019184600183028401116401000000008311171561054957600080fd5b9091929391929390505050610c7a565b005b34801561056757600080fd5b506105946004803603602081101561057e57600080fd5b8101908080359060200190929190505050610d66565b005b3480156105a257600080fd5b506105d9600480360360408110156105b957600080fd5b810190808035906020019092919080359060200190929190505050610dea565b005b3480156105e757600080fd5b50610614600480360360208110156105fe57600080fd5b810190808035906020019092919050505061110c565b6040518082815260200191505060405180910390f35b34801561063657600080fd5b506106796004803603602081101561064d57600080fd5b81019080803573ffffffffffffffffffffffffffffffffffffffff169060200190929190505050611177565b005b600754341460075460405160200180806118736029913960290182815260200191505060405160208183030381529060405290610753576040517f08c379a00000000000000000000000000000000000000000000000000000000081526004018080602001828103825283818151815260200191508051906020019080838360005b838110156107185780820151818401526020810190506106fd565b50505050905090810190601f1680156107455780820380516001836020036101000a031916815260200191505b509250505060405180910390fd5b5061078660016004838154811061076657fe5b9060005260206000209060050201600201546111fd90919063ffffffff16565b6004828154811061079357fe5b90600052602060002090600502016002018190555050565b606080600660008473ffffffffffffffffffffffffffffffffffffffff1673ffffffffffffffffffffffffffffffffffffffff1681526020019081526020016000205460405190808252806020026020018201604052801561081c5781602001602082028038833980820191505090505b509050600080905060008090505b6004805490508110156108cd578473ffffffffffffffffffffffffffffffffffffffff166005600083815260200190815260200160002060009054906101000a900473ffffffffffffffffffffffffffffffffffffffff1673ffffffffffffffffffffffffffffffffffffffff1614156108c057808383815181106108ab57fe5b60200260200101818152505081806001019250505b808060010191505061082a565b508192505050919050565b6000600660003373ffffffffffffffffffffffffffffffffffffffff1673ffffffffffffffffffffffffffffffffffffffff1681526020019081526020016000205414610970576040517f08c379a00000000000000000000000000000000000000000000000000000000081526004018080602001828103825260358152602001806118f26035913960400191505060405180910390fd5b600061097b82611285565b90506064818161098757fe5b06810390506109968282611313565b505050565b60066020528060005260406000206000915090505481565b60056020528060005260406000206000915054906101000a900473ffffffffffffffffffffffffffffffffffffffff1681565b600481815481106109f357fe5b9060005260206000209060050201600091509050806000018054600181600116156101000203166002900480601f016020809104026020016040519081016040528092919081815260200182805460018160011615610100020316600290048015610a9f5780601f10610a7457610100808354040283529160200191610a9f565b820191906000526020600020905b815481529060010190602001808311610a8257829003601f168201915b5050505050908060010154908060020154908060030154908060040154905085565b610ac9610c23565b610b3b576040517f08c379a00000000000000000000000000000000000000000000000000000000081526004018080602001828103825260208152602001807f4f776e61626c653a2063616c6c6572206973206e6f7420746865206f776e657281525060200191505060405180910390fd5b600073ffffffffffffffffffffffffffffffffffffffff166000809054906101000a900473ffffffffffffffffffffffffffffffffffffffff1673ffffffffffffffffffffffffffffffffffffffff167f8be0079c531659141344cd1fd0a4f28419497f9722a3daafe3b4186f6b6457e060405160405180910390a360008060006101000a81548173ffffffffffffffffffffffffffffffffffffffff021916908373ffffffffffffffffffffffffffffffffffffffff160217905550565b60008060009054906101000a900473ffffffffffffffffffffffffffffffffffffffff16905090565b60008060009054906101000a900473ffffffffffffffffffffffffffffffffffffffff1673ffffffffffffffffffffffffffffffffffffffff163373ffffffffffffffffffffffffffffffffffffffff1614905090565b826005600082815260200190815260200160002060009054906101000a900473ffffffffffffffffffffffffffffffffffffffff1673ffffffffffffffffffffffffffffffffffffffff163373ffffffffffffffffffffffffffffffffffffffff1614610d32576040517f08c379a00000000000000000000000000000000000000000000000000000000081526004018080602001828103825260308152602001806118c26030913960400191505060405180910390fd5b828260048681548110610d4157fe5b90600052602060002090600502016000019190610d5f92919061174d565b5050505050565b610d6e610c23565b610de0576040517f08c379a00000000000000000000000000000000000000000000000000000000081526004018080602001828103825260208152602001807f4f776e61626c653a2063616c6c6572206973206e6f7420746865206f776e657281525060200191505060405180910390fd5b8060078190555050565b816005600082815260200190815260200160002060009054906101000a900473ffffffffffffffffffffffffffffffffffffffff1673ffffffffffffffffffffffffffffffffffffffff163373ffffffffffffffffffffffffffffffffffffffff1614610ea2576040517f08c379a00000000000000000000000000000000000000000000000000000000081526004018080602001828103825260308152602001806118c26030913960400191505060405180910390fd5b600060048481548110610eb157fe5b90600052602060002090600502019050600060048481548110610ed057fe5b906000526020600020906005020190506000610eec6064611560565b90506000806000846002015486600201540390507ffffffffffffffffffffffffffffffffffffffffffffffffffffffffffffffff88111610f345760079250600c915061106c565b7ffffffffffffffffffffffffffffffffffffffffffffffffffffffffffffffffb8111158015610f8357507ffffffffffffffffffffffffffffffffffffffffffffffffffffffffffffffff881115b15610f9557600e92506009915061106b565b600081108015610fc457507ffffffffffffffffffffffffffffffffffffffffffffffffffffffffffffffffb81115b15610fd657601492506007915061106a565b806000108015610fe65750600581105b15610ff857603c925060049150611069565b806005111580156110095750600881105b1561101b576046925060039150611068565b8060081115801561102c5750600a81105b1561103e576050925060029150611067565b600a8110611053576055925060019150611066565b60008114156110655760329250600491505b5b5b5b5b5b5b5b8284116110b75761108b600187600401546111fd90919063ffffffff16565b86600401819055506110aa8287600201546111fd90919063ffffffff16565b86600201819055506110f8565b6110cf600186600401546111fd90919063ffffffff16565b85600401819055506110ef600186600201546111fd90919063ffffffff16565b85600201819055505b611101866115f9565b505050505050505050565b6000806004838154811061111c57fe5b90600052602060002090600502016001015490506000612710828161113d57fe5b0690506004848154811061114d57fe5b90600052602060002090600502016002015460016005838161116b57fe5b06010292505050919050565b61117f610c23565b6111f1576040517f08c379a00000000000000000000000000000000000000000000000000000000081526004018080602001828103825260208152602001807f4f776e61626c653a2063616c6c6572206973206e6f7420746865206f776e657281525060200191505060405180910390fd5b6111fa81611609565b50565b60008082840190508381101561127b576040517f08c379a000000000000000000000000000000000000000000000000000000000815260040180806020018281038252601b8152602001807f536166654d6174683a206164646974696f6e206f766572666c6f77000000000081525060200191505060405180910390fd5b8091505092915050565b600080826040516020018082805190602001908083835b602083106112bf578051825260208201915060208101905060208303925061129c565b6001836020036101000a0380198251168184511680821785525050505050509050019150506040516020818303038152906040528051906020012060001c9050600254818161130a57fe5b06915050919050565b600080600160046040518060a0016040528087815260200186815260200160018152602001600354420163ffffffff16815260200160008152509080600181540180825580915050906001820390600052602060002090600502016000909192909190915060008201518160000190805190602001906113949291906117cd565b50602082015181600101556040820151816002015560608201518160030155608082015181600401555050039050336005600083815260200190815260200160002060006101000a81548173ffffffffffffffffffffffffffffffffffffffff021916908373ffffffffffffffffffffffffffffffffffffffff1602179055506114676001600660003373ffffffffffffffffffffffffffffffffffffffff1673ffffffffffffffffffffffffffffffffffffffff168152602001908152602001600020546111fd90919063ffffffff16565b600660003373ffffffffffffffffffffffffffffffffffffffff1673ffffffffffffffffffffffffffffffffffffffff168152602001908152602001600020819055507f5117ea76edf4ff070cb57b55682b9c0135dbbe437d78a71c5b5612a4d9dd25e68185856040518084815260200180602001838152602001828103825284818151815260200191508051906020019080838360005b8381101561151a5780820151818401526020810190506114ff565b50505050905090810190601f1680156115475780820380516001836020036101000a031916815260200191505b5094505050505060405180910390a18091505092915050565b600061157860016008546111fd90919063ffffffff16565b600881905550814233600854604051602001808481526020018373ffffffffffffffffffffffffffffffffffffffff1673ffffffffffffffffffffffffffffffffffffffff1660601b815260140182815260200193505050506040516020818303038152906040528051906020012060001c816115f157fe5b069050919050565b6003544201816003018190555050565b600073ffffffffffffffffffffffffffffffffffffffff168173ffffffffffffffffffffffffffffffffffffffff16141561168f576040517f08c379a000000000000000000000000000000000000000000000000000000000815260040180806020018281038252602681526020018061189c6026913960400191505060405180910390fd5b8073ffffffffffffffffffffffffffffffffffffffff166000809054906101000a900473ffffffffffffffffffffffffffffffffffffffff1673ffffffffffffffffffffffffffffffffffffffff167f8be0079c531659141344cd1fd0a4f28419497f9722a3daafe3b4186f6b6457e060405160405180910390a3806000806101000a81548173ffffffffffffffffffffffffffffffffffffffff021916908373ffffffffffffffffffffffffffffffffffffffff16021790555050565b828054600181600116156101000203166002900490600052602060002090601f016020900481019282601f1061178e57803560ff19168380011785556117bc565b828001600101855582156117bc579182015b828111156117bb5782358255916020019190600101906117a0565b5b5090506117c9919061184d565b5090565b828054600181600116156101000203166002900490600052602060002090601f016020900481019282601f1061180e57805160ff191683800117855561183c565b8280016001018555821561183c579182015b8281111561183b578251825591602001919060010190611820565b5b509050611849919061184d565b5090565b61186f91905b8082111561186b576000816000905550600101611853565b5090565b9056fe4f2076616c6f72207061676f20707265636973612073657220696775616c20612074617861206465204f776e61626c653a206e6577206f776e657220697320746865207a65726f2061646472657373536f6d656e7465206f20646f6e6f20646f2074617a6f20706f6465207265616c697a617220616c74657261c3a7c3a36f536f6d656e7465206e6f766f7320757375c3a172696f732073656d2074617a6f7320706f64656d20676572617220756d2074617a6fa165627a7a723058202e985083ffcd614422bac567db8de5aead18e8371e3fe0c70bcba5f3556ce7050029",
  "source": "pragma solidity ^0.5.0;\r\n\r\nimport \"./TazoHelper.sol\";\r\n\r\ncontract TazoBattle is TazoHelper {\r\n\r\n    uint randNonce = 0;\r\n\r\n    function getTazoPower(uint _tazoId) public returns(uint){\r\n        uint tazoDna = tazos[_tazoId].dna;\r\n        uint basePower = tazoDna%10000;\r\n        return ((basePower%5)+1) * tazos[_tazoId].level;\r\n    }\r\n\r\n\r\n  function randMod(uint _modulus) internal returns(uint) {\r\n    randNonce = randNonce.add(1);\r\n    return uint(keccak256(abi.encodePacked(now, msg.sender, randNonce))) % _modulus;\r\n  }\r\n\r\n  function attack(uint _tazoId, uint _targetId) external onlyOwnerOf(_tazoId) {\r\n    Tazo storage myTazo = tazos[_tazoId];\r\n    Tazo storage enemyTazo = tazos[_targetId];\r\n    uint rand = randMod(100);\r\n    uint battleVictoryProbability;\r\n    uint levelGain;\r\n    uint levelDifference = myTazo.level - enemyTazo.level;\r\n    if(levelDifference <= uint(-8)){\r\n        battleVictoryProbability = 7;\r\n        levelGain = 12;\r\n    }\r\n    else if(levelDifference <= uint(-5) && levelDifference > uint(-8)){\r\n        battleVictoryProbability = 14;\r\n        levelGain = 9;\r\n    }\r\n    else if(levelDifference < uint(0) && levelDifference > uint(-5)){\r\n        battleVictoryProbability = 20;\r\n        levelGain = 7;\r\n    }\r\n    else if(uint(0) < levelDifference && levelDifference < uint(5)){\r\n        battleVictoryProbability = 60;\r\n        levelGain = 4;\r\n    }\r\n    else if(uint(5) <= levelDifference && levelDifference < uint(8)){\r\n        battleVictoryProbability = 70;\r\n        levelGain = 3;\r\n    }\r\n    else if(uint(8) <= levelDifference && levelDifference < uint(10)){\r\n        battleVictoryProbability = 80;\r\n        levelGain = 2;\r\n    }\r\n    else if(levelDifference >= uint(10)){\r\n        battleVictoryProbability = 85;\r\n        levelGain = 1;\r\n    }\r\n    else if(levelDifference == uint(0)){\r\n        battleVictoryProbability = 50;\r\n        levelGain = 4;\r\n    }\r\n\r\n    if (rand <= battleVictoryProbability) {\r\n      myTazo.winCount = myTazo.winCount.add(1);\r\n      myTazo.level = myTazo.level.add(levelGain);\r\n    } else {\r\n      enemyTazo.winCount = enemyTazo.winCount.add(1);\r\n      enemyTazo.level = enemyTazo.level.add(1);\r\n    }\r\n    _triggerCooldown(myTazo);\r\n  }\r\n\r\n}",
  "sourcePath": "D:/Projects/Projeto SD/Cryptazo/truffle project/contracts/TazoBattle.sol",
  "compiler": {
    "name": "solc",
    "version": "0.5.8+commit.23d335f2.Emscripten.clang"
  },
  "schemaVersion": "3.0.11",
  "updatedAt": "2019-06-26T02:37:55.241Z",
  "devdoc": {
    "methods": {
      "isOwner()": {
        "details": "Returns true if the caller is the current owner."
      },
      "owner()": {
        "details": "Returns the address of the current owner."
      },
      "renounceOwnership()": {
        "details": "Leaves the contract without owner. It will not be possible to call `onlyOwner` functions anymore. Can only be called by the current owner.     * > Note: Renouncing ownership will leave the contract without an owner, thereby removing any functionality that is only available to the owner."
      },
      "transferOwnership(address)": {
        "details": "Transfers ownership of the contract to a new account (`newOwner`). Can only be called by the current owner."
      }
    }
  },
  "userdoc": {
    "methods": {}
  }
}