{
  "contractName": "Test",
  "abi": [
    {
      "inputs": [],
      "payable": false,
      "stateMutability": "nonpayable",
      "type": "constructor"
    },
    {
      "constant": true,
      "inputs": [],
      "name": "getNumber",
      "outputs": [
        {
          "name": "",
          "type": "string"
        }
      ],
      "payable": false,
      "stateMutability": "view",
      "type": "function"
    },
    {
      "constant": true,
      "inputs": [],
      "name": "getGreet",
      "outputs": [
        {
          "name": "",
          "type": "string"
        }
      ],
      "payable": false,
      "stateMutability": "view",
      "type": "function"
    },
    {
      "constant": false,
      "inputs": [
        {
          "name": "_newGreet",
          "type": "string"
        }
      ],
      "name": "setGreet",
      "outputs": [],
      "payable": false,
      "stateMutability": "nonpayable",
      "type": "function"
    }
  ],
  "bytecode": "0x6080604052600a60015534801561001557600080fd5b506040518060400160405280600581526020017f68656c6c6f00000000000000000000000000000000000000000000000000000081525060009080519060200190610061929190610067565b5061010c565b828054600181600116156101000203166002900490600052602060002090601f016020900481019282601f106100a857805160ff19168380011785556100d6565b828001600101855582156100d6579182015b828111156100d55782518255916020019190600101906100ba565b5b5090506100e391906100e7565b5090565b61010991905b808211156101055760008160009055506001016100ed565b5090565b90565b6104d88061011b6000396000f3fe608060405234801561001057600080fd5b50600436106100415760003560e01c80639698086b14610046578063d705a4b514610101578063f2c9ecd814610184575b600080fd5b6100ff6004803603602081101561005c57600080fd5b810190808035906020019064010000000081111561007957600080fd5b82018360208201111561008b57600080fd5b803590602001918460018302840111640100000000831117156100ad57600080fd5b91908080601f016020809104026020016040519081016040528093929190818152602001838380828437600081840152601f19601f820116905080830192505050505050509192919290505050610207565b005b610109610221565b6040518080602001828103825283818151815260200191508051906020019080838360005b8381101561014957808201518184015260208101905061012e565b50505050905090810190601f1680156101765780820380516001836020036101000a031916815260200191505b509250505060405180910390f35b61018c6102c3565b6040518080602001828103825283818151815260200191508051906020019080838360005b838110156101cc5780820151818401526020810190506101b1565b50505050905090810190601f1680156101f95780820380516001836020036101000a031916815260200191505b509250505060405180910390f35b806000908051906020019061021d929190610407565b5050565b606060008054600181600116156101000203166002900480601f0160208091040260200160405190810160405280929190818152602001828054600181600116156101000203166002900480156102b95780601f1061028e576101008083540402835291602001916102b9565b820191906000526020600020905b81548152906001019060200180831161029c57829003601f168201915b5050505050905090565b6060806102d16001546102da565b90508091505090565b60606000821415610322576040518060400160405280600181526020017f30000000000000000000000000000000000000000000000000000000000000008152509050610402565b600082905060005b6000821461034c578080600101915050600a828161034457fe5b04915061032a565b6060816040519080825280601f01601f1916602001820160405280156103815781602001600182028038833980820191505090505b50905060006001830390505b600086146103fa57600a868161039f57fe5b0660300160f81b828280600190039350815181106103b957fe5b60200101907effffffffffffffffffffffffffffffffffffffffffffffffffffffffffffff1916908160001a905350600a86816103f257fe5b04955061038d565b819450505050505b919050565b828054600181600116156101000203166002900490600052602060002090601f016020900481019282601f1061044857805160ff1916838001178555610476565b82800160010185558215610476579182015b8281111561047557825182559160200191906001019061045a565b5b5090506104839190610487565b5090565b6104a991905b808211156104a557600081600090555060010161048d565b5090565b9056fea165627a7a7230582055df6bf6bc138ef68180125defe94151086b13537c001af3fa553949fb84f89a0029",
  "source": "pragma solidity ^0.5.0;\r\n\r\ncontract Test{\r\n    string greet;\r\n    uint number = 10;\r\n\r\n    constructor() public {\r\n        greet = \"hello\";\r\n    }\r\n\r\n    function getNumber() public view returns(string memory){\r\n        string memory numero = _uint2str(number);\r\n        return numero;\r\n    }\r\n\r\n    function getGreet() public view returns (string memory) {\r\n        return greet;\r\n    }\r\n    function setGreet(string memory _newGreet) public {\r\n        greet = _newGreet;\r\n    }\r\n\r\n    function _uint2str(uint _i) internal pure returns (string memory _uintAsString) {\r\n    if (_i == 0) {\r\n        return \"0\";\r\n    }\r\n    uint j = _i;\r\n    uint len;\r\n    while (j != 0) {\r\n        len++;\r\n        j /= 10;\r\n    }\r\n    bytes memory bstr = new bytes(len);\r\n    uint k = len - 1;\r\n    while (_i != 0) {\r\n        bstr[k--] = byte(uint8(48 + _i % 10));\r\n        _i /= 10;\r\n    }\r\n    return string(bstr);\r\n    }\r\n\r\n}",
  "sourcePath": "D:/Projects/Cryptazo/truffle project/contracts/Test.sol",
  "compiler": {
    "name": "solc",
    "version": "0.5.8+commit.23d335f2.Emscripten.clang"
  },
  "schemaVersion": "3.0.11",
  "updatedAt": "2019-07-05T14:26:53.149Z",
  "devdoc": {
    "methods": {}
  },
  "userdoc": {
    "methods": {}
  }
}